{
  "contractName": "ArithamaticOperations",
  "abi": [
    {
      "inputs": [
        {
          "internalType": "uint256",
          "name": "value",
          "type": "uint256"
        }
      ],
      "name": "calculateTip",
      "outputs": [
        {
          "internalType": "uint256",
          "name": "tip",
          "type": "uint256"
        }
      ],
      "stateMutability": "pure",
      "type": "function",
      "constant": true
    },
    {
      "inputs": [
        {
          "internalType": "uint8",
          "name": "x",
          "type": "uint8"
        },
        {
          "internalType": "uint256",
          "name": "y",
          "type": "uint256"
        }
      ],
      "name": "multiply",
      "outputs": [
        {
          "internalType": "uint256",
          "name": "z",
          "type": "uint256"
        }
      ],
      "stateMutability": "pure",
      "type": "function",
      "constant": true
    }
  ],
  "bytecode": "0x608060405234801561001057600080fd5b5061032e806100206000396000f3fe608060405234801561001057600080fd5b5060043610610053576000357c010000000000000000000000000000000000000000000000000000000090048063314eebf814610058578063fc6e663314610088575b600080fd5b610072600480360381019061006d9190610190565b6100b8565b60405161007f91906101df565b60405180910390f35b6100a2600480360381019061009d91906101fa565b6100f5565b6040516100af91906101df565b60405180910390f35b6000808214806100e657508260ff1682838560ff166100d79190610256565b9250826100e491906102c7565b145b6100ef57600080fd5b92915050565b600080600a8361010591906102c7565b90506064816101149190610256565b915050919050565b600080fd5b600060ff82169050919050565b61013781610121565b811461014257600080fd5b50565b6000813590506101548161012e565b92915050565b6000819050919050565b61016d8161015a565b811461017857600080fd5b50565b60008135905061018a81610164565b92915050565b600080604083850312156101a7576101a661011c565b5b60006101b585828601610145565b92505060206101c68582860161017b565b9150509250929050565b6101d98161015a565b82525050565b60006020820190506101f460008301846101d0565b92915050565b6000602082840312156102105761020f61011c565b5b600061021e8482850161017b565b91505092915050565b7f4e487b7100000000000000000000000000000000000000000000000000000000600052601160045260246000fd5b60006102618261015a565b915061026c8361015a565b925082820261027a8161015a565b9150828204841483151761029157610290610227565b5b5092915050565b7f4e487b7100000000000000000000000000000000000000000000000000000000600052601260045260246000fd5b60006102d28261015a565b91506102dd8361015a565b9250826102ed576102ec610298565b5b82820490509291505056fea2646970667358221220bb7149d57eee4743389de16c791f69514c193c8bc9c44e9e99fcff80e910ac1164736f6c63430008120033",
  "immutableReferences": {},
  "source": "\n// SPDX-License-Identifier: MIT\npragma solidity ^0.8.18;\ncontract ArithamaticOperations{\n    function calculateTip(uint256 value) public pure returns (uint256 tip) {\n        // Perform the division first to avoid overflow\n        uint256 dividedValue = value / 10;\n\n        // Multiply the divided value by 100 to get the tip amount\n        tip = dividedValue * 100;\n\n        return tip;\n    }\n    function multiply(uint8 x, uint256 y) public pure returns(uint256 z){\n        require(y==0 || (z=x*y)/y ==x);\n    }\n\n    \n}",
  "sourcePath": "/home/vishnu/blockchainAssignment/contracts/ArithamaticOperations.sol",
  "compiler": {
    "name": "solc",
    "version": "0.8.18+commit.87f61d96.Emscripten.clang"
  },
  "schemaVersion": "3.4.16",
  "updatedAt": "2024-04-10T14:44:22.515Z",
  "networkType": "ethereum",
  "devdoc": {
    "kind": "dev",
    "methods": {},
    "version": 1
  },
  "userdoc": {
    "kind": "user",
    "methods": {},
    "version": 1
  }
}