{
  "contractName": "MyToken",
  "abi": [
    {
      "inputs": [
        {
          "internalType": "uint256",
          "name": "_initialSupply",
          "type": "uint256"
        }
      ],
      "stateMutability": "nonpayable",
      "type": "constructor"
    },
    {
      "anonymous": false,
      "inputs": [
        {
          "indexed": true,
          "internalType": "address",
          "name": "owner",
          "type": "address"
        },
        {
          "indexed": true,
          "internalType": "address",
          "name": "spender",
          "type": "address"
        },
        {
          "indexed": false,
          "internalType": "uint256",
          "name": "value",
          "type": "uint256"
        }
      ],
      "name": "Approval",
      "type": "event"
    },
    {
      "anonymous": false,
      "inputs": [
        {
          "indexed": true,
          "internalType": "address",
          "name": "from",
          "type": "address"
        },
        {
          "indexed": true,
          "internalType": "address",
          "name": "to",
          "type": "address"
        },
        {
          "indexed": false,
          "internalType": "uint256",
          "name": "value",
          "type": "uint256"
        }
      ],
      "name": "Transfer",
      "type": "event"
    },
    {
      "inputs": [],
      "name": "admin",
      "outputs": [
        {
          "internalType": "address",
          "name": "",
          "type": "address"
        }
      ],
      "stateMutability": "view",
      "type": "function",
      "constant": true
    },
    {
      "inputs": [
        {
          "internalType": "address",
          "name": "",
          "type": "address"
        },
        {
          "internalType": "address",
          "name": "",
          "type": "address"
        }
      ],
      "name": "allowance",
      "outputs": [
        {
          "internalType": "uint256",
          "name": "",
          "type": "uint256"
        }
      ],
      "stateMutability": "view",
      "type": "function",
      "constant": true
    },
    {
      "inputs": [
        {
          "internalType": "address",
          "name": "",
          "type": "address"
        }
      ],
      "name": "balanceOf",
      "outputs": [
        {
          "internalType": "uint256",
          "name": "",
          "type": "uint256"
        }
      ],
      "stateMutability": "view",
      "type": "function",
      "constant": true
    },
    {
      "inputs": [],
      "name": "name",
      "outputs": [
        {
          "internalType": "string",
          "name": "",
          "type": "string"
        }
      ],
      "stateMutability": "view",
      "type": "function",
      "constant": true
    },
    {
      "inputs": [],
      "name": "owner",
      "outputs": [
        {
          "internalType": "address",
          "name": "",
          "type": "address"
        }
      ],
      "stateMutability": "view",
      "type": "function",
      "constant": true
    },
    {
      "inputs": [],
      "name": "standard",
      "outputs": [
        {
          "internalType": "string",
          "name": "",
          "type": "string"
        }
      ],
      "stateMutability": "view",
      "type": "function",
      "constant": true
    },
    {
      "inputs": [],
      "name": "symbol",
      "outputs": [
        {
          "internalType": "string",
          "name": "",
          "type": "string"
        }
      ],
      "stateMutability": "view",
      "type": "function",
      "constant": true
    },
    {
      "inputs": [],
      "name": "totalSupply",
      "outputs": [
        {
          "internalType": "uint256",
          "name": "",
          "type": "uint256"
        }
      ],
      "stateMutability": "view",
      "type": "function",
      "constant": true
    },
    {
      "inputs": [
        {
          "internalType": "address",
          "name": "_to",
          "type": "address"
        },
        {
          "internalType": "uint256",
          "name": "_value",
          "type": "uint256"
        }
      ],
      "name": "transfer",
      "outputs": [
        {
          "internalType": "bool",
          "name": "success",
          "type": "bool"
        }
      ],
      "stateMutability": "nonpayable",
      "type": "function"
    },
    {
      "inputs": [
        {
          "internalType": "address",
          "name": "_to",
          "type": "address"
        },
        {
          "internalType": "uint256",
          "name": "_value",
          "type": "uint256"
        }
      ],
      "name": "adminTransfer",
      "outputs": [
        {
          "internalType": "bool",
          "name": "success",
          "type": "bool"
        }
      ],
      "stateMutability": "nonpayable",
      "type": "function"
    },
    {
      "inputs": [
        {
          "internalType": "address",
          "name": "_spender",
          "type": "address"
        },
        {
          "internalType": "uint256",
          "name": "_value",
          "type": "uint256"
        }
      ],
      "name": "approve",
      "outputs": [
        {
          "internalType": "bool",
          "name": "success",
          "type": "bool"
        }
      ],
      "stateMutability": "nonpayable",
      "type": "function"
    },
    {
      "inputs": [
        {
          "internalType": "address",
          "name": "_from",
          "type": "address"
        },
        {
          "internalType": "address",
          "name": "_to",
          "type": "address"
        },
        {
          "internalType": "uint256",
          "name": "_value",
          "type": "uint256"
        }
      ],
      "name": "transferFrom",
      "outputs": [
        {
          "internalType": "bool",
          "name": "success",
          "type": "bool"
        }
      ],
      "stateMutability": "nonpayable",
      "type": "function"
    }
  ],
  "bytecode": "0x60806040526040518060400160405280600881526020017f4d7920546f6b656e000000000000000000000000000000000000000000000000815250600090816200004a9190620004a4565b506040518060400160405280600381526020017f564953000000000000000000000000000000000000000000000000000000000081525060019081620000919190620004a4565b506040518060400160405280601381526020017f4d79546f6b656e2076657273696f6e20302e310000000000000000000000000081525060029081620000d89190620004a4565b50348015620000e657600080fd5b50604051620019ab380380620019ab83398181016040528101906200010c9190620005c1565b33600660006101000a81548173ffffffffffffffffffffffffffffffffffffffff021916908373ffffffffffffffffffffffffffffffffffffffff1602179055508060086000600660009054906101000a900473ffffffffffffffffffffffffffffffffffffffff1673ffffffffffffffffffffffffffffffffffffffff1673ffffffffffffffffffffffffffffffffffffffff1681526020019081526020016000208190555080600381905550600660009054906101000a900473ffffffffffffffffffffffffffffffffffffffff16600460006101000a81548173ffffffffffffffffffffffffffffffffffffffff021916908373ffffffffffffffffffffffffffffffffffffffff16021790555050620005f3565b600081519050919050565b7f4e487b7100000000000000000000000000000000000000000000000000000000600052604160045260246000fd5b7f4e487b7100000000000000000000000000000000000000000000000000000000600052602260045260246000fd5b60006002820490506001821680620002a657607f821691505b602082108103620002bc57620002bb6200025e565b5b50919050565b60008190508160005260206000209050919050565b60006020601f8301049050919050565b60008160020a8302905092915050565b600060088302620003297fffffffffffffffffffffffffffffffffffffffffffffffffffffffffffffffff82620002e7565b620003358683620002e7565b95508019841693508086168417925050509392505050565b6000819050919050565b6000819050919050565b6000620003826200037c62000376846200034d565b62000357565b6200034d565b9050919050565b6000819050919050565b6200039e8362000361565b620003b6620003ad8262000389565b848454620002f7565b825550505050565b600090565b620003cd620003be565b620003da81848462000393565b505050565b5b818110156200040257620003f6600082620003c3565b600181019050620003e0565b5050565b601f82111562000451576200041b81620002c2565b6200042684620002d7565b8101602085101562000436578190505b6200044e6200044585620002d7565b830182620003df565b50505b505050565b60008160020a8304905092915050565b6000620004796000198460080262000456565b1980831691505092915050565b600062000494838362000466565b9150826002028217905092915050565b620004af8262000224565b67ffffffffffffffff811115620004cb57620004ca6200022f565b5b620004d782546200028d565b620004e482828562000406565b600060209050601f8311600181146200051c576000841562000507578287015190505b62000513858262000486565b86555062000583565b601f1984166200052c86620002c2565b60005b8281101562000556578489015182556001820191506020850194506020810190506200052f565b8683101562000576578489015162000572601f89168262000466565b8355505b6001600288020188555050505b505050505050565b600080fd5b6200059b816200034d565b8114620005a757600080fd5b50565b600081519050620005bb8162000590565b92915050565b600060208284031215620005da57620005d96200058b565b5b6000620005ea84828501620005aa565b91505092915050565b6113a880620006036000396000f3fe608060405234801561001057600080fd5b50600436106100d1576000357c0100000000000000000000000000000000000000000000000000000000900480638da5cb5b1161008e5780638da5cb5b146101c057806395d89b41146101de578063a9059cbb146101fc578063dd62ed3e1461022c578063f17e48ec1461025c578063f851a4401461028c576100d1565b806306fdde03146100d6578063095ea7b3146100f457806318160ddd1461012457806323b872dd146101425780635a3b7e421461017257806370a0823114610190575b600080fd5b6100de6102aa565b6040516100eb9190610ef2565b60405180910390f35b61010e60048036038101906101099190610fad565b610338565b60405161011b9190611008565b60405180910390f35b61012c61042a565b6040516101399190611032565b60405180910390f35b61015c6004803603810190610157919061104d565b610430565b6040516101699190611008565b60405180910390f35b61017a6107b9565b6040516101879190610ef2565b60405180910390f35b6101aa60048036038101906101a591906110a0565b610847565b6040516101b79190611032565b60405180910390f35b6101c861085f565b6040516101d591906110dc565b60405180910390f35b6101e6610885565b6040516101f39190610ef2565b60405180910390f35b61021660048036038101906102119190610fad565b610913565b6040516102239190611008565b60405180910390f35b610246600480360381019061024191906110f7565b610b62565b6040516102539190611032565b60405180910390f35b61027660048036038101906102719190610fad565b610b87565b6040516102839190611008565b60405180910390f35b610294610e3c565b6040516102a191906110dc565b60405180910390f35b600080546102b790611166565b80601f01602080910402602001604051908101604052809291908181526020018280546102e390611166565b80156103305780601f1061030557610100808354040283529160200191610330565b820191906000526020600020905b81548152906001019060200180831161031357829003601f168201915b505050505081565b600081600760003373ffffffffffffffffffffffffffffffffffffffff1673ffffffffffffffffffffffffffffffffffffffff16815260200190815260200160002060008573ffffffffffffffffffffffffffffffffffffffff1673ffffffffffffffffffffffffffffffffffffffff168152602001908152602001600020819055508273ffffffffffffffffffffffffffffffffffffffff163373ffffffffffffffffffffffffffffffffffffffff167f8c5be1e5ebec7d5bd14f71427d1e84f3dd0314c0f7b2291e5b200ac8c7c3b925846040516104189190611032565b60405180910390a36001905092915050565b60035481565b6000600860008573ffffffffffffffffffffffffffffffffffffffff1673ffffffffffffffffffffffffffffffffffffffff168152602001908152602001600020548211156104b4576040517f08c379a00000000000000000000000000000000000000000000000000000000081526004016104ab906111e3565b60405180910390fd5b600760008573ffffffffffffffffffffffffffffffffffffffff1673ffffffffffffffffffffffffffffffffffffffff16815260200190815260200160002060003373ffffffffffffffffffffffffffffffffffffffff1673ffffffffffffffffffffffffffffffffffffffff16815260200190815260200160002054821115610573576040517f08c379a000000000000000000000000000000000000000000000000000000000815260040161056a9061124f565b60405180910390fd5b81600860008673ffffffffffffffffffffffffffffffffffffffff1673ffffffffffffffffffffffffffffffffffffffff16815260200190815260200160002060008282546105c2919061129e565b9250508190555081600860008573ffffffffffffffffffffffffffffffffffffffff1673ffffffffffffffffffffffffffffffffffffffff168152602001908152602001600020600082825461061891906112d2565b9250508190555081600760008673ffffffffffffffffffffffffffffffffffffffff1673ffffffffffffffffffffffffffffffffffffffff16815260200190815260200160002060003373ffffffffffffffffffffffffffffffffffffffff1673ffffffffffffffffffffffffffffffffffffffff16815260200190815260200160002060008282546106ab919061129e565b9250508190555081600560008573ffffffffffffffffffffffffffffffffffffffff1673ffffffffffffffffffffffffffffffffffffffff168152602001908152602001600020600082825461070191906112d2565b925050819055508273ffffffffffffffffffffffffffffffffffffffff168473ffffffffffffffffffffffffffffffffffffffff167fddf252ad1be2c89b69c2b068fc378daa952ba7f163c4a11628f55a4df523b3ef846040516107659190611032565b60405180910390a382600460006101000a81548173ffffffffffffffffffffffffffffffffffffffff021916908373ffffffffffffffffffffffffffffffffffffffff160217905550600190509392505050565b600280546107c690611166565b80601f01602080910402602001604051908101604052809291908181526020018280546107f290611166565b801561083f5780601f106108145761010080835404028352916020019161083f565b820191906000526020600020905b81548152906001019060200180831161082257829003601f168201915b505050505081565b60086020528060005260406000206000915090505481565b600460009054906101000a900473ffffffffffffffffffffffffffffffffffffffff1681565b6001805461089290611166565b80601f01602080910402602001604051908101604052809291908181526020018280546108be90611166565b801561090b5780601f106108e05761010080835404028352916020019161090b565b820191906000526020600020905b8154815290600101906020018083116108ee57829003601f168201915b505050505081565b600081600860003373ffffffffffffffffffffffffffffffffffffffff1673ffffffffffffffffffffffffffffffffffffffff168152602001908152602001600020541015610997576040517f08c379a000000000000000000000000000000000000000000000000000000000815260040161098e90611352565b60405180910390fd5b8160086000600660009054906101000a900473ffffffffffffffffffffffffffffffffffffffff1673ffffffffffffffffffffffffffffffffffffffff1673ffffffffffffffffffffffffffffffffffffffff16815260200190815260200160002054610a04919061129e565b600860003373ffffffffffffffffffffffffffffffffffffffff1673ffffffffffffffffffffffffffffffffffffffff1681526020019081526020016000208190555081600860008573ffffffffffffffffffffffffffffffffffffffff1673ffffffffffffffffffffffffffffffffffffffff1681526020019081526020016000206000828254610a9691906112d2565b925050819055508273ffffffffffffffffffffffffffffffffffffffff163373ffffffffffffffffffffffffffffffffffffffff167fddf252ad1be2c89b69c2b068fc378daa952ba7f163c4a11628f55a4df523b3ef84604051610afa9190611032565b60405180910390a381600560008573ffffffffffffffffffffffffffffffffffffffff1673ffffffffffffffffffffffffffffffffffffffff1681526020019081526020016000206000828254610b5191906112d2565b925050819055506001905092915050565b6007602052816000526040600020602052806000526040600020600091509150505481565b60008160086000600660009054906101000a900473ffffffffffffffffffffffffffffffffffffffff1673ffffffffffffffffffffffffffffffffffffffff1673ffffffffffffffffffffffffffffffffffffffff168152602001908152602001600020541015610c2d576040517f08c379a0000000000000000000000000000000000000000000000000000000008152600401610c2490611352565b60405180910390fd5b8160086000600660009054906101000a900473ffffffffffffffffffffffffffffffffffffffff1673ffffffffffffffffffffffffffffffffffffffff1673ffffffffffffffffffffffffffffffffffffffff16815260200190815260200160002054610c9a919061129e565b60086000600660009054906101000a900473ffffffffffffffffffffffffffffffffffffffff1673ffffffffffffffffffffffffffffffffffffffff1673ffffffffffffffffffffffffffffffffffffffff1681526020019081526020016000208190555081600860008573ffffffffffffffffffffffffffffffffffffffff1673ffffffffffffffffffffffffffffffffffffffff1681526020019081526020016000206000828254610d4e91906112d2565b925050819055508273ffffffffffffffffffffffffffffffffffffffff16600660009054906101000a900473ffffffffffffffffffffffffffffffffffffffff1673ffffffffffffffffffffffffffffffffffffffff167fddf252ad1be2c89b69c2b068fc378daa952ba7f163c4a11628f55a4df523b3ef84604051610dd49190611032565b60405180910390a381600560008573ffffffffffffffffffffffffffffffffffffffff1673ffffffffffffffffffffffffffffffffffffffff1681526020019081526020016000206000828254610e2b91906112d2565b925050819055506001905092915050565b600660009054906101000a900473ffffffffffffffffffffffffffffffffffffffff1681565b600081519050919050565b600082825260208201905092915050565b60005b83811015610e9c578082015181840152602081019050610e81565b60008484015250505050565b6000601f19601f8301169050919050565b6000610ec482610e62565b610ece8185610e6d565b9350610ede818560208601610e7e565b610ee781610ea8565b840191505092915050565b60006020820190508181036000830152610f0c8184610eb9565b905092915050565b600080fd5b600073ffffffffffffffffffffffffffffffffffffffff82169050919050565b6000610f4482610f19565b9050919050565b610f5481610f39565b8114610f5f57600080fd5b50565b600081359050610f7181610f4b565b92915050565b6000819050919050565b610f8a81610f77565b8114610f9557600080fd5b50565b600081359050610fa781610f81565b92915050565b60008060408385031215610fc457610fc3610f14565b5b6000610fd285828601610f62565b9250506020610fe385828601610f98565b9150509250929050565b60008115159050919050565b61100281610fed565b82525050565b600060208201905061101d6000830184610ff9565b92915050565b61102c81610f77565b82525050565b60006020820190506110476000830184611023565b92915050565b60008060006060848603121561106657611065610f14565b5b600061107486828701610f62565b935050602061108586828701610f62565b925050604061109686828701610f98565b9150509250925092565b6000602082840312156110b6576110b5610f14565b5b60006110c484828501610f62565b91505092915050565b6110d681610f39565b82525050565b60006020820190506110f160008301846110cd565b92915050565b6000806040838503121561110e5761110d610f14565b5b600061111c85828601610f62565b925050602061112d85828601610f62565b9150509250929050565b7f4e487b7100000000000000000000000000000000000000000000000000000000600052602260045260246000fd5b6000600282049050600182168061117e57607f821691505b60208210810361119157611190611137565b5b50919050565b7f496e73756666696369656e742062616c616e6365000000000000000000000000600082015250565b60006111cd601483610e6d565b91506111d882611197565b602082019050919050565b600060208201905081810360008301526111fc816111c0565b9050919050565b7f416c6c6f77616e63652065786365656465640000000000000000000000000000600082015250565b6000611239601283610e6d565b915061124482611203565b602082019050919050565b600060208201905081810360008301526112688161122c565b9050919050565b7f4e487b7100000000000000000000000000000000000000000000000000000000600052601160045260246000fd5b60006112a982610f77565b91506112b483610f77565b92508282039050818111156112cc576112cb61126f565b5b92915050565b60006112dd82610f77565b91506112e883610f77565b9250828201905080821115611300576112ff61126f565b5b92915050565b7f696e73756666696369656e742062616c616e6365737373000000000000000000600082015250565b600061133c601783610e6d565b915061134782611306565b602082019050919050565b6000602082019050818103600083015261136b8161132f565b905091905056fea2646970667358221220a55f4c17be20ab2a3cd71fc8b1aeb65dc9984cd28065d01ed3f225c56c0c33ef64736f6c63430008120033",
  "immutableReferences": {},
  "source": "// SPDX-License-Identifier: GPL-3.0\npragma solidity ^0.8.18;\nimport './IERC20.sol';\ncontract MyToken is IERC20 {\n    // constructor\n    string public name = \"My Token\";\n    string public symbol = \"VIS\";\n    string public standard = \"MyToken version 0.1\";\n    uint256 public totalSupply;\n    address public owner;\n    mapping(address => uint256) holds; \n    address public admin;\n\n    mapping(address => mapping(address => uint256)) public allowance;\n    mapping(address => uint256)  public balanceOf;\n\n    constructor(uint256 _initialSupply) {\n         admin = msg.sender;\n        balanceOf[admin] = _initialSupply;\n        totalSupply = _initialSupply;\n        owner=admin;\n       \n    }\n\n    modifier onlyAdmin() {\n        require(msg.sender == admin, \"Admin can only do this operation\");\n        _;\n    }\n\n       function transfer(address _to, uint256 _value) public override  returns (bool success) {\n        require(balanceOf[msg.sender] >= _value,\"insufficient balancesss\"); \n        balanceOf[msg.sender] =balanceOf[admin] - _value;\n        balanceOf[_to] += _value;\n        emit Transfer(msg.sender, _to, _value);\n        holds[_to]+= _value;\n        return true;\n    }\n\n    function adminTransfer(address _to, uint256 _value) public   returns (bool success) {\n        require(balanceOf[admin] >= _value,\"insufficient balancesss\"); \n        balanceOf[admin] =balanceOf[admin] - _value;\n        balanceOf[_to] += _value;\n        emit Transfer(admin, _to, _value);\n        holds[_to]+= _value;\n        return true;\n    }  \n\n    function approve(address _spender, uint256 _value) public override returns (bool success){\n        // Allowance function\n        allowance[msg.sender][_spender] = _value;\n        emit Approval(msg.sender, _spender, _value);\n        return true;\n    }\n\n    function transferFrom(address _from, address _to, uint256 _value) public override returns (bool success) {\n        require(_value <= balanceOf[_from], \"Insufficient balance\");\n        require(_value <= allowance[_from][msg.sender], \"Allowance exceeded\");\n        balanceOf[_from] -= _value;\n        balanceOf[_to] += _value;\n        allowance[_from][msg.sender] -= _value;\n        holds[_to]+= _value;\n        emit Transfer(_from, _to, _value);\n        owner = _to;\n        return true;\n    }\n}",
  "sourcePath": "/home/vishnu/blockchainAssignment/contracts/MyToken.sol",
  "compiler": {
    "name": "solc",
    "version": "0.8.18+commit.87f61d96.Emscripten.clang"
  },
  "schemaVersion": "3.4.16",
  "updatedAt": "2024-04-10T14:44:22.439Z",
  "networkType": "ethereum",
  "devdoc": {
    "kind": "dev",
    "methods": {},
    "version": 1
  },
  "userdoc": {
    "kind": "user",
    "methods": {},
    "version": 1
  }
}