{
  "contractName": "TokenSale",
  "abi": [
    {
      "inputs": [
        {
          "internalType": "contract MyToken",
          "name": "_tokenContract",
          "type": "address"
        },
        {
          "internalType": "uint256",
          "name": "_initialSupply",
          "type": "uint256"
        }
      ],
      "stateMutability": "nonpayable",
      "type": "constructor"
    },
    {
      "anonymous": false,
      "inputs": [
        {
          "indexed": true,
          "internalType": "address",
          "name": "owner",
          "type": "address"
        },
        {
          "indexed": true,
          "internalType": "address",
          "name": "spender",
          "type": "address"
        },
        {
          "indexed": false,
          "internalType": "uint256",
          "name": "value",
          "type": "uint256"
        }
      ],
      "name": "Approval",
      "type": "event"
    },
    {
      "anonymous": false,
      "inputs": [
        {
          "indexed": false,
          "internalType": "address",
          "name": "from",
          "type": "address"
        },
        {
          "indexed": false,
          "internalType": "uint256",
          "name": "_amount",
          "type": "uint256"
        }
      ],
      "name": "Sell",
      "type": "event"
    },
    {
      "anonymous": false,
      "inputs": [
        {
          "indexed": true,
          "internalType": "address",
          "name": "from",
          "type": "address"
        },
        {
          "indexed": true,
          "internalType": "address",
          "name": "to",
          "type": "address"
        },
        {
          "indexed": false,
          "internalType": "uint256",
          "name": "value",
          "type": "uint256"
        }
      ],
      "name": "Transfer",
      "type": "event"
    },
    {
      "stateMutability": "payable",
      "type": "fallback",
      "payable": true
    },
    {
      "inputs": [],
      "name": "admin",
      "outputs": [
        {
          "internalType": "address",
          "name": "",
          "type": "address"
        }
      ],
      "stateMutability": "view",
      "type": "function",
      "constant": true
    },
    {
      "inputs": [
        {
          "internalType": "address",
          "name": "_to",
          "type": "address"
        },
        {
          "internalType": "uint256",
          "name": "_value",
          "type": "uint256"
        }
      ],
      "name": "adminTransfer",
      "outputs": [
        {
          "internalType": "bool",
          "name": "success",
          "type": "bool"
        }
      ],
      "stateMutability": "nonpayable",
      "type": "function"
    },
    {
      "inputs": [
        {
          "internalType": "address",
          "name": "",
          "type": "address"
        },
        {
          "internalType": "address",
          "name": "",
          "type": "address"
        }
      ],
      "name": "allowance",
      "outputs": [
        {
          "internalType": "uint256",
          "name": "",
          "type": "uint256"
        }
      ],
      "stateMutability": "view",
      "type": "function",
      "constant": true
    },
    {
      "inputs": [
        {
          "internalType": "address",
          "name": "_spender",
          "type": "address"
        },
        {
          "internalType": "uint256",
          "name": "_value",
          "type": "uint256"
        }
      ],
      "name": "approve",
      "outputs": [
        {
          "internalType": "bool",
          "name": "success",
          "type": "bool"
        }
      ],
      "stateMutability": "nonpayable",
      "type": "function"
    },
    {
      "inputs": [
        {
          "internalType": "address",
          "name": "",
          "type": "address"
        }
      ],
      "name": "balanceOf",
      "outputs": [
        {
          "internalType": "uint256",
          "name": "",
          "type": "uint256"
        }
      ],
      "stateMutability": "view",
      "type": "function",
      "constant": true
    },
    {
      "inputs": [
        {
          "internalType": "uint256",
          "name": "value",
          "type": "uint256"
        }
      ],
      "name": "calculateTip",
      "outputs": [
        {
          "internalType": "uint256",
          "name": "tip",
          "type": "uint256"
        }
      ],
      "stateMutability": "pure",
      "type": "function",
      "constant": true
    },
    {
      "inputs": [
        {
          "internalType": "uint8",
          "name": "x",
          "type": "uint8"
        },
        {
          "internalType": "uint256",
          "name": "y",
          "type": "uint256"
        }
      ],
      "name": "multiply",
      "outputs": [
        {
          "internalType": "uint256",
          "name": "z",
          "type": "uint256"
        }
      ],
      "stateMutability": "pure",
      "type": "function",
      "constant": true
    },
    {
      "inputs": [],
      "name": "name",
      "outputs": [
        {
          "internalType": "string",
          "name": "",
          "type": "string"
        }
      ],
      "stateMutability": "view",
      "type": "function",
      "constant": true
    },
    {
      "inputs": [],
      "name": "owner",
      "outputs": [
        {
          "internalType": "address",
          "name": "",
          "type": "address"
        }
      ],
      "stateMutability": "view",
      "type": "function",
      "constant": true
    },
    {
      "inputs": [],
      "name": "standard",
      "outputs": [
        {
          "internalType": "string",
          "name": "",
          "type": "string"
        }
      ],
      "stateMutability": "view",
      "type": "function",
      "constant": true
    },
    {
      "inputs": [],
      "name": "symbol",
      "outputs": [
        {
          "internalType": "string",
          "name": "",
          "type": "string"
        }
      ],
      "stateMutability": "view",
      "type": "function",
      "constant": true
    },
    {
      "inputs": [],
      "name": "tip",
      "outputs": [
        {
          "internalType": "uint256",
          "name": "",
          "type": "uint256"
        }
      ],
      "stateMutability": "view",
      "type": "function",
      "constant": true
    },
    {
      "inputs": [],
      "name": "tokenContract",
      "outputs": [
        {
          "internalType": "contract MyToken",
          "name": "",
          "type": "address"
        }
      ],
      "stateMutability": "view",
      "type": "function",
      "constant": true
    },
    {
      "inputs": [],
      "name": "tokenPrice",
      "outputs": [
        {
          "internalType": "uint256",
          "name": "",
          "type": "uint256"
        }
      ],
      "stateMutability": "view",
      "type": "function",
      "constant": true
    },
    {
      "inputs": [],
      "name": "tokenSold",
      "outputs": [
        {
          "internalType": "uint8",
          "name": "",
          "type": "uint8"
        }
      ],
      "stateMutability": "view",
      "type": "function",
      "constant": true
    },
    {
      "inputs": [],
      "name": "totalSupply",
      "outputs": [
        {
          "internalType": "uint256",
          "name": "",
          "type": "uint256"
        }
      ],
      "stateMutability": "view",
      "type": "function",
      "constant": true
    },
    {
      "inputs": [
        {
          "internalType": "address",
          "name": "_to",
          "type": "address"
        },
        {
          "internalType": "uint256",
          "name": "_value",
          "type": "uint256"
        }
      ],
      "name": "transfer",
      "outputs": [
        {
          "internalType": "bool",
          "name": "success",
          "type": "bool"
        }
      ],
      "stateMutability": "nonpayable",
      "type": "function"
    },
    {
      "inputs": [
        {
          "internalType": "address",
          "name": "_from",
          "type": "address"
        },
        {
          "internalType": "address",
          "name": "_to",
          "type": "address"
        },
        {
          "internalType": "uint256",
          "name": "_value",
          "type": "uint256"
        }
      ],
      "name": "transferFrom",
      "outputs": [
        {
          "internalType": "bool",
          "name": "success",
          "type": "bool"
        }
      ],
      "stateMutability": "nonpayable",
      "type": "function"
    },
    {
      "inputs": [
        {
          "internalType": "address",
          "name": "",
          "type": "address"
        },
        {
          "internalType": "address",
          "name": "",
          "type": "address"
        }
      ],
      "name": "validToken",
      "outputs": [
        {
          "internalType": "uint8",
          "name": "",
          "type": "uint8"
        }
      ],
      "stateMutability": "view",
      "type": "function",
      "constant": true
    },
    {
      "stateMutability": "payable",
      "type": "receive",
      "payable": true
    },
    {
      "inputs": [
        {
          "internalType": "uint256",
          "name": "_price",
          "type": "uint256"
        }
      ],
      "name": "setTokenPrice",
      "outputs": [],
      "stateMutability": "nonpayable",
      "type": "function"
    },
    {
      "inputs": [
        {
          "internalType": "uint8",
          "name": "_numberOfToken",
          "type": "uint8"
        }
      ],
      "name": "buyTokens",
      "outputs": [],
      "stateMutability": "payable",
      "type": "function",
      "payable": true
    },
    {
      "inputs": [],
      "name": "EndSale",
      "outputs": [],
      "stateMutability": "payable",
      "type": "function",
      "payable": true
    },
    {
      "inputs": [
        {
          "internalType": "address payable",
          "name": "_to",
          "type": "address"
        }
      ],
      "name": "sendEther",
      "outputs": [],
      "stateMutability": "payable",
      "type": "function",
      "payable": true
    },
    {
      "inputs": [
        {
          "internalType": "address",
          "name": "_from",
          "type": "address"
        },
        {
          "internalType": "address",
          "name": "_to",
          "type": "address"
        }
      ],
      "name": "transferToken",
      "outputs": [],
      "stateMutability": "payable",
      "type": "function",
      "payable": true
    }
  ],
  "bytecode": "0x60806040526040518060400160405280600881526020017f4d7920546f6b656e000000000000000000000000000000000000000000000000815250600090816200004a9190620004e8565b506040518060400160405280600381526020017f564953000000000000000000000000000000000000000000000000000000000081525060019081620000919190620004e8565b506040518060400160405280601381526020017f4d79546f6b656e2076657273696f6e20302e310000000000000000000000000081525060029081620000d89190620004e8565b50348015620000e657600080fd5b5060405162002c7038038062002c7083398181016040528101906200010c91906200067e565b8033600660006101000a81548173ffffffffffffffffffffffffffffffffffffffff021916908373ffffffffffffffffffffffffffffffffffffffff1602179055508060086000600660009054906101000a900473ffffffffffffffffffffffffffffffffffffffff1673ffffffffffffffffffffffffffffffffffffffff1673ffffffffffffffffffffffffffffffffffffffff1681526020019081526020016000208190555080600381905550600660009054906101000a900473ffffffffffffffffffffffffffffffffffffffff16600460006101000a81548173ffffffffffffffffffffffffffffffffffffffff021916908373ffffffffffffffffffffffffffffffffffffffff1602179055505081600960006101000a81548173ffffffffffffffffffffffffffffffffffffffff021916908373ffffffffffffffffffffffffffffffffffffffff1602179055505050620006c5565b600081519050919050565b7f4e487b7100000000000000000000000000000000000000000000000000000000600052604160045260246000fd5b7f4e487b7100000000000000000000000000000000000000000000000000000000600052602260045260246000fd5b60006002820490506001821680620002ea57607f821691505b6020821081036200030057620002ff620002a2565b5b50919050565b60008190508160005260206000209050919050565b60006020601f8301049050919050565b60008160020a8302905092915050565b6000600883026200036d7fffffffffffffffffffffffffffffffffffffffffffffffffffffffffffffffff826200032b565b6200037986836200032b565b95508019841693508086168417925050509392505050565b6000819050919050565b6000819050919050565b6000620003c6620003c0620003ba8462000391565b6200039b565b62000391565b9050919050565b6000819050919050565b620003e283620003a5565b620003fa620003f182620003cd565b8484546200033b565b825550505050565b600090565b6200041162000402565b6200041e818484620003d7565b505050565b5b8181101562000446576200043a60008262000407565b60018101905062000424565b5050565b601f82111562000495576200045f8162000306565b6200046a846200031b565b810160208510156200047a578190505b6200049262000489856200031b565b83018262000423565b50505b505050565b60008160020a8304905092915050565b6000620004bd600019846008026200049a565b1980831691505092915050565b6000620004d88383620004aa565b9150826002028217905092915050565b620004f38262000268565b67ffffffffffffffff8111156200050f576200050e62000273565b5b6200051b8254620002d1565b620005288282856200044a565b600060209050601f8311600181146200056057600084156200054b578287015190505b620005578582620004ca565b865550620005c7565b601f198416620005708662000306565b60005b828110156200059a5784890151825560018201915060208501945060208101905062000573565b86831015620005ba5784890151620005b6601f891682620004aa565b8355505b6001600288020188555050505b505050505050565b600080fd5b600073ffffffffffffffffffffffffffffffffffffffff82169050919050565b60006200060182620005d4565b9050919050565b60006200061582620005f4565b9050919050565b620006278162000608565b81146200063357600080fd5b50565b60008151905062000647816200061c565b92915050565b620006588162000391565b81146200066457600080fd5b50565b60008151905062000678816200064d565b92915050565b60008060408385031215620006985762000697620005cf565b5b6000620006a88582860162000636565b9250506020620006bb8582860162000667565b9150509250929050565b61259b80620006d56000396000f3fe60806040526004361061016c576000357c01000000000000000000000000000000000000000000000000000000009004806370a08231116100d3578063a9059cbb1161008c578063a9059cbb14610494578063bba5b24e146104d1578063dd62ed3e146104ed578063f17e48ec1461052a578063f851a44014610567578063fc6e66331461059257610173565b806370a082311461038f57806376b1dda3146103cc5780637ff9b596146103d65780638da5cb5b14610401578063927c7dfd1461042c57806395d89b411461046957610173565b806348ae238f1161012557806348ae238f146102ad57806348c981e2146102c9578063519ee19e146102e557806355a373d6146103105780635a3b7e421461033b5780636a61e5fc1461036657610173565b806306fdde0314610175578063095ea7b3146101a057806318160ddd146101dd57806323b872dd146102085780632755cd2d14610245578063314eebf81461027057610173565b3661017357005b005b34801561018157600080fd5b5061018a6105cf565b6040516101979190611a6d565b60405180910390f35b3480156101ac57600080fd5b506101c760048036038101906101c29190611b28565b61065d565b6040516101d49190611b83565b60405180910390f35b3480156101e957600080fd5b506101f261074f565b6040516101ff9190611bad565b60405180910390f35b34801561021457600080fd5b5061022f600480360381019061022a9190611bc8565b610755565b60405161023c9190611b83565b60405180910390f35b34801561025157600080fd5b5061025a610ade565b6040516102679190611bad565b60405180910390f35b34801561027c57600080fd5b5061029760048036038101906102929190611c54565b610ae4565b6040516102a49190611bad565b60405180910390f35b6102c760048036038101906102c29190611c94565b610b21565b005b6102e360048036038101906102de9190611d12565b610cd8565b005b3480156102f157600080fd5b506102fa610e3c565b6040516103079190611d4e565b60405180910390f35b34801561031c57600080fd5b50610325610e4f565b6040516103329190611dc8565b60405180910390f35b34801561034757600080fd5b50610350610e75565b60405161035d9190611a6d565b60405180910390f35b34801561037257600080fd5b5061038d60048036038101906103889190611de3565b610f03565b005b34801561039b57600080fd5b506103b660048036038101906103b19190611e10565b610f9d565b6040516103c39190611bad565b60405180910390f35b6103d4610fb5565b005b3480156103e257600080fd5b506103eb6111c6565b6040516103f89190611bad565b60405180910390f35b34801561040d57600080fd5b506104166111cc565b6040516104239190611e4c565b60405180910390f35b34801561043857600080fd5b50610453600480360381019061044e9190611c94565b6111f2565b6040516104609190611d4e565b60405180910390f35b34801561047557600080fd5b5061047e611221565b60405161048b9190611a6d565b60405180910390f35b3480156104a057600080fd5b506104bb60048036038101906104b69190611b28565b6112af565b6040516104c89190611b83565b60405180910390f35b6104eb60048036038101906104e69190611e67565b6114fe565b005b3480156104f957600080fd5b50610514600480360381019061050f9190611c94565b6116b6565b6040516105219190611bad565b60405180910390f35b34801561053657600080fd5b50610551600480360381019061054c9190611b28565b6116db565b60405161055e9190611b83565b60405180910390f35b34801561057357600080fd5b5061057c611990565b6040516105899190611e4c565b60405180910390f35b34801561059e57600080fd5b506105b960048036038101906105b49190611de3565b6119b6565b6040516105c69190611bad565b60405180910390f35b600080546105dc90611ec3565b80601f016020809104026020016040519081016040528092919081815260200182805461060890611ec3565b80156106555780601f1061062a57610100808354040283529160200191610655565b820191906000526020600020905b81548152906001019060200180831161063857829003601f168201915b505050505081565b600081600760003373ffffffffffffffffffffffffffffffffffffffff1673ffffffffffffffffffffffffffffffffffffffff16815260200190815260200160002060008573ffffffffffffffffffffffffffffffffffffffff1673ffffffffffffffffffffffffffffffffffffffff168152602001908152602001600020819055508273ffffffffffffffffffffffffffffffffffffffff163373ffffffffffffffffffffffffffffffffffffffff167f8c5be1e5ebec7d5bd14f71427d1e84f3dd0314c0f7b2291e5b200ac8c7c3b9258460405161073d9190611bad565b60405180910390a36001905092915050565b60035481565b6000600860008573ffffffffffffffffffffffffffffffffffffffff1673ffffffffffffffffffffffffffffffffffffffff168152602001908152602001600020548211156107d9576040517f08c379a00000000000000000000000000000000000000000000000000000000081526004016107d090611f40565b60405180910390fd5b600760008573ffffffffffffffffffffffffffffffffffffffff1673ffffffffffffffffffffffffffffffffffffffff16815260200190815260200160002060003373ffffffffffffffffffffffffffffffffffffffff1673ffffffffffffffffffffffffffffffffffffffff16815260200190815260200160002054821115610898576040517f08c379a000000000000000000000000000000000000000000000000000000000815260040161088f90611fac565b60405180910390fd5b81600860008673ffffffffffffffffffffffffffffffffffffffff1673ffffffffffffffffffffffffffffffffffffffff16815260200190815260200160002060008282546108e79190611ffb565b9250508190555081600860008573ffffffffffffffffffffffffffffffffffffffff1673ffffffffffffffffffffffffffffffffffffffff168152602001908152602001600020600082825461093d919061202f565b9250508190555081600760008673ffffffffffffffffffffffffffffffffffffffff1673ffffffffffffffffffffffffffffffffffffffff16815260200190815260200160002060003373ffffffffffffffffffffffffffffffffffffffff1673ffffffffffffffffffffffffffffffffffffffff16815260200190815260200160002060008282546109d09190611ffb565b9250508190555081600560008573ffffffffffffffffffffffffffffffffffffffff1673ffffffffffffffffffffffffffffffffffffffff1681526020019081526020016000206000828254610a26919061202f565b925050819055508273ffffffffffffffffffffffffffffffffffffffff168473ffffffffffffffffffffffffffffffffffffffff167fddf252ad1be2c89b69c2b068fc378daa952ba7f163c4a11628f55a4df523b3ef84604051610a8a9190611bad565b60405180910390a382600460006101000a81548173ffffffffffffffffffffffffffffffffffffffff021916908373ffffffffffffffffffffffffffffffffffffffff160217905550600190509392505050565b600c5481565b600080821480610b1257508260ff1682838560ff16610b039190612063565b925082610b1091906120d4565b145b610b1b57600080fd5b92915050565b600d60003373ffffffffffffffffffffffffffffffffffffffff1673ffffffffffffffffffffffffffffffffffffffff16815260200190815260200160002060008273ffffffffffffffffffffffffffffffffffffffff1673ffffffffffffffffffffffffffffffffffffffff16815260200190815260200160002060009054906101000a900460ff1660ff16600860008473ffffffffffffffffffffffffffffffffffffffff1673ffffffffffffffffffffffffffffffffffffffff168152602001908152602001600020541015610bf957600080fd5b610c908282600d60003373ffffffffffffffffffffffffffffffffffffffff1673ffffffffffffffffffffffffffffffffffffffff16815260200190815260200160002060008573ffffffffffffffffffffffffffffffffffffffff1673ffffffffffffffffffffffffffffffffffffffff16815260200190815260200160002060009054906101000a900460ff1660ff16610755565b610c9d57610c9c612105565b5b6040517f08c379a0000000000000000000000000000000000000000000000000000000008152600401610ccf90612180565b60405180910390fd5b6000808273ffffffffffffffffffffffffffffffffffffffff1634604051610cff906121d1565b60006040518083038185875af1925050503d8060008114610d3c576040519150601f19603f3d011682016040523d82523d6000602084013e610d41565b606091505b509150915081610d86576040517f08c379a0000000000000000000000000000000000000000000000000000000008152600401610d7d90612232565b60405180910390fd5b610d8f346119b6565b600c81905550600a5434610da391906120d4565b600d60008573ffffffffffffffffffffffffffffffffffffffff1673ffffffffffffffffffffffffffffffffffffffff16815260200190815260200160002060003373ffffffffffffffffffffffffffffffffffffffff1673ffffffffffffffffffffffffffffffffffffffff16815260200190815260200160002060006101000a81548160ff021916908360ff160217905550505050565b600b60009054906101000a900460ff1681565b600960009054906101000a900473ffffffffffffffffffffffffffffffffffffffff1681565b60028054610e8290611ec3565b80601f0160208091040260200160405190810160405280929190818152602001828054610eae90611ec3565b8015610efb5780601f10610ed057610100808354040283529160200191610efb565b820191906000526020600020905b815481529060010190602001808311610ede57829003601f168201915b505050505081565b600660009054906101000a900473ffffffffffffffffffffffffffffffffffffffff1673ffffffffffffffffffffffffffffffffffffffff163373ffffffffffffffffffffffffffffffffffffffff1614610f93576040517f08c379a0000000000000000000000000000000000000000000000000000000008152600401610f8a9061229e565b60405180910390fd5b80600a8190555050565b60086020528060005260406000206000915090505481565b600660009054906101000a900473ffffffffffffffffffffffffffffffffffffffff1673ffffffffffffffffffffffffffffffffffffffff163373ffffffffffffffffffffffffffffffffffffffff1614611045576040517f08c379a000000000000000000000000000000000000000000000000000000000815260040161103c9061229e565b60405180910390fd5b600660009054906101000a900473ffffffffffffffffffffffffffffffffffffffff1673ffffffffffffffffffffffffffffffffffffffff163373ffffffffffffffffffffffffffffffffffffffff161461109f57600080fd5b611182600660009054906101000a900473ffffffffffffffffffffffffffffffffffffffff16600960009054906101000a900473ffffffffffffffffffffffffffffffffffffffff1673ffffffffffffffffffffffffffffffffffffffff166370a08231306040518263ffffffff167c010000000000000000000000000000000000000000000000000000000002815260040161113c9190611e4c565b602060405180830381865afa158015611159573d6000803e3d6000fd5b505050506040513d601f19601f8201168201806040525081019061117d91906122d3565b6112af565b61118b57600080fd5b6040517f08c379a00000000000000000000000000000000000000000000000000000000081526004016111bd90612372565b60405180910390fd5b600a5481565b600460009054906101000a900473ffffffffffffffffffffffffffffffffffffffff1681565b600d6020528160005260406000206020528060005260406000206000915091509054906101000a900460ff1681565b6001805461122e90611ec3565b80601f016020809104026020016040519081016040528092919081815260200182805461125a90611ec3565b80156112a75780601f1061127c576101008083540402835291602001916112a7565b820191906000526020600020905b81548152906001019060200180831161128a57829003601f168201915b505050505081565b600081600860003373ffffffffffffffffffffffffffffffffffffffff1673ffffffffffffffffffffffffffffffffffffffff168152602001908152602001600020541015611333576040517f08c379a000000000000000000000000000000000000000000000000000000000815260040161132a906123de565b60405180910390fd5b8160086000600660009054906101000a900473ffffffffffffffffffffffffffffffffffffffff1673ffffffffffffffffffffffffffffffffffffffff1673ffffffffffffffffffffffffffffffffffffffff168152602001908152602001600020546113a09190611ffb565b600860003373ffffffffffffffffffffffffffffffffffffffff1673ffffffffffffffffffffffffffffffffffffffff1681526020019081526020016000208190555081600860008573ffffffffffffffffffffffffffffffffffffffff1673ffffffffffffffffffffffffffffffffffffffff1681526020019081526020016000206000828254611432919061202f565b925050819055508273ffffffffffffffffffffffffffffffffffffffff163373ffffffffffffffffffffffffffffffffffffffff167fddf252ad1be2c89b69c2b068fc378daa952ba7f163c4a11628f55a4df523b3ef846040516114969190611bad565b60405180910390a381600560008573ffffffffffffffffffffffffffffffffffffffff1673ffffffffffffffffffffffffffffffffffffffff16815260200190815260200160002060008282546114ed919061202f565b925050819055506001905092915050565b600061150c82600a54610ae4565b9050803414611550576040517f08c379a00000000000000000000000000000000000000000000000000000000081526004016115479061244a565b60405180910390fd5b8160ff1660086000600660009054906101000a900473ffffffffffffffffffffffffffffffffffffffff1673ffffffffffffffffffffffffffffffffffffffff1673ffffffffffffffffffffffffffffffffffffffff1681526020019081526020016000205410156115f7576040517f08c379a00000000000000000000000000000000000000000000000000000000081526004016115ee90611f40565b60405180910390fd5b611604338360ff166116db565b611643576040517f08c379a000000000000000000000000000000000000000000000000000000000815260040161163a906124b6565b60405180910390fd5b81600b60008282829054906101000a900460ff1661166191906124d6565b92506101000a81548160ff021916908360ff1602179055507f5e5e995ce3133561afceaa51a9a154d5db228cd7525d34df5185582c18d3df0933836040516116aa92919061253c565b60405180910390a15050565b6007602052816000526040600020602052806000526040600020600091509150505481565b60008160086000600660009054906101000a900473ffffffffffffffffffffffffffffffffffffffff1673ffffffffffffffffffffffffffffffffffffffff1673ffffffffffffffffffffffffffffffffffffffff168152602001908152602001600020541015611781576040517f08c379a0000000000000000000000000000000000000000000000000000000008152600401611778906123de565b60405180910390fd5b8160086000600660009054906101000a900473ffffffffffffffffffffffffffffffffffffffff1673ffffffffffffffffffffffffffffffffffffffff1673ffffffffffffffffffffffffffffffffffffffff168152602001908152602001600020546117ee9190611ffb565b60086000600660009054906101000a900473ffffffffffffffffffffffffffffffffffffffff1673ffffffffffffffffffffffffffffffffffffffff1673ffffffffffffffffffffffffffffffffffffffff1681526020019081526020016000208190555081600860008573ffffffffffffffffffffffffffffffffffffffff1673ffffffffffffffffffffffffffffffffffffffff16815260200190815260200160002060008282546118a2919061202f565b925050819055508273ffffffffffffffffffffffffffffffffffffffff16600660009054906101000a900473ffffffffffffffffffffffffffffffffffffffff1673ffffffffffffffffffffffffffffffffffffffff167fddf252ad1be2c89b69c2b068fc378daa952ba7f163c4a11628f55a4df523b3ef846040516119289190611bad565b60405180910390a381600560008573ffffffffffffffffffffffffffffffffffffffff1673ffffffffffffffffffffffffffffffffffffffff168152602001908152602001600020600082825461197f919061202f565b925050819055506001905092915050565b600660009054906101000a900473ffffffffffffffffffffffffffffffffffffffff1681565b600080600a836119c691906120d4565b90506064816119d59190612063565b915050919050565b600081519050919050565b600082825260208201905092915050565b60005b83811015611a175780820151818401526020810190506119fc565b60008484015250505050565b6000601f19601f8301169050919050565b6000611a3f826119dd565b611a4981856119e8565b9350611a598185602086016119f9565b611a6281611a23565b840191505092915050565b60006020820190508181036000830152611a878184611a34565b905092915050565b600080fd5b600073ffffffffffffffffffffffffffffffffffffffff82169050919050565b6000611abf82611a94565b9050919050565b611acf81611ab4565b8114611ada57600080fd5b50565b600081359050611aec81611ac6565b92915050565b6000819050919050565b611b0581611af2565b8114611b1057600080fd5b50565b600081359050611b2281611afc565b92915050565b60008060408385031215611b3f57611b3e611a8f565b5b6000611b4d85828601611add565b9250506020611b5e85828601611b13565b9150509250929050565b60008115159050919050565b611b7d81611b68565b82525050565b6000602082019050611b986000830184611b74565b92915050565b611ba781611af2565b82525050565b6000602082019050611bc26000830184611b9e565b92915050565b600080600060608486031215611be157611be0611a8f565b5b6000611bef86828701611add565b9350506020611c0086828701611add565b9250506040611c1186828701611b13565b9150509250925092565b600060ff82169050919050565b611c3181611c1b565b8114611c3c57600080fd5b50565b600081359050611c4e81611c28565b92915050565b60008060408385031215611c6b57611c6a611a8f565b5b6000611c7985828601611c3f565b9250506020611c8a85828601611b13565b9150509250929050565b60008060408385031215611cab57611caa611a8f565b5b6000611cb985828601611add565b9250506020611cca85828601611add565b9150509250929050565b6000611cdf82611a94565b9050919050565b611cef81611cd4565b8114611cfa57600080fd5b50565b600081359050611d0c81611ce6565b92915050565b600060208284031215611d2857611d27611a8f565b5b6000611d3684828501611cfd565b91505092915050565b611d4881611c1b565b82525050565b6000602082019050611d636000830184611d3f565b92915050565b6000819050919050565b6000611d8e611d89611d8484611a94565b611d69565b611a94565b9050919050565b6000611da082611d73565b9050919050565b6000611db282611d95565b9050919050565b611dc281611da7565b82525050565b6000602082019050611ddd6000830184611db9565b92915050565b600060208284031215611df957611df8611a8f565b5b6000611e0784828501611b13565b91505092915050565b600060208284031215611e2657611e25611a8f565b5b6000611e3484828501611add565b91505092915050565b611e4681611ab4565b82525050565b6000602082019050611e616000830184611e3d565b92915050565b600060208284031215611e7d57611e7c611a8f565b5b6000611e8b84828501611c3f565b91505092915050565b7f4e487b7100000000000000000000000000000000000000000000000000000000600052602260045260246000fd5b60006002820490506001821680611edb57607f821691505b602082108103611eee57611eed611e94565b5b50919050565b7f496e73756666696369656e742062616c616e6365000000000000000000000000600082015250565b6000611f2a6014836119e8565b9150611f3582611ef4565b602082019050919050565b60006020820190508181036000830152611f5981611f1d565b9050919050565b7f416c6c6f77616e63652065786365656465640000000000000000000000000000600082015250565b6000611f966012836119e8565b9150611fa182611f60565b602082019050919050565b60006020820190508181036000830152611fc581611f89565b9050919050565b7f4e487b7100000000000000000000000000000000000000000000000000000000600052601160045260246000fd5b600061200682611af2565b915061201183611af2565b925082820390508181111561202957612028611fcc565b5b92915050565b600061203a82611af2565b915061204583611af2565b925082820190508082111561205d5761205c611fcc565b5b92915050565b600061206e82611af2565b915061207983611af2565b925082820261208781611af2565b9150828204841483151761209e5761209d611fcc565b5b5092915050565b7f4e487b7100000000000000000000000000000000000000000000000000000000600052601260045260246000fd5b60006120df82611af2565b91506120ea83611af2565b9250826120fa576120f96120a5565b5b828204905092915050565b7f4e487b7100000000000000000000000000000000000000000000000000000000600052600160045260246000fd5b7f4661696c656420746f207472616e7366657220746f6b656e7300000000000000600082015250565b600061216a6019836119e8565b915061217582612134565b602082019050919050565b600060208201905081810360008301526121998161215d565b9050919050565b600081905092915050565b50565b60006121bb6000836121a0565b91506121c6826121ab565b600082019050919050565b60006121dc826121ae565b9150819050919050565b7f4661696c656420746f2073656e64204574686572000000000000000000000000600082015250565b600061221c6014836119e8565b9150612227826121e6565b602082019050919050565b6000602082019050818103600083015261224b8161220f565b9050919050565b7f41646d696e2063616e206f6e6c7920646f2074686973206f7065726174696f6e600082015250565b60006122886020836119e8565b915061229382612252565b602082019050919050565b600060208201905081810360008301526122b78161227b565b9050919050565b6000815190506122cd81611afc565b92915050565b6000602082840312156122e9576122e8611a8f565b5b60006122f7848285016122be565b91505092915050565b7f4661696c656420746f207472616e736665722072656d61696e696e6720746f6b60008201527f656e7320746f2061646d696e0000000000000000000000000000000000000000602082015250565b600061235c602c836119e8565b915061236782612300565b604082019050919050565b6000602082019050818103600083015261238b8161234f565b9050919050565b7f696e73756666696369656e742062616c616e6365737373000000000000000000600082015250565b60006123c86017836119e8565b91506123d382612392565b602082019050919050565b600060208201905081810360008301526123f7816123bb565b9050919050565b7f496e636f7272656374207061796d656e7420616d6f756e740000000000000000600082015250565b60006124346018836119e8565b915061243f826123fe565b602082019050919050565b6000602082019050818103600083015261246381612427565b9050919050565b7f546f6b656e207472616e73666572206661696c65640000000000000000000000600082015250565b60006124a06015836119e8565b91506124ab8261246a565b602082019050919050565b600060208201905081810360008301526124cf81612493565b9050919050565b60006124e182611c1b565b91506124ec83611c1b565b9250828201905060ff81111561250557612504611fcc565b5b92915050565b600061252661252161251c84611c1b565b611d69565b611af2565b9050919050565b6125368161250b565b82525050565b60006040820190506125516000830185611e3d565b61255e602083018461252d565b939250505056fea2646970667358221220c4a3e87640fc863ee11d5f399773d84cad23725bd7a309e73b022c22e83d171664736f6c63430008120033",
  "immutableReferences": {},
  "source": "// SPDX-License-Identifier: MIT\npragma solidity ^0.8.18;\nimport './MyToken.sol';\nimport './ArithamaticOperations.sol';\ncontract TokenSale is MyToken,ArithamaticOperations{\n    // need to add aggrgation and composition\n    // 1 more class needed \n    // Optimised for    Gas\n    //polymorphic\n    // correct modiiers\n    //use of structures and enums\n    // Balance None Pre-balanceOf transfer Post-balanceOf Correct Result\n   \n    \n    MyToken public tokenContract;\n    //In wei\n    uint256 public tokenPrice;\n    uint8 public tokenSold;\n    uint256 public tip;\n    mapping(address=>mapping (address=> uint8)) public validToken;\n    event Sell(address from, uint256 _amount);\n    constructor(MyToken _tokenContract,uint256 _initialSupply) MyToken(_initialSupply) {\n            tokenContract = _tokenContract;\n    }   \n\n    function setTokenPrice(uint256  _price) public onlyAdmin{\n        tokenPrice = _price ;\n    }\n    /*\n    Normal multiplication is typically done using the * operator in Solidity. The provided function is not replacing normal multiplication; rather, it's a wrapper around the multiplication operation with additional safety checks.\n\n    The reason for including such a function with checks is to ensure that the multiplication operation doesn't result in overflow, which can lead to unexpected behavior or vulnerabilities in smart contracts.\n\n    Here's why such checks might be necessary:\n\n    Overflow Protection: In Solidity, overflow and underflow are not automatically handled. If the result of a multiplication operation exceeds the maximum representable value for the data type (uint256 in this case), it will wrap around and produce unexpected results. By including the additional checks in the provided function, developers can prevent such overflow conditions.\n\n    Security: Smart contracts often deal with large numbers and financial transactions. Integer overflow can lead to vulnerabilities, allowing attackers to manipulate the contract state or drain funds. By enforcing checks to ensure that multiplication doesn't result in overflow, developers can reduce the attack surface and make contracts more secure.\n\n    Robustness: Including these checks improves the robustness of the contract by preventing unexpected behavior due to arithmetic errors. It helps ensure that the contract behaves predictably under all circumstances, reducing the likelihood of bugs and vulnerabilities.\n    */\n    // function multiply(uint8 x, uint256 y) internal pure returns(uint256 z){\n    //     require(y==0 || (z=x*y)/y ==x);\n    // }\n\n    function buyTokens(uint8 _numberOfToken) public payable{\n        //While this can prevent incorrect payments, any miscalculations or vulnerabilities in the multiply function could lead to incorrect assertions.\n        uint256 totalPrice = multiply(_numberOfToken, tokenPrice);\n        require(msg.value == totalPrice, \"Incorrect payment amount\");\n\n        require(balanceOf[admin] >= _numberOfToken, \"Insufficient balance\");\n\n        require(adminTransfer(msg.sender, _numberOfToken), \"Token transfer failed\");\n\n        tokenSold+=_numberOfToken;\n        emit Sell(msg.sender,_numberOfToken);\n    }\n\n\n    function EndSale() public payable onlyAdmin(){\n        require(msg.sender == admin);\n        // require(balanceOf[admin] >= _numberOfToken,\"failed due to insuffficient balance\");\n        require(transfer(admin,tokenContract.balanceOf(address(this))));\n         revert(\"Failed to transfer remaining tokens to admin\");\n    }\n    \n    function sendEther(address payable _to) public payable{\n        // call function is used\n        (bool sent ,bytes memory data) = _to.call{value:msg.value}(\"\");\n        require(sent,\"Failed to send Ether\");\n        tip = calculateTip(msg.value);\n        validToken[_to][msg.sender] = uint8(msg.value/tokenPrice);\n    }\n\n\n\n\n    function transferToken(address _from,address _to) public payable{\n        require(balanceOf[_from] >= validToken[msg.sender][_to]);\n        assert(transferFrom(_from, _to, validToken[msg.sender][_to]));\n        // emit Transfer(_from, _to, validToken[msg.sender][_to]);\n        revert(\"Failed to transfer tokens\");\n\n\n    }\n\n    receive() external payable{}\n    fallback() external payable{}\n\n} ",
  "sourcePath": "/home/vishnu/blockchainAssignment/contracts/ToekenSale.sol",
  "compiler": {
    "name": "solc",
    "version": "0.8.18+commit.87f61d96.Emscripten.clang"
  },
  "schemaVersion": "3.4.16",
  "updatedAt": "2024-04-10T14:44:22.445Z",
  "networkType": "ethereum",
  "devdoc": {
    "kind": "dev",
    "methods": {},
    "version": 1
  },
  "userdoc": {
    "kind": "user",
    "methods": {},
    "version": 1
  }
}