{
  "contractName": "TokenSale",
  "abi": [
    {
      "inputs": [
        {
          "internalType": "contract MyToken",
          "name": "_tokenContract",
          "type": "address"
        },
        {
          "internalType": "uint256",
          "name": "_initialSupply",
          "type": "uint256"
        }
      ],
      "stateMutability": "nonpayable",
      "type": "constructor"
    },
    {
      "anonymous": false,
      "inputs": [
        {
          "indexed": true,
          "internalType": "address",
          "name": "owner",
          "type": "address"
        },
        {
          "indexed": true,
          "internalType": "address",
          "name": "spender",
          "type": "address"
        },
        {
          "indexed": false,
          "internalType": "uint256",
          "name": "value",
          "type": "uint256"
        }
      ],
      "name": "Approval",
      "type": "event"
    },
    {
      "anonymous": false,
      "inputs": [
        {
          "indexed": false,
          "internalType": "address",
          "name": "from",
          "type": "address"
        },
        {
          "indexed": false,
          "internalType": "uint256",
          "name": "_amount",
          "type": "uint256"
        }
      ],
      "name": "Sell",
      "type": "event"
    },
    {
      "anonymous": false,
      "inputs": [
        {
          "indexed": true,
          "internalType": "address",
          "name": "from",
          "type": "address"
        },
        {
          "indexed": true,
          "internalType": "address",
          "name": "to",
          "type": "address"
        },
        {
          "indexed": false,
          "internalType": "uint256",
          "name": "value",
          "type": "uint256"
        }
      ],
      "name": "Transfer",
      "type": "event"
    },
    {
      "stateMutability": "payable",
      "type": "fallback",
      "payable": true
    },
    {
      "inputs": [],
      "name": "admin",
      "outputs": [
        {
          "internalType": "address",
          "name": "",
          "type": "address"
        }
      ],
      "stateMutability": "view",
      "type": "function",
      "constant": true
    },
    {
      "inputs": [
        {
          "internalType": "address",
          "name": "_to",
          "type": "address"
        },
        {
          "internalType": "uint256",
          "name": "_value",
          "type": "uint256"
        }
      ],
      "name": "adminTransfer",
      "outputs": [
        {
          "internalType": "bool",
          "name": "success",
          "type": "bool"
        }
      ],
      "stateMutability": "nonpayable",
      "type": "function"
    },
    {
      "inputs": [
        {
          "internalType": "address",
          "name": "",
          "type": "address"
        },
        {
          "internalType": "address",
          "name": "",
          "type": "address"
        }
      ],
      "name": "allowance",
      "outputs": [
        {
          "internalType": "uint256",
          "name": "",
          "type": "uint256"
        }
      ],
      "stateMutability": "view",
      "type": "function",
      "constant": true
    },
    {
      "inputs": [
        {
          "internalType": "address",
          "name": "_spender",
          "type": "address"
        },
        {
          "internalType": "uint256",
          "name": "_value",
          "type": "uint256"
        }
      ],
      "name": "approve",
      "outputs": [
        {
          "internalType": "bool",
          "name": "success",
          "type": "bool"
        }
      ],
      "stateMutability": "nonpayable",
      "type": "function"
    },
    {
      "inputs": [
        {
          "internalType": "address",
          "name": "",
          "type": "address"
        }
      ],
      "name": "balanceOf",
      "outputs": [
        {
          "internalType": "uint256",
          "name": "",
          "type": "uint256"
        }
      ],
      "stateMutability": "view",
      "type": "function",
      "constant": true
    },
    {
      "inputs": [],
      "name": "name",
      "outputs": [
        {
          "internalType": "string",
          "name": "",
          "type": "string"
        }
      ],
      "stateMutability": "view",
      "type": "function",
      "constant": true
    },
    {
      "inputs": [],
      "name": "owner",
      "outputs": [
        {
          "internalType": "address",
          "name": "",
          "type": "address"
        }
      ],
      "stateMutability": "view",
      "type": "function",
      "constant": true
    },
    {
      "inputs": [],
      "name": "standard",
      "outputs": [
        {
          "internalType": "string",
          "name": "",
          "type": "string"
        }
      ],
      "stateMutability": "view",
      "type": "function",
      "constant": true
    },
    {
      "inputs": [],
      "name": "symbol",
      "outputs": [
        {
          "internalType": "string",
          "name": "",
          "type": "string"
        }
      ],
      "stateMutability": "view",
      "type": "function",
      "constant": true
    },
    {
      "inputs": [],
      "name": "tokenContract",
      "outputs": [
        {
          "internalType": "contract MyToken",
          "name": "",
          "type": "address"
        }
      ],
      "stateMutability": "view",
      "type": "function",
      "constant": true
    },
    {
      "inputs": [],
      "name": "tokenPrice",
      "outputs": [
        {
          "internalType": "uint256",
          "name": "",
          "type": "uint256"
        }
      ],
      "stateMutability": "view",
      "type": "function",
      "constant": true
    },
    {
      "inputs": [],
      "name": "tokenSold",
      "outputs": [
        {
          "internalType": "uint256",
          "name": "",
          "type": "uint256"
        }
      ],
      "stateMutability": "view",
      "type": "function",
      "constant": true
    },
    {
      "inputs": [],
      "name": "totalSupply",
      "outputs": [
        {
          "internalType": "uint256",
          "name": "",
          "type": "uint256"
        }
      ],
      "stateMutability": "view",
      "type": "function",
      "constant": true
    },
    {
      "inputs": [
        {
          "internalType": "address",
          "name": "_to",
          "type": "address"
        },
        {
          "internalType": "uint256",
          "name": "_value",
          "type": "uint256"
        }
      ],
      "name": "transfer",
      "outputs": [
        {
          "internalType": "bool",
          "name": "success",
          "type": "bool"
        }
      ],
      "stateMutability": "nonpayable",
      "type": "function"
    },
    {
      "inputs": [
        {
          "internalType": "address",
          "name": "_from",
          "type": "address"
        },
        {
          "internalType": "address",
          "name": "_to",
          "type": "address"
        },
        {
          "internalType": "uint256",
          "name": "_value",
          "type": "uint256"
        }
      ],
      "name": "transferFrom",
      "outputs": [
        {
          "internalType": "bool",
          "name": "success",
          "type": "bool"
        }
      ],
      "stateMutability": "nonpayable",
      "type": "function"
    },
    {
      "stateMutability": "payable",
      "type": "receive",
      "payable": true
    },
    {
      "inputs": [
        {
          "internalType": "uint256",
          "name": "_price",
          "type": "uint256"
        }
      ],
      "name": "setTokenPrice",
      "outputs": [],
      "stateMutability": "nonpayable",
      "type": "function"
    },
    {
      "inputs": [
        {
          "internalType": "uint256",
          "name": "_numberOfToken",
          "type": "uint256"
        }
      ],
      "name": "buyTokens",
      "outputs": [],
      "stateMutability": "payable",
      "type": "function",
      "payable": true
    },
    {
      "inputs": [],
      "name": "EndSale",
      "outputs": [],
      "stateMutability": "payable",
      "type": "function",
      "payable": true
    },
    {
      "inputs": [
        {
          "internalType": "address payable",
          "name": "_to",
          "type": "address"
        }
      ],
      "name": "sendEather",
      "outputs": [],
      "stateMutability": "payable",
      "type": "function",
      "payable": true
    },
    {
      "inputs": [
        {
          "internalType": "address",
          "name": "_from",
          "type": "address"
        },
        {
          "internalType": "address",
          "name": "_to",
          "type": "address"
        },
        {
          "internalType": "uint256",
          "name": "_tokens",
          "type": "uint256"
        }
      ],
      "name": "transferToken",
      "outputs": [],
      "stateMutability": "payable",
      "type": "function",
      "payable": true
    }
  ],
  "bytecode": "0x60806040526040518060400160405280600881526020017f4d7920546f6b656e000000000000000000000000000000000000000000000000815250600090816200004a9190620004e8565b506040518060400160405280600381526020017f564953000000000000000000000000000000000000000000000000000000000081525060019081620000919190620004e8565b506040518060400160405280601381526020017f4d79546f6b656e2076657273696f6e20302e310000000000000000000000000081525060029081620000d89190620004e8565b50348015620000e657600080fd5b50604051620024e9380380620024e983398181016040528101906200010c91906200067e565b8033600660006101000a81548173ffffffffffffffffffffffffffffffffffffffff021916908373ffffffffffffffffffffffffffffffffffffffff1602179055508060086000600660009054906101000a900473ffffffffffffffffffffffffffffffffffffffff1673ffffffffffffffffffffffffffffffffffffffff1673ffffffffffffffffffffffffffffffffffffffff1681526020019081526020016000208190555080600381905550600660009054906101000a900473ffffffffffffffffffffffffffffffffffffffff16600460006101000a81548173ffffffffffffffffffffffffffffffffffffffff021916908373ffffffffffffffffffffffffffffffffffffffff1602179055505081600960006101000a81548173ffffffffffffffffffffffffffffffffffffffff021916908373ffffffffffffffffffffffffffffffffffffffff1602179055505050620006c5565b600081519050919050565b7f4e487b7100000000000000000000000000000000000000000000000000000000600052604160045260246000fd5b7f4e487b7100000000000000000000000000000000000000000000000000000000600052602260045260246000fd5b60006002820490506001821680620002ea57607f821691505b6020821081036200030057620002ff620002a2565b5b50919050565b60008190508160005260206000209050919050565b60006020601f8301049050919050565b60008160020a8302905092915050565b6000600883026200036d7fffffffffffffffffffffffffffffffffffffffffffffffffffffffffffffffff826200032b565b6200037986836200032b565b95508019841693508086168417925050509392505050565b6000819050919050565b6000819050919050565b6000620003c6620003c0620003ba8462000391565b6200039b565b62000391565b9050919050565b6000819050919050565b620003e283620003a5565b620003fa620003f182620003cd565b8484546200033b565b825550505050565b600090565b6200041162000402565b6200041e818484620003d7565b505050565b5b8181101562000446576200043a60008262000407565b60018101905062000424565b5050565b601f82111562000495576200045f8162000306565b6200046a846200031b565b810160208510156200047a578190505b6200049262000489856200031b565b83018262000423565b50505b505050565b60008160020a8304905092915050565b6000620004bd600019846008026200049a565b1980831691505092915050565b6000620004d88383620004aa565b9150826002028217905092915050565b620004f38262000268565b67ffffffffffffffff8111156200050f576200050e62000273565b5b6200051b8254620002d1565b620005288282856200044a565b600060209050601f8311600181146200056057600084156200054b578287015190505b620005578582620004ca565b865550620005c7565b601f198416620005708662000306565b60005b828110156200059a5784890151825560018201915060208501945060208101905062000573565b86831015620005ba5784890151620005b6601f891682620004aa565b8355505b6001600288020188555050505b505050505050565b600080fd5b600073ffffffffffffffffffffffffffffffffffffffff82169050919050565b60006200060182620005d4565b9050919050565b60006200061582620005f4565b9050919050565b620006278162000608565b81146200063357600080fd5b50565b60008151905062000647816200061c565b92915050565b620006588162000391565b81146200066457600080fd5b50565b60008151905062000678816200064d565b92915050565b60008060408385031215620006985762000697620005cf565b5b6000620006a88582860162000636565b9250506020620006bb8582860162000667565b9150509250929050565b611e1480620006d56000396000f3fe608060405260043610610140576000357c01000000000000000000000000000000000000000000000000000000009004806376b1dda3116100bd578063c28a566211610081578063c28a5662146103e4578063dd62ed3e14610400578063f17e48ec1461043d578063f5537ede1461047a578063f851a4401461049657610147565b806376b1dda31461031c5780637ff9b596146103265780638da5cb5b1461035157806395d89b411461037c578063a9059cbb146103a757610147565b8063519ee19e11610104578063519ee19e1461023557806355a373d6146102605780635a3b7e421461028b5780636a61e5fc146102b657806370a08231146102df57610147565b806306fdde0314610149578063095ea7b31461017457806318160ddd146101b157806323b872dd146101dc5780633610724e1461021957610147565b3661014757005b005b34801561015557600080fd5b5061015e6104c1565b60405161016b919061158f565b60405180910390f35b34801561018057600080fd5b5061019b6004803603810190610196919061164a565b61054f565b6040516101a891906116a5565b60405180910390f35b3480156101bd57600080fd5b506101c6610641565b6040516101d391906116cf565b60405180910390f35b3480156101e857600080fd5b5061020360048036038101906101fe91906116ea565b610647565b60405161021091906116a5565b60405180910390f35b610233600480360381019061022e919061173d565b6109d0565b005b34801561024157600080fd5b5061024a610af3565b60405161025791906116cf565b60405180910390f35b34801561026c57600080fd5b50610275610af9565b60405161028291906117c9565b60405180910390f35b34801561029757600080fd5b506102a0610b1f565b6040516102ad919061158f565b60405180910390f35b3480156102c257600080fd5b506102dd60048036038101906102d8919061173d565b610bad565b005b3480156102eb57600080fd5b50610306600480360381019061030191906117e4565b610c47565b60405161031391906116cf565b60405180910390f35b610324610c5f565b005b34801561033257600080fd5b5061033b610da7565b60405161034891906116cf565b60405180910390f35b34801561035d57600080fd5b50610366610dad565b6040516103739190611820565b60405180910390f35b34801561038857600080fd5b50610391610dd3565b60405161039e919061158f565b60405180910390f35b3480156103b357600080fd5b506103ce60048036038101906103c9919061164a565b610e61565b6040516103db91906116a5565b60405180910390f35b6103fe60048036038101906103f99190611879565b6110b0565b005b34801561040c57600080fd5b50610427600480360381019061042291906118a6565b611163565b60405161043491906116cf565b60405180910390f35b34801561044957600080fd5b50610464600480360381019061045f919061164a565b611188565b60405161047191906116a5565b60405180910390f35b610494600480360381019061048f91906116ea565b61143d565b005b3480156104a257600080fd5b506104ab6114a2565b6040516104b89190611820565b60405180910390f35b600080546104ce90611915565b80601f01602080910402602001604051908101604052809291908181526020018280546104fa90611915565b80156105475780601f1061051c57610100808354040283529160200191610547565b820191906000526020600020905b81548152906001019060200180831161052a57829003601f168201915b505050505081565b600081600760003373ffffffffffffffffffffffffffffffffffffffff1673ffffffffffffffffffffffffffffffffffffffff16815260200190815260200160002060008573ffffffffffffffffffffffffffffffffffffffff1673ffffffffffffffffffffffffffffffffffffffff168152602001908152602001600020819055508273ffffffffffffffffffffffffffffffffffffffff163373ffffffffffffffffffffffffffffffffffffffff167f8c5be1e5ebec7d5bd14f71427d1e84f3dd0314c0f7b2291e5b200ac8c7c3b9258460405161062f91906116cf565b60405180910390a36001905092915050565b60035481565b6000600860008573ffffffffffffffffffffffffffffffffffffffff1673ffffffffffffffffffffffffffffffffffffffff168152602001908152602001600020548211156106cb576040517f08c379a00000000000000000000000000000000000000000000000000000000081526004016106c290611992565b60405180910390fd5b600760008573ffffffffffffffffffffffffffffffffffffffff1673ffffffffffffffffffffffffffffffffffffffff16815260200190815260200160002060003373ffffffffffffffffffffffffffffffffffffffff1673ffffffffffffffffffffffffffffffffffffffff1681526020019081526020016000205482111561078a576040517f08c379a0000000000000000000000000000000000000000000000000000000008152600401610781906119fe565b60405180910390fd5b81600860008673ffffffffffffffffffffffffffffffffffffffff1673ffffffffffffffffffffffffffffffffffffffff16815260200190815260200160002060008282546107d99190611a4d565b9250508190555081600860008573ffffffffffffffffffffffffffffffffffffffff1673ffffffffffffffffffffffffffffffffffffffff168152602001908152602001600020600082825461082f9190611a81565b9250508190555081600760008673ffffffffffffffffffffffffffffffffffffffff1673ffffffffffffffffffffffffffffffffffffffff16815260200190815260200160002060003373ffffffffffffffffffffffffffffffffffffffff1673ffffffffffffffffffffffffffffffffffffffff16815260200190815260200160002060008282546108c29190611a4d565b9250508190555081600560008573ffffffffffffffffffffffffffffffffffffffff1673ffffffffffffffffffffffffffffffffffffffff16815260200190815260200160002060008282546109189190611a81565b925050819055508273ffffffffffffffffffffffffffffffffffffffff168473ffffffffffffffffffffffffffffffffffffffff167fddf252ad1be2c89b69c2b068fc378daa952ba7f163c4a11628f55a4df523b3ef8460405161097c91906116cf565b60405180910390a382600460006101000a81548173ffffffffffffffffffffffffffffffffffffffff021916908373ffffffffffffffffffffffffffffffffffffffff160217905550600190509392505050565b6109dc81600a546114c8565b34146109e757600080fd5b8060086000600660009054906101000a900473ffffffffffffffffffffffffffffffffffffffff1673ffffffffffffffffffffffffffffffffffffffff1673ffffffffffffffffffffffffffffffffffffffff168152602001908152602001600020541015610a8b576040517f08c379a0000000000000000000000000000000000000000000000000000000008152600401610a8290611b27565b60405180910390fd5b610a953382611188565b610a9e57600080fd5b80600b6000828254610ab09190611a81565b925050819055507f5e5e995ce3133561afceaa51a9a154d5db228cd7525d34df5185582c18d3df093382604051610ae8929190611b47565b60405180910390a150565b600b5481565b600960009054906101000a900473ffffffffffffffffffffffffffffffffffffffff1681565b60028054610b2c90611915565b80601f0160208091040260200160405190810160405280929190818152602001828054610b5890611915565b8015610ba55780601f10610b7a57610100808354040283529160200191610ba5565b820191906000526020600020905b815481529060010190602001808311610b8857829003601f168201915b505050505081565b600660009054906101000a900473ffffffffffffffffffffffffffffffffffffffff1673ffffffffffffffffffffffffffffffffffffffff163373ffffffffffffffffffffffffffffffffffffffff1614610c3d576040517f08c379a0000000000000000000000000000000000000000000000000000000008152600401610c3490611bbc565b60405180910390fd5b80600a8190555050565b60086020528060005260406000206000915090505481565b600660009054906101000a900473ffffffffffffffffffffffffffffffffffffffff1673ffffffffffffffffffffffffffffffffffffffff163373ffffffffffffffffffffffffffffffffffffffff1614610cb957600080fd5b610d9c600660009054906101000a900473ffffffffffffffffffffffffffffffffffffffff16600960009054906101000a900473ffffffffffffffffffffffffffffffffffffffff1673ffffffffffffffffffffffffffffffffffffffff166370a08231306040518263ffffffff167c0100000000000000000000000000000000000000000000000000000000028152600401610d569190611820565b602060405180830381865afa158015610d73573d6000803e3d6000fd5b505050506040513d601f19601f82011682018060405250810190610d979190611bf1565b610e61565b610da557600080fd5b565b600a5481565b600460009054906101000a900473ffffffffffffffffffffffffffffffffffffffff1681565b60018054610de090611915565b80601f0160208091040260200160405190810160405280929190818152602001828054610e0c90611915565b8015610e595780601f10610e2e57610100808354040283529160200191610e59565b820191906000526020600020905b815481529060010190602001808311610e3c57829003601f168201915b505050505081565b600081600860003373ffffffffffffffffffffffffffffffffffffffff1673ffffffffffffffffffffffffffffffffffffffff168152602001908152602001600020541015610ee5576040517f08c379a0000000000000000000000000000000000000000000000000000000008152600401610edc90611c6a565b60405180910390fd5b8160086000600660009054906101000a900473ffffffffffffffffffffffffffffffffffffffff1673ffffffffffffffffffffffffffffffffffffffff1673ffffffffffffffffffffffffffffffffffffffff16815260200190815260200160002054610f529190611a4d565b600860003373ffffffffffffffffffffffffffffffffffffffff1673ffffffffffffffffffffffffffffffffffffffff1681526020019081526020016000208190555081600860008573ffffffffffffffffffffffffffffffffffffffff1673ffffffffffffffffffffffffffffffffffffffff1681526020019081526020016000206000828254610fe49190611a81565b925050819055508273ffffffffffffffffffffffffffffffffffffffff163373ffffffffffffffffffffffffffffffffffffffff167fddf252ad1be2c89b69c2b068fc378daa952ba7f163c4a11628f55a4df523b3ef8460405161104891906116cf565b60405180910390a381600560008573ffffffffffffffffffffffffffffffffffffffff1673ffffffffffffffffffffffffffffffffffffffff168152602001908152602001600020600082825461109f9190611a81565b925050819055506001905092915050565b6000808273ffffffffffffffffffffffffffffffffffffffff16346040516110d790611cbb565b60006040518083038185875af1925050503d8060008114611114576040519150601f19603f3d011682016040523d82523d6000602084013e611119565b606091505b50915091508161115e576040517f08c379a000000000000000000000000000000000000000000000000000000000815260040161115590611d1c565b60405180910390fd5b505050565b6007602052816000526040600020602052806000526040600020600091509150505481565b60008160086000600660009054906101000a900473ffffffffffffffffffffffffffffffffffffffff1673ffffffffffffffffffffffffffffffffffffffff1673ffffffffffffffffffffffffffffffffffffffff16815260200190815260200160002054101561122e576040517f08c379a000000000000000000000000000000000000000000000000000000000815260040161122590611c6a565b60405180910390fd5b8160086000600660009054906101000a900473ffffffffffffffffffffffffffffffffffffffff1673ffffffffffffffffffffffffffffffffffffffff1673ffffffffffffffffffffffffffffffffffffffff1681526020019081526020016000205461129b9190611a4d565b60086000600660009054906101000a900473ffffffffffffffffffffffffffffffffffffffff1673ffffffffffffffffffffffffffffffffffffffff1673ffffffffffffffffffffffffffffffffffffffff1681526020019081526020016000208190555081600860008573ffffffffffffffffffffffffffffffffffffffff1673ffffffffffffffffffffffffffffffffffffffff168152602001908152602001600020600082825461134f9190611a81565b925050819055508273ffffffffffffffffffffffffffffffffffffffff16600660009054906101000a900473ffffffffffffffffffffffffffffffffffffffff1673ffffffffffffffffffffffffffffffffffffffff167fddf252ad1be2c89b69c2b068fc378daa952ba7f163c4a11628f55a4df523b3ef846040516113d591906116cf565b60405180910390a381600560008573ffffffffffffffffffffffffffffffffffffffff1673ffffffffffffffffffffffffffffffffffffffff168152602001908152602001600020600082825461142c9190611a81565b925050819055506001905092915050565b80600860008573ffffffffffffffffffffffffffffffffffffffff1673ffffffffffffffffffffffffffffffffffffffff16815260200190815260200160002054101561148957600080fd5b611494838383610647565b61149d57600080fd5b505050565b600660009054906101000a900473ffffffffffffffffffffffffffffffffffffffff1681565b6000808214806114f05750828283856114e19190611d3c565b9250826114ee9190611dad565b145b6114f957600080fd5b92915050565b600081519050919050565b600082825260208201905092915050565b60005b8381101561153957808201518184015260208101905061151e565b60008484015250505050565b6000601f19601f8301169050919050565b6000611561826114ff565b61156b818561150a565b935061157b81856020860161151b565b61158481611545565b840191505092915050565b600060208201905081810360008301526115a98184611556565b905092915050565b600080fd5b600073ffffffffffffffffffffffffffffffffffffffff82169050919050565b60006115e1826115b6565b9050919050565b6115f1816115d6565b81146115fc57600080fd5b50565b60008135905061160e816115e8565b92915050565b6000819050919050565b61162781611614565b811461163257600080fd5b50565b6000813590506116448161161e565b92915050565b60008060408385031215611661576116606115b1565b5b600061166f858286016115ff565b925050602061168085828601611635565b9150509250929050565b60008115159050919050565b61169f8161168a565b82525050565b60006020820190506116ba6000830184611696565b92915050565b6116c981611614565b82525050565b60006020820190506116e460008301846116c0565b92915050565b600080600060608486031215611703576117026115b1565b5b6000611711868287016115ff565b9350506020611722868287016115ff565b925050604061173386828701611635565b9150509250925092565b600060208284031215611753576117526115b1565b5b600061176184828501611635565b91505092915050565b6000819050919050565b600061178f61178a611785846115b6565b61176a565b6115b6565b9050919050565b60006117a182611774565b9050919050565b60006117b382611796565b9050919050565b6117c3816117a8565b82525050565b60006020820190506117de60008301846117ba565b92915050565b6000602082840312156117fa576117f96115b1565b5b6000611808848285016115ff565b91505092915050565b61181a816115d6565b82525050565b60006020820190506118356000830184611811565b92915050565b6000611846826115b6565b9050919050565b6118568161183b565b811461186157600080fd5b50565b6000813590506118738161184d565b92915050565b60006020828403121561188f5761188e6115b1565b5b600061189d84828501611864565b91505092915050565b600080604083850312156118bd576118bc6115b1565b5b60006118cb858286016115ff565b92505060206118dc858286016115ff565b9150509250929050565b7f4e487b7100000000000000000000000000000000000000000000000000000000600052602260045260246000fd5b6000600282049050600182168061192d57607f821691505b6020821081036119405761193f6118e6565b5b50919050565b7f496e73756666696369656e742062616c616e6365000000000000000000000000600082015250565b600061197c60148361150a565b915061198782611946565b602082019050919050565b600060208201905081810360008301526119ab8161196f565b9050919050565b7f416c6c6f77616e63652065786365656465640000000000000000000000000000600082015250565b60006119e860128361150a565b91506119f3826119b2565b602082019050919050565b60006020820190508181036000830152611a17816119db565b9050919050565b7f4e487b7100000000000000000000000000000000000000000000000000000000600052601160045260246000fd5b6000611a5882611614565b9150611a6383611614565b9250828203905081811115611a7b57611a7a611a1e565b5b92915050565b6000611a8c82611614565b9150611a9783611614565b9250828201905080821115611aaf57611aae611a1e565b5b92915050565b7f6661696c65642064756520746f20696e7375666666696369656e742062616c6160008201527f6e63650000000000000000000000000000000000000000000000000000000000602082015250565b6000611b1160238361150a565b9150611b1c82611ab5565b604082019050919050565b60006020820190508181036000830152611b4081611b04565b9050919050565b6000604082019050611b5c6000830185611811565b611b6960208301846116c0565b9392505050565b7f41646d696e2063616e206f6e6c7920646f2074686973206f7065726174696f6e600082015250565b6000611ba660208361150a565b9150611bb182611b70565b602082019050919050565b60006020820190508181036000830152611bd581611b99565b9050919050565b600081519050611beb8161161e565b92915050565b600060208284031215611c0757611c066115b1565b5b6000611c1584828501611bdc565b91505092915050565b7f696e73756666696369656e742062616c616e6365737373000000000000000000600082015250565b6000611c5460178361150a565b9150611c5f82611c1e565b602082019050919050565b60006020820190508181036000830152611c8381611c47565b9050919050565b600081905092915050565b50565b6000611ca5600083611c8a565b9150611cb082611c95565b600082019050919050565b6000611cc682611c98565b9150819050919050565b7f4661696c656420746f2073656e64204561746865720000000000000000000000600082015250565b6000611d0660158361150a565b9150611d1182611cd0565b602082019050919050565b60006020820190508181036000830152611d3581611cf9565b9050919050565b6000611d4782611614565b9150611d5283611614565b9250828202611d6081611614565b91508282048414831517611d7757611d76611a1e565b5b5092915050565b7f4e487b7100000000000000000000000000000000000000000000000000000000600052601260045260246000fd5b6000611db882611614565b9150611dc383611614565b925082611dd357611dd2611d7e565b5b82820490509291505056fea2646970667358221220452ea5c9172e4dc3ece56dfaf67c266c64d3dd4e1248cda340347edc3a70267964736f6c63430008120033",
  "immutableReferences": {},
  "source": "// SPDX-License-Identifier: MIT\npragma solidity ^0.8.18;\nimport './MyToken.sol';\ncontract TokenSale is MyToken{\n    MyToken public tokenContract;\n    //In wei\n    uint256 public tokenPrice;\n    uint256 public tokenSold;\n    event Sell(address from, uint256 _amount);\n    constructor(MyToken _tokenContract,uint256 _initialSupply) MyToken(_initialSupply) {\n            tokenContract = _tokenContract;\n    }   \n\n    function setTokenPrice(uint256  _price) public onlyAdmin{\n        tokenPrice = _price ;\n    }\n    function multiply(uint256 x, uint256 y) internal pure returns(uint256 z){\n        require(y==0 || (z=x*y)/y ==x);\n    }\n\n    function buyTokens(uint256 _numberOfToken) public payable{\n        require(msg.value == multiply(_numberOfToken,tokenPrice));\n        require(balanceOf[admin] >= _numberOfToken,\"failed due to insuffficient balance\");\n        require(adminTransfer(msg.sender,_numberOfToken));\n\n        tokenSold+=_numberOfToken;\n        emit Sell(msg.sender,_numberOfToken);\n    }\n\n\n    function EndSale() public payable{\n        require(msg.sender == admin);\n        // require(balanceOf[admin] >= _numberOfToken,\"failed due to insuffficient balance\");\n        require(transfer(admin,tokenContract.balanceOf(address(this))));\n        // selfdestruct(admin);\n    }\n    \n    function sendEather(address payable _to) public payable{\n        (bool sent ,bytes memory data) = _to.call{value:msg.value}(\"\");\n        require(sent,\"Failed to send Eather\");\n    }\n\n\n\n\n    function transferToken(address _from,address _to,uint256 _tokens) public payable{\n        require(balanceOf[_from] >= _tokens);\n        require(transferFrom(_from, _to, _tokens));\n\n    }\n\n    receive() external payable{}\n    fallback() external payable{}\n\n} ",
  "sourcePath": "/Users/busraates/Desktop/blockchainAssignment/contracts/ToekenSale.sol",
  "compiler": {
    "name": "solc",
    "version": "0.8.18+commit.87f61d96.Emscripten.clang"
  },
  "schemaVersion": "3.4.16",
  "updatedAt": "2024-04-11T21:43:59.230Z",
  "networkType": "ethereum",
  "devdoc": {
    "kind": "dev",
    "methods": {},
    "version": 1
  },
  "userdoc": {
    "kind": "user",
    "methods": {},
    "version": 1
  }
}