{
  "contractName": "ArithmeticOperations",
  "abi": [
    {
      "inputs": [
        {
          "internalType": "uint256",
          "name": "value",
          "type": "uint256"
        }
      ],
      "name": "calculateTip",
      "outputs": [
        {
          "internalType": "uint256",
          "name": "tip",
          "type": "uint256"
        }
      ],
      "stateMutability": "pure",
      "type": "function",
      "constant": true
    },
    {
      "inputs": [
        {
          "internalType": "uint8",
          "name": "x",
          "type": "uint8"
        },
        {
          "internalType": "uint256",
          "name": "y",
          "type": "uint256"
        }
      ],
      "name": "multiply",
      "outputs": [
        {
          "internalType": "uint256",
          "name": "z",
          "type": "uint256"
        }
      ],
      "stateMutability": "pure",
      "type": "function",
      "constant": true
    }
  ],
  "bytecode": "0x608060405234801561001057600080fd5b50610322806100206000396000f3fe608060405234801561001057600080fd5b5060043610610053576000357c010000000000000000000000000000000000000000000000000000000090048063314eebf814610058578063fc6e663314610088575b600080fd5b610072600480360381019061006d9190610184565b6100b8565b60405161007f91906101d3565b60405180910390f35b6100a2600480360381019061009d91906101ee565b6100f5565b6040516100af91906101d3565b60405180910390f35b6000808214806100e657508260ff1682838560ff166100d7919061024a565b9250826100e491906102bb565b145b6100ef57600080fd5b92915050565b600080600a8361010591906102bb565b905080915050919050565b600080fd5b600060ff82169050919050565b61012b81610115565b811461013657600080fd5b50565b60008135905061014881610122565b92915050565b6000819050919050565b6101618161014e565b811461016c57600080fd5b50565b60008135905061017e81610158565b92915050565b6000806040838503121561019b5761019a610110565b5b60006101a985828601610139565b92505060206101ba8582860161016f565b9150509250929050565b6101cd8161014e565b82525050565b60006020820190506101e860008301846101c4565b92915050565b60006020828403121561020457610203610110565b5b60006102128482850161016f565b91505092915050565b7f4e487b7100000000000000000000000000000000000000000000000000000000600052601160045260246000fd5b60006102558261014e565b91506102608361014e565b925082820261026e8161014e565b915082820484148315176102855761028461021b565b5b5092915050565b7f4e487b7100000000000000000000000000000000000000000000000000000000600052601260045260246000fd5b60006102c68261014e565b91506102d18361014e565b9250826102e1576102e061028c565b5b82820490509291505056fea2646970667358221220816a314a808dfb2b3770f22f9643dc4e7933c37c481e0c2afa39d25f83a7cd3164736f6c63430008120033",
  "immutableReferences": {},
  "source": "\n// SPDX-License-Identifier: MIT\npragma solidity ^0.8.18;\ncontract ArithmeticOperations{\n    function calculateTip(uint256 value) public pure returns (uint256 tip) {\n        // Perform the division first to avoid overflow\n        uint256 dividedValue = value / 10;\n\n        // Multiply the divided value by 100 to get the tip amount\n        // tip = dividedValue * 100;\n\n        return dividedValue;\n    }\n\n    function multiply(uint8 x, uint256 y) public pure returns(uint256 z){\n        require(y==0 || (z=x*y)/y ==x);\n    }\n\n    \n}",
  "sourcePath": "/home/vishnu/latest-blockchain/contracts/ArithmeticOperations.sol",
  "compiler": {
    "name": "solc",
    "version": "0.8.18+commit.87f61d96.Emscripten.clang"
  },
  "schemaVersion": "3.4.16",
  "updatedAt": "2024-04-13T22:05:07.705Z",
  "networkType": "ethereum",
  "devdoc": {
    "kind": "dev",
    "methods": {},
    "version": 1
  },
  "userdoc": {
    "kind": "user",
    "methods": {},
    "version": 1
  }
}