{
  "contractName": "MyToken",
  "abi": [
    {
      "inputs": [
        {
          "internalType": "uint256",
          "name": "_initialSupply",
          "type": "uint256"
        }
      ],
      "stateMutability": "nonpayable",
      "type": "constructor"
    },
    {
      "anonymous": false,
      "inputs": [
        {
          "indexed": true,
          "internalType": "address",
          "name": "owner",
          "type": "address"
        },
        {
          "indexed": true,
          "internalType": "address",
          "name": "spender",
          "type": "address"
        },
        {
          "indexed": false,
          "internalType": "uint256",
          "name": "value",
          "type": "uint256"
        }
      ],
      "name": "Approval",
      "type": "event"
    },
    {
      "anonymous": false,
      "inputs": [
        {
          "indexed": true,
          "internalType": "address",
          "name": "from",
          "type": "address"
        },
        {
          "indexed": true,
          "internalType": "address",
          "name": "to",
          "type": "address"
        },
        {
          "indexed": false,
          "internalType": "uint256",
          "name": "value",
          "type": "uint256"
        }
      ],
      "name": "Transfer",
      "type": "event"
    },
    {
      "inputs": [],
      "name": "admin",
      "outputs": [
        {
          "internalType": "address",
          "name": "",
          "type": "address"
        }
      ],
      "stateMutability": "view",
      "type": "function",
      "constant": true
    },
    {
      "inputs": [
        {
          "internalType": "address",
          "name": "",
          "type": "address"
        },
        {
          "internalType": "address",
          "name": "",
          "type": "address"
        }
      ],
      "name": "allowance",
      "outputs": [
        {
          "internalType": "uint256",
          "name": "",
          "type": "uint256"
        }
      ],
      "stateMutability": "view",
      "type": "function",
      "constant": true
    },
    {
      "inputs": [
        {
          "internalType": "address",
          "name": "",
          "type": "address"
        }
      ],
      "name": "balanceOf",
      "outputs": [
        {
          "internalType": "uint256",
          "name": "",
          "type": "uint256"
        }
      ],
      "stateMutability": "view",
      "type": "function",
      "constant": true
    },
    {
      "inputs": [],
      "name": "name",
      "outputs": [
        {
          "internalType": "string",
          "name": "",
          "type": "string"
        }
      ],
      "stateMutability": "view",
      "type": "function",
      "constant": true
    },
    {
      "inputs": [],
      "name": "owner",
      "outputs": [
        {
          "internalType": "address",
          "name": "",
          "type": "address"
        }
      ],
      "stateMutability": "view",
      "type": "function",
      "constant": true
    },
    {
      "inputs": [],
      "name": "standard",
      "outputs": [
        {
          "internalType": "string",
          "name": "",
          "type": "string"
        }
      ],
      "stateMutability": "view",
      "type": "function",
      "constant": true
    },
    {
      "inputs": [],
      "name": "symbol",
      "outputs": [
        {
          "internalType": "string",
          "name": "",
          "type": "string"
        }
      ],
      "stateMutability": "view",
      "type": "function",
      "constant": true
    },
    {
      "inputs": [],
      "name": "totalSupply",
      "outputs": [
        {
          "internalType": "uint256",
          "name": "",
          "type": "uint256"
        }
      ],
      "stateMutability": "view",
      "type": "function",
      "constant": true
    },
    {
      "inputs": [
        {
          "internalType": "address",
          "name": "_to",
          "type": "address"
        },
        {
          "internalType": "uint256",
          "name": "_value",
          "type": "uint256"
        }
      ],
      "name": "transfer",
      "outputs": [
        {
          "internalType": "bool",
          "name": "success",
          "type": "bool"
        }
      ],
      "stateMutability": "nonpayable",
      "type": "function"
    },
    {
      "inputs": [
        {
          "internalType": "address",
          "name": "_spender",
          "type": "address"
        },
        {
          "internalType": "uint256",
          "name": "_value",
          "type": "uint256"
        }
      ],
      "name": "approve",
      "outputs": [
        {
          "internalType": "bool",
          "name": "success",
          "type": "bool"
        }
      ],
      "stateMutability": "nonpayable",
      "type": "function"
    },
    {
      "inputs": [
        {
          "internalType": "address",
          "name": "_from",
          "type": "address"
        },
        {
          "internalType": "address",
          "name": "_to",
          "type": "address"
        },
        {
          "internalType": "uint256",
          "name": "_value",
          "type": "uint256"
        }
      ],
      "name": "transferFrom",
      "outputs": [
        {
          "internalType": "bool",
          "name": "success",
          "type": "bool"
        }
      ],
      "stateMutability": "nonpayable",
      "type": "function"
    }
  ],
  "bytecode": "0x60806040526040518060400160405280600881526020017f4d7920546f6b656e000000000000000000000000000000000000000000000000815250600090816200004a9190620004a4565b506040518060400160405280600381526020017f564953000000000000000000000000000000000000000000000000000000000081525060019081620000919190620004a4565b506040518060400160405280601381526020017f4d79546f6b656e2076657273696f6e20302e310000000000000000000000000081525060029081620000d89190620004a4565b50348015620000e657600080fd5b50604051620016cb380380620016cb83398181016040528101906200010c9190620005c1565b33600660006101000a81548173ffffffffffffffffffffffffffffffffffffffff021916908373ffffffffffffffffffffffffffffffffffffffff1602179055508060086000600660009054906101000a900473ffffffffffffffffffffffffffffffffffffffff1673ffffffffffffffffffffffffffffffffffffffff1673ffffffffffffffffffffffffffffffffffffffff1681526020019081526020016000208190555080600381905550600660009054906101000a900473ffffffffffffffffffffffffffffffffffffffff16600460006101000a81548173ffffffffffffffffffffffffffffffffffffffff021916908373ffffffffffffffffffffffffffffffffffffffff16021790555050620005f3565b600081519050919050565b7f4e487b7100000000000000000000000000000000000000000000000000000000600052604160045260246000fd5b7f4e487b7100000000000000000000000000000000000000000000000000000000600052602260045260246000fd5b60006002820490506001821680620002a657607f821691505b602082108103620002bc57620002bb6200025e565b5b50919050565b60008190508160005260206000209050919050565b60006020601f8301049050919050565b60008160020a8302905092915050565b600060088302620003297fffffffffffffffffffffffffffffffffffffffffffffffffffffffffffffffff82620002e7565b620003358683620002e7565b95508019841693508086168417925050509392505050565b6000819050919050565b6000819050919050565b6000620003826200037c62000376846200034d565b62000357565b6200034d565b9050919050565b6000819050919050565b6200039e8362000361565b620003b6620003ad8262000389565b848454620002f7565b825550505050565b600090565b620003cd620003be565b620003da81848462000393565b505050565b5b818110156200040257620003f6600082620003c3565b600181019050620003e0565b5050565b601f82111562000451576200041b81620002c2565b6200042684620002d7565b8101602085101562000436578190505b6200044e6200044585620002d7565b830182620003df565b50505b505050565b60008160020a8304905092915050565b6000620004796000198460080262000456565b1980831691505092915050565b600062000494838362000466565b9150826002028217905092915050565b620004af8262000224565b67ffffffffffffffff811115620004cb57620004ca6200022f565b5b620004d782546200028d565b620004e482828562000406565b600060209050601f8311600181146200051c576000841562000507578287015190505b62000513858262000486565b86555062000583565b601f1984166200052c86620002c2565b60005b8281101562000556578489015182556001820191506020850194506020810190506200052f565b8683101562000576578489015162000572601f89168262000466565b8355505b6001600288020188555050505b505050505050565b600080fd5b6200059b816200034d565b8114620005a757600080fd5b50565b600081519050620005bb8162000590565b92915050565b600060208284031215620005da57620005d96200058b565b5b6000620005ea84828501620005aa565b91505092915050565b6110c880620006036000396000f3fe608060405234801561001057600080fd5b50600436106100c6576000357c01000000000000000000000000000000000000000000000000000000009004806370a082311161008e57806370a08231146101855780638da5cb5b146101b557806395d89b41146101d3578063a9059cbb146101f1578063dd62ed3e14610221578063f851a44014610251576100c6565b806306fdde03146100cb578063095ea7b3146100e957806318160ddd1461011957806323b872dd146101375780635a3b7e4214610167575b600080fd5b6100d361026f565b6040516100e09190610c12565b60405180910390f35b61010360048036038101906100fe9190610ccd565b6102fd565b6040516101109190610d28565b60405180910390f35b6101216103ef565b60405161012e9190610d52565b60405180910390f35b610151600480360381019061014c9190610d6d565b6103f5565b60405161015e9190610d28565b60405180910390f35b61016f610728565b60405161017c9190610c12565b60405180910390f35b61019f600480360381019061019a9190610dc0565b6107b6565b6040516101ac9190610d52565b60405180910390f35b6101bd6107ce565b6040516101ca9190610dfc565b60405180910390f35b6101db6107f4565b6040516101e89190610c12565b60405180910390f35b61020b60048036038101906102069190610ccd565b610882565b6040516102189190610d28565b60405180910390f35b61023b60048036038101906102369190610e17565b610b37565b6040516102489190610d52565b60405180910390f35b610259610b5c565b6040516102669190610dfc565b60405180910390f35b6000805461027c90610e86565b80601f01602080910402602001604051908101604052809291908181526020018280546102a890610e86565b80156102f55780601f106102ca576101008083540402835291602001916102f5565b820191906000526020600020905b8154815290600101906020018083116102d857829003601f168201915b505050505081565b600081600760003373ffffffffffffffffffffffffffffffffffffffff1673ffffffffffffffffffffffffffffffffffffffff16815260200190815260200160002060008573ffffffffffffffffffffffffffffffffffffffff1673ffffffffffffffffffffffffffffffffffffffff168152602001908152602001600020819055508273ffffffffffffffffffffffffffffffffffffffff163373ffffffffffffffffffffffffffffffffffffffff167f8c5be1e5ebec7d5bd14f71427d1e84f3dd0314c0f7b2291e5b200ac8c7c3b925846040516103dd9190610d52565b60405180910390a36001905092915050565b60035481565b6000600860008573ffffffffffffffffffffffffffffffffffffffff1673ffffffffffffffffffffffffffffffffffffffff16815260200190815260200160002054821115610479576040517f08c379a000000000000000000000000000000000000000000000000000000000815260040161047090610f03565b60405180910390fd5b600760008573ffffffffffffffffffffffffffffffffffffffff1673ffffffffffffffffffffffffffffffffffffffff16815260200190815260200160002060003373ffffffffffffffffffffffffffffffffffffffff1673ffffffffffffffffffffffffffffffffffffffff16815260200190815260200160002054821115610538576040517f08c379a000000000000000000000000000000000000000000000000000000000815260040161052f90610f6f565b60405180910390fd5b81600860008673ffffffffffffffffffffffffffffffffffffffff1673ffffffffffffffffffffffffffffffffffffffff16815260200190815260200160002060008282546105879190610fbe565b9250508190555081600860008573ffffffffffffffffffffffffffffffffffffffff1673ffffffffffffffffffffffffffffffffffffffff16815260200190815260200160002060008282546105dd9190610ff2565b9250508190555081600760008673ffffffffffffffffffffffffffffffffffffffff1673ffffffffffffffffffffffffffffffffffffffff16815260200190815260200160002060003373ffffffffffffffffffffffffffffffffffffffff1673ffffffffffffffffffffffffffffffffffffffff16815260200190815260200160002060008282546106709190610fbe565b925050819055508273ffffffffffffffffffffffffffffffffffffffff168473ffffffffffffffffffffffffffffffffffffffff167fddf252ad1be2c89b69c2b068fc378daa952ba7f163c4a11628f55a4df523b3ef846040516106d49190610d52565b60405180910390a382600460006101000a81548173ffffffffffffffffffffffffffffffffffffffff021916908373ffffffffffffffffffffffffffffffffffffffff160217905550600190509392505050565b6002805461073590610e86565b80601f016020809104026020016040519081016040528092919081815260200182805461076190610e86565b80156107ae5780601f10610783576101008083540402835291602001916107ae565b820191906000526020600020905b81548152906001019060200180831161079157829003601f168201915b505050505081565b60086020528060005260406000206000915090505481565b600460009054906101000a900473ffffffffffffffffffffffffffffffffffffffff1681565b6001805461080190610e86565b80601f016020809104026020016040519081016040528092919081815260200182805461082d90610e86565b801561087a5780601f1061084f5761010080835404028352916020019161087a565b820191906000526020600020905b81548152906001019060200180831161085d57829003601f168201915b505050505081565b60008160086000600660009054906101000a900473ffffffffffffffffffffffffffffffffffffffff1673ffffffffffffffffffffffffffffffffffffffff1673ffffffffffffffffffffffffffffffffffffffff168152602001908152602001600020541015610928576040517f08c379a000000000000000000000000000000000000000000000000000000000815260040161091f90611072565b60405180910390fd5b8160086000600660009054906101000a900473ffffffffffffffffffffffffffffffffffffffff1673ffffffffffffffffffffffffffffffffffffffff1673ffffffffffffffffffffffffffffffffffffffff168152602001908152602001600020546109959190610fbe565b60086000600660009054906101000a900473ffffffffffffffffffffffffffffffffffffffff1673ffffffffffffffffffffffffffffffffffffffff1673ffffffffffffffffffffffffffffffffffffffff1681526020019081526020016000208190555081600860008573ffffffffffffffffffffffffffffffffffffffff1673ffffffffffffffffffffffffffffffffffffffff1681526020019081526020016000206000828254610a499190610ff2565b925050819055508273ffffffffffffffffffffffffffffffffffffffff16600660009054906101000a900473ffffffffffffffffffffffffffffffffffffffff1673ffffffffffffffffffffffffffffffffffffffff167fddf252ad1be2c89b69c2b068fc378daa952ba7f163c4a11628f55a4df523b3ef84604051610acf9190610d52565b60405180910390a381600560008573ffffffffffffffffffffffffffffffffffffffff1673ffffffffffffffffffffffffffffffffffffffff1681526020019081526020016000206000828254610b269190610ff2565b925050819055506001905092915050565b6007602052816000526040600020602052806000526040600020600091509150505481565b600660009054906101000a900473ffffffffffffffffffffffffffffffffffffffff1681565b600081519050919050565b600082825260208201905092915050565b60005b83811015610bbc578082015181840152602081019050610ba1565b60008484015250505050565b6000601f19601f8301169050919050565b6000610be482610b82565b610bee8185610b8d565b9350610bfe818560208601610b9e565b610c0781610bc8565b840191505092915050565b60006020820190508181036000830152610c2c8184610bd9565b905092915050565b600080fd5b600073ffffffffffffffffffffffffffffffffffffffff82169050919050565b6000610c6482610c39565b9050919050565b610c7481610c59565b8114610c7f57600080fd5b50565b600081359050610c9181610c6b565b92915050565b6000819050919050565b610caa81610c97565b8114610cb557600080fd5b50565b600081359050610cc781610ca1565b92915050565b60008060408385031215610ce457610ce3610c34565b5b6000610cf285828601610c82565b9250506020610d0385828601610cb8565b9150509250929050565b60008115159050919050565b610d2281610d0d565b82525050565b6000602082019050610d3d6000830184610d19565b92915050565b610d4c81610c97565b82525050565b6000602082019050610d676000830184610d43565b92915050565b600080600060608486031215610d8657610d85610c34565b5b6000610d9486828701610c82565b9350506020610da586828701610c82565b9250506040610db686828701610cb8565b9150509250925092565b600060208284031215610dd657610dd5610c34565b5b6000610de484828501610c82565b91505092915050565b610df681610c59565b82525050565b6000602082019050610e116000830184610ded565b92915050565b60008060408385031215610e2e57610e2d610c34565b5b6000610e3c85828601610c82565b9250506020610e4d85828601610c82565b9150509250929050565b7f4e487b7100000000000000000000000000000000000000000000000000000000600052602260045260246000fd5b60006002820490506001821680610e9e57607f821691505b602082108103610eb157610eb0610e57565b5b50919050565b7f496e73756666696369656e742062616c616e6365000000000000000000000000600082015250565b6000610eed601483610b8d565b9150610ef882610eb7565b602082019050919050565b60006020820190508181036000830152610f1c81610ee0565b9050919050565b7f416c6c6f77616e63652065786365656465640000000000000000000000000000600082015250565b6000610f59601283610b8d565b9150610f6482610f23565b602082019050919050565b60006020820190508181036000830152610f8881610f4c565b9050919050565b7f4e487b7100000000000000000000000000000000000000000000000000000000600052601160045260246000fd5b6000610fc982610c97565b9150610fd483610c97565b9250828203905081811115610fec57610feb610f8f565b5b92915050565b6000610ffd82610c97565b915061100883610c97565b92508282019050808211156110205761101f610f8f565b5b92915050565b7f696e73756666696369656e742062616c616e6365737373000000000000000000600082015250565b600061105c601783610b8d565b915061106782611026565b602082019050919050565b6000602082019050818103600083015261108b8161104f565b905091905056fea264697066735822122070110082ef688324ab04a67e3d66d6969f729ca6002cc08513dd6d57d039324664736f6c63430008120033",
  "immutableReferences": {},
  "source": "// SPDX-License-Identifier: GPL-3.0\npragma solidity ^0.8.18;\nimport './IERC20.sol';\ncontract MyToken is IERC20 {\n    // constructor\n    string public name = \"My Token\";\n    string public symbol = \"VIS\";\n    string public standard = \"MyToken version 0.1\";\n    uint256 public totalSupply;\n    address public owner;\n    mapping(address => uint256) holds; \n    address public admin;\n\n    mapping(address => mapping(address => uint256)) public allowance;\n    mapping(address => uint256)  public balanceOf;\n\n    constructor(uint256 _initialSupply) {\n         admin = msg.sender;\n        balanceOf[admin] = _initialSupply;\n        totalSupply = _initialSupply;\n        owner=admin;\n       \n    }\n\n    modifier onlyAdmin() {\n        require(msg.sender == admin, \"Admin can only do this operation\");\n        _;\n    }\n\n    function transfer(address _to, uint256 _value) public override  returns (bool success) {\n        require(balanceOf[admin] >= _value,\"insufficient balancesss\"); \n        balanceOf[admin] =balanceOf[admin] - _value;\n        balanceOf[_to] += _value;\n        emit Transfer(admin, _to, _value);\n        holds[_to]+= _value;\n        return true;\n    }  \n\n    function approve(address _spender, uint256 _value) public override returns (bool success){\n        // Allowance function\n        allowance[msg.sender][_spender] = _value;\n        emit Approval(msg.sender, _spender, _value);\n        return true;\n    }\n\n    function transferFrom(address _from, address _to, uint256 _value) public override returns (bool success) {\n        require(_value <= balanceOf[_from], \"Insufficient balance\");\n        require(_value <= allowance[_from][msg.sender], \"Allowance exceeded\");\n        balanceOf[_from] -= _value;\n        balanceOf[_to] += _value;\n        allowance[_from][msg.sender] -= _value;\n        emit Transfer(_from, _to, _value);\n        owner = _to;\n        return true;\n    }\n}",
  "sourcePath": "/Users/busraates/Desktop/blockchainAssignment/contracts/MyToken.sol",
  "compiler": {
    "name": "solc",
    "version": "0.8.18+commit.87f61d96.Emscripten.clang"
  },
  "schemaVersion": "3.4.16",
  "updatedAt": "2024-04-07T20:47:42.256Z",
  "networkType": "ethereum",
  "devdoc": {
    "kind": "dev",
    "methods": {},
    "version": 1
  },
  "userdoc": {
    "kind": "user",
    "methods": {},
    "version": 1
  }
}