{
  "contractName": "MyToken",
  "abi": [
    {
      "inputs": [
        {
          "internalType": "uint256",
          "name": "_initialSupply",
          "type": "uint256"
        }
      ],
      "stateMutability": "nonpayable",
      "type": "constructor"
    },
    {
      "anonymous": false,
      "inputs": [
        {
          "indexed": true,
          "internalType": "address",
          "name": "owner",
          "type": "address"
        },
        {
          "indexed": true,
          "internalType": "address",
          "name": "spender",
          "type": "address"
        },
        {
          "indexed": false,
          "internalType": "uint256",
          "name": "value",
          "type": "uint256"
        }
      ],
      "name": "Approval",
      "type": "event"
    },
    {
      "anonymous": false,
      "inputs": [
        {
          "indexed": true,
          "internalType": "address",
          "name": "from",
          "type": "address"
        },
        {
          "indexed": true,
          "internalType": "address",
          "name": "to",
          "type": "address"
        },
        {
          "indexed": false,
          "internalType": "uint256",
          "name": "value",
          "type": "uint256"
        }
      ],
      "name": "Transfer",
      "type": "event"
    },
    {
      "inputs": [],
      "name": "admin",
      "outputs": [
        {
          "internalType": "address",
          "name": "",
          "type": "address"
        }
      ],
      "stateMutability": "view",
      "type": "function",
      "constant": true
    },
    {
      "inputs": [
        {
          "internalType": "address",
          "name": "",
          "type": "address"
        },
        {
          "internalType": "address",
          "name": "",
          "type": "address"
        }
      ],
      "name": "allowance",
      "outputs": [
        {
          "internalType": "uint256",
          "name": "",
          "type": "uint256"
        }
      ],
      "stateMutability": "view",
      "type": "function",
      "constant": true
    },
    {
      "inputs": [
        {
          "internalType": "address",
          "name": "",
          "type": "address"
        }
      ],
      "name": "balanceOf",
      "outputs": [
        {
          "internalType": "uint256",
          "name": "",
          "type": "uint256"
        }
      ],
      "stateMutability": "view",
      "type": "function",
      "constant": true
    },
    {
      "inputs": [],
      "name": "name",
      "outputs": [
        {
          "internalType": "string",
          "name": "",
          "type": "string"
        }
      ],
      "stateMutability": "view",
      "type": "function",
      "constant": true
    },
    {
      "inputs": [
        {
          "internalType": "uint256",
          "name": "",
          "type": "uint256"
        }
      ],
      "name": "owners",
      "outputs": [
        {
          "internalType": "address",
          "name": "",
          "type": "address"
        }
      ],
      "stateMutability": "view",
      "type": "function",
      "constant": true
    },
    {
      "inputs": [],
      "name": "standard",
      "outputs": [
        {
          "internalType": "string",
          "name": "",
          "type": "string"
        }
      ],
      "stateMutability": "view",
      "type": "function",
      "constant": true
    },
    {
      "inputs": [],
      "name": "symbol",
      "outputs": [
        {
          "internalType": "string",
          "name": "",
          "type": "string"
        }
      ],
      "stateMutability": "view",
      "type": "function",
      "constant": true
    },
    {
      "inputs": [],
      "name": "totalSupply",
      "outputs": [
        {
          "internalType": "uint256",
          "name": "",
          "type": "uint256"
        }
      ],
      "stateMutability": "view",
      "type": "function",
      "constant": true
    },
    {
      "inputs": [
        {
          "internalType": "address",
          "name": "_to",
          "type": "address"
        },
        {
          "internalType": "uint256",
          "name": "_value",
          "type": "uint256"
        }
      ],
      "name": "transfer",
      "outputs": [
        {
          "internalType": "bool",
          "name": "success",
          "type": "bool"
        }
      ],
      "stateMutability": "nonpayable",
      "type": "function"
    },
    {
      "inputs": [
        {
          "internalType": "address",
          "name": "_to",
          "type": "address"
        },
        {
          "internalType": "uint256",
          "name": "_value",
          "type": "uint256"
        }
      ],
      "name": "adminTransfer",
      "outputs": [
        {
          "internalType": "bool",
          "name": "success",
          "type": "bool"
        }
      ],
      "stateMutability": "nonpayable",
      "type": "function"
    },
    {
      "inputs": [
        {
          "internalType": "address",
          "name": "_spender",
          "type": "address"
        },
        {
          "internalType": "uint256",
          "name": "_value",
          "type": "uint256"
        }
      ],
      "name": "approve",
      "outputs": [
        {
          "internalType": "bool",
          "name": "success",
          "type": "bool"
        }
      ],
      "stateMutability": "nonpayable",
      "type": "function"
    },
    {
      "inputs": [
        {
          "internalType": "address",
          "name": "_from",
          "type": "address"
        },
        {
          "internalType": "address",
          "name": "_to",
          "type": "address"
        },
        {
          "internalType": "uint256",
          "name": "_value",
          "type": "uint256"
        }
      ],
      "name": "transferFrom",
      "outputs": [
        {
          "internalType": "bool",
          "name": "success",
          "type": "bool"
        }
      ],
      "stateMutability": "nonpayable",
      "type": "function"
    }
  ],
  "bytecode": "0x60806040526040518060400160405280601381526020017f4d79546f6b656e2076657273696f6e20302e3100000000000000000000000000815250600090816200004a9190620004d1565b503480156200005857600080fd5b50604051620019a8380380620019a883398181016040528101906200007e9190620005ee565b33600460006101000a81548173ffffffffffffffffffffffffffffffffffffffff021916908373ffffffffffffffffffffffffffffffffffffffff1602179055508060066000600460009054906101000a900473ffffffffffffffffffffffffffffffffffffffff1673ffffffffffffffffffffffffffffffffffffffff1673ffffffffffffffffffffffffffffffffffffffff16815260200190815260200160002081905550806001819055506040518060200160405280600460009054906101000a900473ffffffffffffffffffffffffffffffffffffffff1673ffffffffffffffffffffffffffffffffffffffff1673ffffffffffffffffffffffffffffffffffffffff1681525060029060016200019b929190620001a3565b505062000620565b8280548282559060005260206000209081019282156200021f579160200282015b828111156200021e5782518260006101000a81548173ffffffffffffffffffffffffffffffffffffffff021916908373ffffffffffffffffffffffffffffffffffffffff16021790555091602001919060010190620001c4565b5b5090506200022e919062000232565b5090565b5b808211156200024d57600081600090555060010162000233565b5090565b600081519050919050565b7f4e487b7100000000000000000000000000000000000000000000000000000000600052604160045260246000fd5b7f4e487b7100000000000000000000000000000000000000000000000000000000600052602260045260246000fd5b60006002820490506001821680620002d357607f821691505b602082108103620002e957620002e86200028b565b5b50919050565b60008190508160005260206000209050919050565b60006020601f8301049050919050565b60008160020a8302905092915050565b600060088302620003567fffffffffffffffffffffffffffffffffffffffffffffffffffffffffffffffff8262000314565b62000362868362000314565b95508019841693508086168417925050509392505050565b6000819050919050565b6000819050919050565b6000620003af620003a9620003a3846200037a565b62000384565b6200037a565b9050919050565b6000819050919050565b620003cb836200038e565b620003e3620003da82620003b6565b84845462000324565b825550505050565b600090565b620003fa620003eb565b62000407818484620003c0565b505050565b5b818110156200042f5762000423600082620003f0565b6001810190506200040d565b5050565b601f8211156200047e576200044881620002ef565b620004538462000304565b8101602085101562000463578190505b6200047b620004728562000304565b8301826200040c565b50505b505050565b60008160020a8304905092915050565b6000620004a66000198460080262000483565b1980831691505092915050565b6000620004c1838362000493565b9150826002028217905092915050565b620004dc8262000251565b67ffffffffffffffff811115620004f857620004f76200025c565b5b620005048254620002ba565b6200051182828562000433565b600060209050601f83116001811462000549576000841562000534578287015190505b620005408582620004b3565b865550620005b0565b601f1984166200055986620002ef565b60005b8281101562000583578489015182556001820191506020850194506020810190506200055c565b86831015620005a357848901516200059f601f89168262000493565b8355505b6001600288020188555050505b505050505050565b600080fd5b620005c8816200037a565b8114620005d457600080fd5b50565b600081519050620005e881620005bd565b92915050565b600060208284031215620006075762000606620005b8565b5b60006200061784828501620005d7565b91505092915050565b61137880620006306000396000f3fe608060405234801561001057600080fd5b50600436106100d1576000357c01000000000000000000000000000000000000000000000000000000009004806370a082311161008e57806370a08231146101c057806395d89b41146101f0578063a9059cbb1461020e578063dd62ed3e1461023e578063f17e48ec1461026e578063f851a4401461029e576100d1565b8063025e7c27146100d657806306fdde0314610106578063095ea7b31461012457806318160ddd1461015457806323b872dd146101725780635a3b7e42146101a2575b600080fd5b6100f060048036038101906100eb9190610e40565b6102bc565b6040516100fd9190610eae565b60405180910390f35b61010e6102fb565b60405161011b9190610f59565b60405180910390f35b61013e60048036038101906101399190610fa7565b610334565b60405161014b9190611002565b60405180910390f35b61015c610426565b604051610169919061102c565b60405180910390f35b61018c60048036038101906101879190611047565b61042c565b6040516101999190611002565b60405180910390f35b6101aa6107d7565b6040516101b79190610f59565b60405180910390f35b6101da60048036038101906101d5919061109a565b610865565b6040516101e7919061102c565b60405180910390f35b6101f861087d565b6040516102059190610f59565b60405180910390f35b61022860048036038101906102239190610fa7565b6108b6565b6040516102359190611002565b60405180910390f35b610258600480360381019061025391906110c7565b610b05565b604051610265919061102c565b60405180910390f35b61028860048036038101906102839190610fa7565b610b2a565b6040516102959190611002565b60405180910390f35b6102a6610ddf565b6040516102b39190610eae565b60405180910390f35b600281815481106102cc57600080fd5b906000526020600020016000915054906101000a900473ffffffffffffffffffffffffffffffffffffffff1681565b6040518060400160405280600881526020017f4d7920546f6b656e00000000000000000000000000000000000000000000000081525081565b600081600560003373ffffffffffffffffffffffffffffffffffffffff1673ffffffffffffffffffffffffffffffffffffffff16815260200190815260200160002060008573ffffffffffffffffffffffffffffffffffffffff1673ffffffffffffffffffffffffffffffffffffffff168152602001908152602001600020819055508273ffffffffffffffffffffffffffffffffffffffff163373ffffffffffffffffffffffffffffffffffffffff167f8c5be1e5ebec7d5bd14f71427d1e84f3dd0314c0f7b2291e5b200ac8c7c3b92584604051610414919061102c565b60405180910390a36001905092915050565b60015481565b6000600660008573ffffffffffffffffffffffffffffffffffffffff1673ffffffffffffffffffffffffffffffffffffffff168152602001908152602001600020548211156104b0576040517f08c379a00000000000000000000000000000000000000000000000000000000081526004016104a790611153565b60405180910390fd5b600560008573ffffffffffffffffffffffffffffffffffffffff1673ffffffffffffffffffffffffffffffffffffffff16815260200190815260200160002060003373ffffffffffffffffffffffffffffffffffffffff1673ffffffffffffffffffffffffffffffffffffffff1681526020019081526020016000205482111561056f576040517f08c379a0000000000000000000000000000000000000000000000000000000008152600401610566906111bf565b60405180910390fd5b81600660008673ffffffffffffffffffffffffffffffffffffffff1673ffffffffffffffffffffffffffffffffffffffff16815260200190815260200160002060008282546105be919061120e565b9250508190555081600660008573ffffffffffffffffffffffffffffffffffffffff1673ffffffffffffffffffffffffffffffffffffffff16815260200190815260200160002060008282546106149190611242565b9250508190555081600560008673ffffffffffffffffffffffffffffffffffffffff1673ffffffffffffffffffffffffffffffffffffffff16815260200190815260200160002060003373ffffffffffffffffffffffffffffffffffffffff1673ffffffffffffffffffffffffffffffffffffffff16815260200190815260200160002060008282546106a7919061120e565b9250508190555081600360008573ffffffffffffffffffffffffffffffffffffffff1673ffffffffffffffffffffffffffffffffffffffff16815260200190815260200160002060008282546106fd9190611242565b925050819055508273ffffffffffffffffffffffffffffffffffffffff168473ffffffffffffffffffffffffffffffffffffffff167fddf252ad1be2c89b69c2b068fc378daa952ba7f163c4a11628f55a4df523b3ef84604051610761919061102c565b60405180910390a36002839080600181540180825580915050600190039060005260206000200160009091909190916101000a81548173ffffffffffffffffffffffffffffffffffffffff021916908373ffffffffffffffffffffffffffffffffffffffff160217905550600190509392505050565b600080546107e4906112a5565b80601f0160208091040260200160405190810160405280929190818152602001828054610810906112a5565b801561085d5780601f106108325761010080835404028352916020019161085d565b820191906000526020600020905b81548152906001019060200180831161084057829003601f168201915b505050505081565b60066020528060005260406000206000915090505481565b6040518060400160405280600381526020017f564953000000000000000000000000000000000000000000000000000000000081525081565b600081600660003373ffffffffffffffffffffffffffffffffffffffff1673ffffffffffffffffffffffffffffffffffffffff16815260200190815260200160002054101561093a576040517f08c379a000000000000000000000000000000000000000000000000000000000815260040161093190611322565b60405180910390fd5b8160066000600460009054906101000a900473ffffffffffffffffffffffffffffffffffffffff1673ffffffffffffffffffffffffffffffffffffffff1673ffffffffffffffffffffffffffffffffffffffff168152602001908152602001600020546109a7919061120e565b600660003373ffffffffffffffffffffffffffffffffffffffff1673ffffffffffffffffffffffffffffffffffffffff1681526020019081526020016000208190555081600660008573ffffffffffffffffffffffffffffffffffffffff1673ffffffffffffffffffffffffffffffffffffffff1681526020019081526020016000206000828254610a399190611242565b925050819055508273ffffffffffffffffffffffffffffffffffffffff163373ffffffffffffffffffffffffffffffffffffffff167fddf252ad1be2c89b69c2b068fc378daa952ba7f163c4a11628f55a4df523b3ef84604051610a9d919061102c565b60405180910390a381600360008573ffffffffffffffffffffffffffffffffffffffff1673ffffffffffffffffffffffffffffffffffffffff1681526020019081526020016000206000828254610af49190611242565b925050819055506001905092915050565b6005602052816000526040600020602052806000526040600020600091509150505481565b60008160066000600460009054906101000a900473ffffffffffffffffffffffffffffffffffffffff1673ffffffffffffffffffffffffffffffffffffffff1673ffffffffffffffffffffffffffffffffffffffff168152602001908152602001600020541015610bd0576040517f08c379a0000000000000000000000000000000000000000000000000000000008152600401610bc790611322565b60405180910390fd5b8160066000600460009054906101000a900473ffffffffffffffffffffffffffffffffffffffff1673ffffffffffffffffffffffffffffffffffffffff1673ffffffffffffffffffffffffffffffffffffffff16815260200190815260200160002054610c3d919061120e565b60066000600460009054906101000a900473ffffffffffffffffffffffffffffffffffffffff1673ffffffffffffffffffffffffffffffffffffffff1673ffffffffffffffffffffffffffffffffffffffff1681526020019081526020016000208190555081600660008573ffffffffffffffffffffffffffffffffffffffff1673ffffffffffffffffffffffffffffffffffffffff1681526020019081526020016000206000828254610cf19190611242565b925050819055508273ffffffffffffffffffffffffffffffffffffffff16600460009054906101000a900473ffffffffffffffffffffffffffffffffffffffff1673ffffffffffffffffffffffffffffffffffffffff167fddf252ad1be2c89b69c2b068fc378daa952ba7f163c4a11628f55a4df523b3ef84604051610d77919061102c565b60405180910390a381600360008573ffffffffffffffffffffffffffffffffffffffff1673ffffffffffffffffffffffffffffffffffffffff1681526020019081526020016000206000828254610dce9190611242565b925050819055506001905092915050565b600460009054906101000a900473ffffffffffffffffffffffffffffffffffffffff1681565b600080fd5b6000819050919050565b610e1d81610e0a565b8114610e2857600080fd5b50565b600081359050610e3a81610e14565b92915050565b600060208284031215610e5657610e55610e05565b5b6000610e6484828501610e2b565b91505092915050565b600073ffffffffffffffffffffffffffffffffffffffff82169050919050565b6000610e9882610e6d565b9050919050565b610ea881610e8d565b82525050565b6000602082019050610ec36000830184610e9f565b92915050565b600081519050919050565b600082825260208201905092915050565b60005b83811015610f03578082015181840152602081019050610ee8565b60008484015250505050565b6000601f19601f8301169050919050565b6000610f2b82610ec9565b610f358185610ed4565b9350610f45818560208601610ee5565b610f4e81610f0f565b840191505092915050565b60006020820190508181036000830152610f738184610f20565b905092915050565b610f8481610e8d565b8114610f8f57600080fd5b50565b600081359050610fa181610f7b565b92915050565b60008060408385031215610fbe57610fbd610e05565b5b6000610fcc85828601610f92565b9250506020610fdd85828601610e2b565b9150509250929050565b60008115159050919050565b610ffc81610fe7565b82525050565b60006020820190506110176000830184610ff3565b92915050565b61102681610e0a565b82525050565b6000602082019050611041600083018461101d565b92915050565b6000806000606084860312156110605761105f610e05565b5b600061106e86828701610f92565b935050602061107f86828701610f92565b925050604061109086828701610e2b565b9150509250925092565b6000602082840312156110b0576110af610e05565b5b60006110be84828501610f92565b91505092915050565b600080604083850312156110de576110dd610e05565b5b60006110ec85828601610f92565b92505060206110fd85828601610f92565b9150509250929050565b7f496e73756666696369656e742062616c616e6365000000000000000000000000600082015250565b600061113d601483610ed4565b915061114882611107565b602082019050919050565b6000602082019050818103600083015261116c81611130565b9050919050565b7f416c6c6f77616e63652065786365656465640000000000000000000000000000600082015250565b60006111a9601283610ed4565b91506111b482611173565b602082019050919050565b600060208201905081810360008301526111d88161119c565b9050919050565b7f4e487b7100000000000000000000000000000000000000000000000000000000600052601160045260246000fd5b600061121982610e0a565b915061122483610e0a565b925082820390508181111561123c5761123b6111df565b5b92915050565b600061124d82610e0a565b915061125883610e0a565b92508282019050808211156112705761126f6111df565b5b92915050565b7f4e487b7100000000000000000000000000000000000000000000000000000000600052602260045260246000fd5b600060028204905060018216806112bd57607f821691505b6020821081036112d0576112cf611276565b5b50919050565b7f696e73756666696369656e742062616c616e6365737373000000000000000000600082015250565b600061130c601783610ed4565b9150611317826112d6565b602082019050919050565b6000602082019050818103600083015261133b816112ff565b905091905056fea264697066735822122047ebe34596271a1d7a4972cebb98965a587f1d14a080d50248f3651d0d1e7da664736f6c63430008120033",
  "immutableReferences": {},
  "source": "// SPDX-License-Identifier: GPL-3.0\npragma solidity ^0.8.18;\nimport './IERC20.sol';\ncontract MyToken is IERC20 {\n    // initalize toke properties\n    string constant public name = \"My Token\";\n    string constant public symbol = \"VIS\";\n    string public standard = \"MyToken version 0.1\";\n    uint256 public totalSupply;\n    address[] public owners;\n    mapping(address => uint256) holds; \n    address public admin;\n\n    mapping(address => mapping(address => uint256)) public allowance;\n    mapping(address => uint256)  public balanceOf;\n\n   \n\n    constructor(uint256  _initialSupply) {\n         admin = msg.sender;\n        balanceOf[admin] = _initialSupply;\n        totalSupply = _initialSupply;\n        owners=[admin];\n       \n    }\n\n    modifier onlyAdmin() {\n        require(msg.sender == admin, \"Admin can only do this operation\");\n        _;\n    }\n    modifier ownerAccess(){\n        assert(msg.sender != admin);\n        _;\n    }\n\n       function transfer(address _to, uint256 _value) public override  returns (bool success) {\n        require(balanceOf[msg.sender] >= _value,\"insufficient balancesss\"); \n        balanceOf[msg.sender] =balanceOf[admin] - _value;\n        balanceOf[_to] += _value;\n        emit Transfer(msg.sender, _to, _value);\n        holds[_to]+= _value;\n        return true;\n    }\n\n    function adminTransfer(address _to, uint256 _value) public  virtual returns (bool success) {\n        require(balanceOf[admin] >= _value,\"insufficient balancesss\"); \n        balanceOf[admin] =balanceOf[admin] - _value;\n        balanceOf[_to] += _value;\n        emit Transfer(admin, _to, _value);\n        holds[_to]+= _value;\n        return true;\n    }  \n\n    function approve(address _spender, uint256 _value) public override returns (bool success){\n        // Allowance function\n        allowance[msg.sender][_spender] = _value;\n        emit Approval(msg.sender, _spender, _value);\n        return true;\n    }\n\n    function transferFrom(address _from, address _to, uint256 _value) public override returns (bool success) {\n        require(_value <= balanceOf[_from], \"Insufficient balance\");\n        require(_value <= allowance[_from][msg.sender], \"Allowance exceeded\");\n        balanceOf[_from] -= _value;\n        balanceOf[_to] += _value;\n        allowance[_from][msg.sender] -= _value;\n        holds[_to]+= _value;\n        emit Transfer(_from, _to, _value);\n        owners.push(_to);\n        return true;\n    }\n}",
  "sourcePath": "/home/vishnu/latest-blockchain/contracts/MyToken.sol",
  "compiler": {
    "name": "solc",
    "version": "0.8.18+commit.87f61d96.Emscripten.clang"
  },
  "schemaVersion": "3.4.16",
  "updatedAt": "2024-04-13T14:04:30.413Z",
  "networkType": "ethereum",
  "devdoc": {
    "kind": "dev",
    "methods": {},
    "version": 1
  },
  "userdoc": {
    "kind": "user",
    "methods": {},
    "version": 1
  }
}