{
  "contractName": "simple",
  "abi": [
    {
      "anonymous": false,
      "inputs": [
        {
          "indexed": false,
          "internalType": "string",
          "name": "action",
          "type": "string"
        },
        {
          "indexed": false,
          "internalType": "uint256",
          "name": "value",
          "type": "uint256"
        }
      ],
      "name": "Message",
      "type": "event"
    },
    {
      "inputs": [],
      "name": "x",
      "outputs": [
        {
          "internalType": "uint256",
          "name": "",
          "type": "uint256"
        }
      ],
      "stateMutability": "view",
      "type": "function",
      "constant": true
    },
    {
      "inputs": [],
      "name": "incrementX",
      "outputs": [],
      "stateMutability": "nonpayable",
      "type": "function"
    },
    {
      "inputs": [],
      "name": "decrementX",
      "outputs": [],
      "stateMutability": "nonpayable",
      "type": "function"
    }
  ],
  "bytecode": "0x608060405234801561001057600080fd5b506103fe806100206000396000f3fe608060405234801561001057600080fd5b506004361061005e576000357c0100000000000000000000000000000000000000000000000000000000900480630c55699c1461006357806340f006be146100815780639e48a1711461008b575b600080fd5b61006b610095565b604051610078919061019c565b60405180910390f35b61008961009b565b005b6100936100ed565b005b60005481565b6000808154809291906100ad906101e6565b91905055507f36e0c9dbcd34d231cafa0ac14a2b11c4ada79bee352749417d025c5ec87ed1fd6000546040516100e3919061028b565b60405180910390a1565b6000805411610131576040517f08c379a000000000000000000000000000000000000000000000000000000000815260040161012890610305565b60405180910390fd5b60008081548092919061014390610325565b91905055507f36e0c9dbcd34d231cafa0ac14a2b11c4ada79bee352749417d025c5ec87ed1fd600054604051610179919061039a565b60405180910390a1565b6000819050919050565b61019681610183565b82525050565b60006020820190506101b1600083018461018d565b92915050565b7f4e487b7100000000000000000000000000000000000000000000000000000000600052601160045260246000fd5b60006101f182610183565b91507fffffffffffffffffffffffffffffffffffffffffffffffffffffffffffffffff8203610223576102226101b7565b5b600182019050919050565b600082825260208201905092915050565b7f696e6372656d656e740000000000000000000000000000000000000000000000600082015250565b600061027560098361022e565b91506102808261023f565b602082019050919050565b600060408201905081810360008301526102a481610268565b90506102b3602083018461018d565b92915050565b7f43616e6e6f742064656372656d656e742062656c6f77207a65726f0000000000600082015250565b60006102ef601b8361022e565b91506102fa826102b9565b602082019050919050565b6000602082019050818103600083015261031e816102e2565b9050919050565b600061033082610183565b915060008203610343576103426101b7565b5b600182039050919050565b7f64656372656d656e740000000000000000000000000000000000000000000000600082015250565b600061038460098361022e565b915061038f8261034e565b602082019050919050565b600060408201905081810360008301526103b381610377565b90506103c2602083018461018d565b9291505056fea2646970667358221220fcdad85953e1dcb0d43e39064ec0dfcf542281b27f302ddc35a52f52b760870d64736f6c63430008120033",
  "immutableReferences": {},
  "source": "// SPDX-License-Identifier: MIT\npragma solidity ^0.8.18;\n\n\n\ncontract simple {\n    uint public x;\n    event Message(string action, uint value);\n\n    function incrementX() public {\n        x++;\n        emit Message(\"increment\", x);\n    }\n\n    function decrementX() public {\n        require(x > 0, \"Cannot decrement below zero\");\n        x--;\n        emit Message(\"decrement\", x);\n    }\n}\n",
  "sourcePath": "/home/vishnu/Ethereum/contracts/simple.sol",
  "compiler": {
    "name": "solc",
    "version": "0.8.18+commit.87f61d96.Linux.g++"
  },
  "schemaVersion": "3.4.16",
  "updatedAt": "2024-03-31T22:05:06.233Z",
  "networkType": "ethereum",
  "devdoc": {
    "kind": "dev",
    "methods": {},
    "version": 1
  },
  "userdoc": {
    "kind": "user",
    "methods": {},
    "version": 1
  }
}