{
  "contractName": "TokenSale",
  "abi": [
    {
      "inputs": [
        {
          "internalType": "contract MyToken",
          "name": "_tokenContract",
          "type": "address"
        },
        {
          "internalType": "uint256",
          "name": "_initialSupply",
          "type": "uint256"
        }
      ],
      "stateMutability": "nonpayable",
      "type": "constructor"
    },
    {
      "anonymous": false,
      "inputs": [
        {
          "indexed": true,
          "internalType": "address",
          "name": "owner",
          "type": "address"
        },
        {
          "indexed": true,
          "internalType": "address",
          "name": "spender",
          "type": "address"
        },
        {
          "indexed": false,
          "internalType": "uint256",
          "name": "value",
          "type": "uint256"
        }
      ],
      "name": "Approval",
      "type": "event"
    },
    {
      "anonymous": false,
      "inputs": [
        {
          "indexed": true,
          "internalType": "address",
          "name": "addr",
          "type": "address"
        },
        {
          "indexed": false,
          "internalType": "string",
          "name": "name",
          "type": "string"
        }
      ],
      "name": "CommissionerAdded",
      "type": "event"
    },
    {
      "anonymous": false,
      "inputs": [
        {
          "indexed": false,
          "internalType": "address",
          "name": "from",
          "type": "address"
        },
        {
          "indexed": false,
          "internalType": "uint256",
          "name": "_amount",
          "type": "uint256"
        }
      ],
      "name": "Sell",
      "type": "event"
    },
    {
      "anonymous": false,
      "inputs": [
        {
          "indexed": true,
          "internalType": "address",
          "name": "from",
          "type": "address"
        },
        {
          "indexed": true,
          "internalType": "address",
          "name": "to",
          "type": "address"
        },
        {
          "indexed": false,
          "internalType": "uint256",
          "name": "value",
          "type": "uint256"
        }
      ],
      "name": "Transfer",
      "type": "event"
    },
    {
      "anonymous": false,
      "inputs": [
        {
          "indexed": true,
          "internalType": "address",
          "name": "recipient",
          "type": "address"
        },
        {
          "indexed": false,
          "internalType": "uint8",
          "name": "numberOfTokens",
          "type": "uint8"
        },
        {
          "indexed": false,
          "internalType": "string",
          "name": "reason",
          "type": "string"
        }
      ],
      "name": "TransferFailed",
      "type": "event"
    },
    {
      "stateMutability": "payable",
      "type": "fallback",
      "payable": true
    },
    {
      "inputs": [],
      "name": "admin",
      "outputs": [
        {
          "internalType": "address",
          "name": "",
          "type": "address"
        }
      ],
      "stateMutability": "view",
      "type": "function",
      "constant": true
    },
    {
      "inputs": [
        {
          "internalType": "address",
          "name": "_to",
          "type": "address"
        },
        {
          "internalType": "uint256",
          "name": "_value",
          "type": "uint256"
        }
      ],
      "name": "adminTransfer",
      "outputs": [
        {
          "internalType": "bool",
          "name": "success",
          "type": "bool"
        }
      ],
      "stateMutability": "nonpayable",
      "type": "function"
    },
    {
      "inputs": [
        {
          "internalType": "address",
          "name": "",
          "type": "address"
        },
        {
          "internalType": "address",
          "name": "",
          "type": "address"
        }
      ],
      "name": "allowance",
      "outputs": [
        {
          "internalType": "uint256",
          "name": "",
          "type": "uint256"
        }
      ],
      "stateMutability": "view",
      "type": "function",
      "constant": true
    },
    {
      "inputs": [
        {
          "internalType": "address",
          "name": "_spender",
          "type": "address"
        },
        {
          "internalType": "uint256",
          "name": "_value",
          "type": "uint256"
        }
      ],
      "name": "approve",
      "outputs": [
        {
          "internalType": "bool",
          "name": "success",
          "type": "bool"
        }
      ],
      "stateMutability": "nonpayable",
      "type": "function"
    },
    {
      "inputs": [
        {
          "internalType": "address",
          "name": "",
          "type": "address"
        }
      ],
      "name": "balanceOf",
      "outputs": [
        {
          "internalType": "uint256",
          "name": "",
          "type": "uint256"
        }
      ],
      "stateMutability": "view",
      "type": "function",
      "constant": true
    },
    {
      "inputs": [
        {
          "internalType": "uint256",
          "name": "value",
          "type": "uint256"
        }
      ],
      "name": "calculateTip",
      "outputs": [
        {
          "internalType": "uint256",
          "name": "tip",
          "type": "uint256"
        }
      ],
      "stateMutability": "pure",
      "type": "function",
      "constant": true
    },
    {
      "inputs": [
        {
          "internalType": "address",
          "name": "",
          "type": "address"
        }
      ],
      "name": "commissioners",
      "outputs": [
        {
          "internalType": "address",
          "name": "addr",
          "type": "address"
        },
        {
          "internalType": "enum TokenSale.CommissionStatus",
          "name": "status",
          "type": "uint8"
        },
        {
          "internalType": "uint256",
          "name": "commissionAmount",
          "type": "uint256"
        }
      ],
      "stateMutability": "view",
      "type": "function",
      "constant": true
    },
    {
      "inputs": [
        {
          "internalType": "uint8",
          "name": "x",
          "type": "uint8"
        },
        {
          "internalType": "uint256",
          "name": "y",
          "type": "uint256"
        }
      ],
      "name": "multiply",
      "outputs": [
        {
          "internalType": "uint256",
          "name": "z",
          "type": "uint256"
        }
      ],
      "stateMutability": "pure",
      "type": "function",
      "constant": true
    },
    {
      "inputs": [],
      "name": "name",
      "outputs": [
        {
          "internalType": "string",
          "name": "",
          "type": "string"
        }
      ],
      "stateMutability": "view",
      "type": "function",
      "constant": true
    },
    {
      "inputs": [
        {
          "internalType": "uint256",
          "name": "",
          "type": "uint256"
        }
      ],
      "name": "owners",
      "outputs": [
        {
          "internalType": "address",
          "name": "",
          "type": "address"
        }
      ],
      "stateMutability": "view",
      "type": "function",
      "constant": true
    },
    {
      "inputs": [],
      "name": "standard",
      "outputs": [
        {
          "internalType": "string",
          "name": "",
          "type": "string"
        }
      ],
      "stateMutability": "view",
      "type": "function",
      "constant": true
    },
    {
      "inputs": [],
      "name": "symbol",
      "outputs": [
        {
          "internalType": "string",
          "name": "",
          "type": "string"
        }
      ],
      "stateMutability": "view",
      "type": "function",
      "constant": true
    },
    {
      "inputs": [],
      "name": "tokenContract",
      "outputs": [
        {
          "internalType": "contract MyToken",
          "name": "",
          "type": "address"
        }
      ],
      "stateMutability": "view",
      "type": "function",
      "constant": true
    },
    {
      "inputs": [],
      "name": "tokenPrice",
      "outputs": [
        {
          "internalType": "uint256",
          "name": "",
          "type": "uint256"
        }
      ],
      "stateMutability": "view",
      "type": "function",
      "constant": true
    },
    {
      "inputs": [],
      "name": "tokenSold",
      "outputs": [
        {
          "internalType": "uint8",
          "name": "",
          "type": "uint8"
        }
      ],
      "stateMutability": "view",
      "type": "function",
      "constant": true
    },
    {
      "inputs": [],
      "name": "totalSupply",
      "outputs": [
        {
          "internalType": "uint256",
          "name": "",
          "type": "uint256"
        }
      ],
      "stateMutability": "view",
      "type": "function",
      "constant": true
    },
    {
      "inputs": [
        {
          "internalType": "address",
          "name": "_to",
          "type": "address"
        },
        {
          "internalType": "uint256",
          "name": "_value",
          "type": "uint256"
        }
      ],
      "name": "transfer",
      "outputs": [
        {
          "internalType": "bool",
          "name": "success",
          "type": "bool"
        }
      ],
      "stateMutability": "nonpayable",
      "type": "function"
    },
    {
      "inputs": [
        {
          "internalType": "address",
          "name": "_from",
          "type": "address"
        },
        {
          "internalType": "address",
          "name": "_to",
          "type": "address"
        },
        {
          "internalType": "uint256",
          "name": "_value",
          "type": "uint256"
        }
      ],
      "name": "transferFrom",
      "outputs": [
        {
          "internalType": "bool",
          "name": "success",
          "type": "bool"
        }
      ],
      "stateMutability": "nonpayable",
      "type": "function"
    },
    {
      "inputs": [
        {
          "internalType": "address",
          "name": "",
          "type": "address"
        },
        {
          "internalType": "address",
          "name": "",
          "type": "address"
        }
      ],
      "name": "validToken",
      "outputs": [
        {
          "internalType": "uint256",
          "name": "",
          "type": "uint256"
        }
      ],
      "stateMutability": "view",
      "type": "function",
      "constant": true
    },
    {
      "stateMutability": "payable",
      "type": "receive",
      "payable": true
    },
    {
      "inputs": [
        {
          "internalType": "uint256",
          "name": "_price",
          "type": "uint256"
        }
      ],
      "name": "setTokenPrice",
      "outputs": [],
      "stateMutability": "nonpayable",
      "type": "function"
    },
    {
      "inputs": [
        {
          "internalType": "address",
          "name": "_addr",
          "type": "address"
        },
        {
          "internalType": "string",
          "name": "_name",
          "type": "string"
        }
      ],
      "name": "addCommissioner",
      "outputs": [],
      "stateMutability": "nonpayable",
      "type": "function"
    },
    {
      "inputs": [
        {
          "internalType": "uint8",
          "name": "_numberOfTokens",
          "type": "uint8"
        }
      ],
      "name": "buyTokens",
      "outputs": [],
      "stateMutability": "payable",
      "type": "function",
      "payable": true
    },
    {
      "inputs": [],
      "name": "EndSale",
      "outputs": [],
      "stateMutability": "payable",
      "type": "function",
      "payable": true
    },
    {
      "inputs": [
        {
          "internalType": "address payable",
          "name": "_to",
          "type": "address"
        }
      ],
      "name": "sendEther",
      "outputs": [],
      "stateMutability": "payable",
      "type": "function",
      "payable": true
    },
    {
      "inputs": [
        {
          "internalType": "address",
          "name": "_from",
          "type": "address"
        },
        {
          "internalType": "address",
          "name": "_to",
          "type": "address"
        }
      ],
      "name": "transferToken",
      "outputs": [],
      "stateMutability": "payable",
      "type": "function",
      "payable": true
    }
  ],
  "bytecode": "0x60806040526040518060400160405280601381526020017f4d79546f6b656e2076657273696f6e20302e3100000000000000000000000000815250600090816200004a919062000515565b503480156200005857600080fd5b506040516200343b3803806200343b83398181016040528101906200007e9190620006ab565b8033600460006101000a81548173ffffffffffffffffffffffffffffffffffffffff021916908373ffffffffffffffffffffffffffffffffffffffff1602179055508060066000600460009054906101000a900473ffffffffffffffffffffffffffffffffffffffff1673ffffffffffffffffffffffffffffffffffffffff1673ffffffffffffffffffffffffffffffffffffffff16815260200190815260200160002081905550806001819055506040518060200160405280600460009054906101000a900473ffffffffffffffffffffffffffffffffffffffff1673ffffffffffffffffffffffffffffffffffffffff1673ffffffffffffffffffffffffffffffffffffffff1681525060029060016200019c929190620001e7565b505081600760006101000a81548173ffffffffffffffffffffffffffffffffffffffff021916908373ffffffffffffffffffffffffffffffffffffffff1602179055505050620006f2565b82805482825590600052602060002090810192821562000263579160200282015b82811115620002625782518260006101000a81548173ffffffffffffffffffffffffffffffffffffffff021916908373ffffffffffffffffffffffffffffffffffffffff1602179055509160200191906001019062000208565b5b50905062000272919062000276565b5090565b5b808211156200029157600081600090555060010162000277565b5090565b600081519050919050565b7f4e487b7100000000000000000000000000000000000000000000000000000000600052604160045260246000fd5b7f4e487b7100000000000000000000000000000000000000000000000000000000600052602260045260246000fd5b600060028204905060018216806200031757607f821691505b6020821081036200032d576200032c620002cf565b5b50919050565b60008190508160005260206000209050919050565b60006020601f8301049050919050565b60008160020a8302905092915050565b6000600883026200039a7fffffffffffffffffffffffffffffffffffffffffffffffffffffffffffffffff8262000358565b620003a6868362000358565b95508019841693508086168417925050509392505050565b6000819050919050565b6000819050919050565b6000620003f3620003ed620003e784620003be565b620003c8565b620003be565b9050919050565b6000819050919050565b6200040f83620003d2565b620004276200041e82620003fa565b84845462000368565b825550505050565b600090565b6200043e6200042f565b6200044b81848462000404565b505050565b5b8181101562000473576200046760008262000434565b60018101905062000451565b5050565b601f821115620004c2576200048c8162000333565b620004978462000348565b81016020851015620004a7578190505b620004bf620004b68562000348565b83018262000450565b50505b505050565b60008160020a8304905092915050565b6000620004ea60001984600802620004c7565b1980831691505092915050565b6000620005058383620004d7565b9150826002028217905092915050565b620005208262000295565b67ffffffffffffffff8111156200053c576200053b620002a0565b5b620005488254620002fe565b6200055582828562000477565b600060209050601f8311600181146200058d576000841562000578578287015190505b620005848582620004f7565b865550620005f4565b601f1984166200059d8662000333565b60005b82811015620005c757848901518255600182019150602085019450602081019050620005a0565b86831015620005e75784890151620005e3601f891682620004d7565b8355505b6001600288020188555050505b505050505050565b600080fd5b600073ffffffffffffffffffffffffffffffffffffffff82169050919050565b60006200062e8262000601565b9050919050565b6000620006428262000621565b9050919050565b620006548162000635565b81146200066057600080fd5b50565b600081519050620006748162000649565b92915050565b6200068581620003be565b81146200069157600080fd5b50565b600081519050620006a5816200067a565b92915050565b60008060408385031215620006c557620006c4620005fc565b5b6000620006d58582860162000663565b9250506020620006e88582860162000694565b9150509250929050565b612d3980620007026000396000f3fe608060405260043610610187576000357c0100000000000000000000000000000000000000000000000000000000900480636a61e5fc116100ee57806395d89b41116100a7578063dd62ed3e11610081578063dd62ed3e14610557578063f17e48ec14610594578063f851a440146105d1578063fc6e6633146105fc5761018e565b806395d89b41146104d3578063a9059cbb146104fe578063bba5b24e1461053b5761018e565b80636a61e5fc146103bc57806370a08231146103e5578063734c19ce1461042257806376b1dda3146104615780637ff9b5961461046b578063927c7dfd146104965761018e565b806348ae238f1161014057806348ae238f146102da57806348c981e2146102f6578063519ee19e1461031257806355a373d61461033d5780635a3b7e42146103685780636709581b146103935761018e565b8063025e7c271461019057806306fdde03146101cd578063095ea7b3146101f857806318160ddd1461023557806323b872dd14610260578063314eebf81461029d5761018e565b3661018e57005b005b34801561019c57600080fd5b506101b760048036038101906101b29190611e25565b610639565b6040516101c49190611e93565b60405180910390f35b3480156101d957600080fd5b506101e2610678565b6040516101ef9190611f3e565b60405180910390f35b34801561020457600080fd5b5061021f600480360381019061021a9190611f8c565b6106b1565b60405161022c9190611fe7565b60405180910390f35b34801561024157600080fd5b5061024a6107b5565b6040516102579190612011565b60405180910390f35b34801561026c57600080fd5b506102876004803603810190610282919061202c565b6107bb565b6040516102949190611fe7565b60405180910390f35b3480156102a957600080fd5b506102c460048036038101906102bf91906120b8565b610b66565b6040516102d19190612011565b60405180910390f35b6102f460048036038101906102ef91906120f8565b610ba3565b005b610310600480360381019061030b9190612176565b610d3a565b005b34801561031e57600080fd5b50610327611036565b60405161033491906121b2565b60405180910390f35b34801561034957600080fd5b50610352611049565b60405161035f919061222c565b60405180910390f35b34801561037457600080fd5b5061037d61106f565b60405161038a9190611f3e565b60405180910390f35b34801561039f57600080fd5b506103ba60048036038101906103b5919061237c565b6110fd565b005b3480156103c857600080fd5b506103e360048036038101906103de9190611e25565b6112d3565b005b3480156103f157600080fd5b5061040c600480360381019061040791906123d8565b61136d565b6040516104199190612011565b60405180910390f35b34801561042e57600080fd5b50610449600480360381019061044491906123d8565b611385565b6040516104589392919061247c565b60405180910390f35b6104696113dc565b005b34801561047757600080fd5b506104806115ed565b60405161048d9190612011565b60405180910390f35b3480156104a257600080fd5b506104bd60048036038101906104b891906120f8565b6115f3565b6040516104ca9190612011565b60405180910390f35b3480156104df57600080fd5b506104e8611618565b6040516104f59190611f3e565b60405180910390f35b34801561050a57600080fd5b5061052560048036038101906105209190611f8c565b611651565b6040516105329190611fe7565b60405180910390f35b610555600480360381019061055091906124b3565b6118a0565b005b34801561056357600080fd5b5061057e600480360381019061057991906120f8565b611ac0565b60405161058b9190612011565b60405180910390f35b3480156105a057600080fd5b506105bb60048036038101906105b69190611f8c565b611ae5565b6040516105c89190611fe7565b60405180910390f35b3480156105dd57600080fd5b506105e6611d9a565b6040516105f39190611e93565b60405180910390f35b34801561060857600080fd5b50610623600480360381019061061e9190611e25565b611dc0565b6040516106309190612011565b60405180910390f35b6002818154811061064957600080fd5b906000526020600020016000915054906101000a900473ffffffffffffffffffffffffffffffffffffffff1681565b6040518060400160405280600881526020017f4d7920546f6b656e00000000000000000000000000000000000000000000000081525081565b600081600560003373ffffffffffffffffffffffffffffffffffffffff1673ffffffffffffffffffffffffffffffffffffffff16815260200190815260200160002060008573ffffffffffffffffffffffffffffffffffffffff1673ffffffffffffffffffffffffffffffffffffffff168152602001908152602001600020600082825461073f919061250f565b925050819055508273ffffffffffffffffffffffffffffffffffffffff163373ffffffffffffffffffffffffffffffffffffffff167f8c5be1e5ebec7d5bd14f71427d1e84f3dd0314c0f7b2291e5b200ac8c7c3b925846040516107a39190612011565b60405180910390a36001905092915050565b60015481565b6000600660008573ffffffffffffffffffffffffffffffffffffffff1673ffffffffffffffffffffffffffffffffffffffff1681526020019081526020016000205482111561083f576040517f08c379a00000000000000000000000000000000000000000000000000000000081526004016108369061258f565b60405180910390fd5b600560008573ffffffffffffffffffffffffffffffffffffffff1673ffffffffffffffffffffffffffffffffffffffff16815260200190815260200160002060003373ffffffffffffffffffffffffffffffffffffffff1673ffffffffffffffffffffffffffffffffffffffff168152602001908152602001600020548211156108fe576040517f08c379a00000000000000000000000000000000000000000000000000000000081526004016108f5906125fb565b60405180910390fd5b81600660008673ffffffffffffffffffffffffffffffffffffffff1673ffffffffffffffffffffffffffffffffffffffff168152602001908152602001600020600082825461094d919061261b565b9250508190555081600660008573ffffffffffffffffffffffffffffffffffffffff1673ffffffffffffffffffffffffffffffffffffffff16815260200190815260200160002060008282546109a3919061250f565b9250508190555081600560008673ffffffffffffffffffffffffffffffffffffffff1673ffffffffffffffffffffffffffffffffffffffff16815260200190815260200160002060003373ffffffffffffffffffffffffffffffffffffffff1673ffffffffffffffffffffffffffffffffffffffff1681526020019081526020016000206000828254610a36919061261b565b9250508190555081600360008573ffffffffffffffffffffffffffffffffffffffff1673ffffffffffffffffffffffffffffffffffffffff1681526020019081526020016000206000828254610a8c919061250f565b925050819055508273ffffffffffffffffffffffffffffffffffffffff168473ffffffffffffffffffffffffffffffffffffffff167fddf252ad1be2c89b69c2b068fc378daa952ba7f163c4a11628f55a4df523b3ef84604051610af09190612011565b60405180910390a36002839080600181540180825580915050600190039060005260206000200160009091909190916101000a81548173ffffffffffffffffffffffffffffffffffffffff021916908373ffffffffffffffffffffffffffffffffffffffff160217905550600190509392505050565b600080821480610b9457508260ff1682838560ff16610b85919061264f565b925082610b9291906126c0565b145b610b9d57600080fd5b92915050565b600a60003373ffffffffffffffffffffffffffffffffffffffff1673ffffffffffffffffffffffffffffffffffffffff16815260200190815260200160002060008273ffffffffffffffffffffffffffffffffffffffff1673ffffffffffffffffffffffffffffffffffffffff16815260200190815260200160002054600660008473ffffffffffffffffffffffffffffffffffffffff1673ffffffffffffffffffffffffffffffffffffffff168152602001908152602001600020541015610c6b57600080fd5b610cf28282600a60003373ffffffffffffffffffffffffffffffffffffffff1673ffffffffffffffffffffffffffffffffffffffff16815260200190815260200160002060008573ffffffffffffffffffffffffffffffffffffffff1673ffffffffffffffffffffffffffffffffffffffff168152602001908152602001600020546107bb565b610cff57610cfe6126f1565b5b6040517f08c379a0000000000000000000000000000000000000000000000000000000008152600401610d319061276c565b60405180910390fd5b6000808273ffffffffffffffffffffffffffffffffffffffff1634604051610d61906127bd565b60006040518083038185875af1925050503d8060008114610d9e576040519150601f19603f3d011682016040523d82523d6000602084013e610da3565b606091505b509150915081610de8576040517f08c379a0000000000000000000000000000000000000000000000000000000008152600401610ddf9061281e565b60405180910390fd5b60003411610df957610df86126f1565b5b6000610e0434611dc0565b90506000600b60008673ffffffffffffffffffffffffffffffffffffffff1673ffffffffffffffffffffffffffffffffffffffff1681526020019081526020016000206040518060600160405290816000820160009054906101000a900473ffffffffffffffffffffffffffffffffffffffff1673ffffffffffffffffffffffffffffffffffffffff1673ffffffffffffffffffffffffffffffffffffffff1681526020016000820160149054906101000a900460ff166001811115610ecd57610ecc612405565b5b6001811115610edf57610ede612405565b5b815260200160018201548152505090508181604001818151610f01919061250f565b9150818152505034821115610f4b576040517f08c379a0000000000000000000000000000000000000000000000000000000008152600401610f429061288a565b60405180910390fd5b60008234610f59919061261b565b9050600060085403610fa0576040517f08c379a0000000000000000000000000000000000000000000000000000000008152600401610f97906128f6565b60405180910390fd5b60085481610fae91906126c0565b600a60008873ffffffffffffffffffffffffffffffffffffffff1673ffffffffffffffffffffffffffffffffffffffff16815260200190815260200160002060003373ffffffffffffffffffffffffffffffffffffffff1673ffffffffffffffffffffffffffffffffffffffff16815260200190815260200160002081905550505050505050565b600960009054906101000a900460ff1681565b600760009054906101000a900473ffffffffffffffffffffffffffffffffffffffff1681565b6000805461107c90612945565b80601f01602080910402602001604051908101604052809291908181526020018280546110a890612945565b80156110f55780601f106110ca576101008083540402835291602001916110f5565b820191906000526020600020905b8154815290600101906020018083116110d857829003601f168201915b505050505081565b8173ffffffffffffffffffffffffffffffffffffffff16600b60008473ffffffffffffffffffffffffffffffffffffffff1673ffffffffffffffffffffffffffffffffffffffff16815260200190815260200160002060000160009054906101000a900473ffffffffffffffffffffffffffffffffffffffff1673ffffffffffffffffffffffffffffffffffffffff16146111cd576040517f08c379a00000000000000000000000000000000000000000000000000000000081526004016111c4906129c2565b60405180910390fd5b6000600b60008473ffffffffffffffffffffffffffffffffffffffff1673ffffffffffffffffffffffffffffffffffffffff1681526020019081526020016000209050828160000160006101000a81548173ffffffffffffffffffffffffffffffffffffffff021916908373ffffffffffffffffffffffffffffffffffffffff16021790555060018160000160146101000a81548160ff0219169083600181111561127b5761127a612405565b5b02179055508273ffffffffffffffffffffffffffffffffffffffff167fb3b66f6ec36f5a18c19fb47c41c7de712f946b9dba8566214ed8d01f2a6c89ad836040516112c69190611f3e565b60405180910390a2505050565b600460009054906101000a900473ffffffffffffffffffffffffffffffffffffffff1673ffffffffffffffffffffffffffffffffffffffff163373ffffffffffffffffffffffffffffffffffffffff1614611363576040517f08c379a000000000000000000000000000000000000000000000000000000000815260040161135a90612a2e565b60405180910390fd5b8060088190555050565b60066020528060005260406000206000915090505481565b600b6020528060005260406000206000915090508060000160009054906101000a900473ffffffffffffffffffffffffffffffffffffffff16908060000160149054906101000a900460ff16908060010154905083565b600460009054906101000a900473ffffffffffffffffffffffffffffffffffffffff1673ffffffffffffffffffffffffffffffffffffffff163373ffffffffffffffffffffffffffffffffffffffff161461146c576040517f08c379a000000000000000000000000000000000000000000000000000000000815260040161146390612a2e565b60405180910390fd5b600460009054906101000a900473ffffffffffffffffffffffffffffffffffffffff1673ffffffffffffffffffffffffffffffffffffffff163373ffffffffffffffffffffffffffffffffffffffff16146114c657600080fd5b6115a9600460009054906101000a900473ffffffffffffffffffffffffffffffffffffffff16600760009054906101000a900473ffffffffffffffffffffffffffffffffffffffff1673ffffffffffffffffffffffffffffffffffffffff166370a08231306040518263ffffffff167c01000000000000000000000000000000000000000000000000000000000281526004016115639190611e93565b602060405180830381865afa158015611580573d6000803e3d6000fd5b505050506040513d601f19601f820116820180604052508101906115a49190612a63565b611651565b6115b257600080fd5b6040517f08c379a00000000000000000000000000000000000000000000000000000000081526004016115e490612b02565b60405180910390fd5b60085481565b600a602052816000526040600020602052806000526040600020600091509150505481565b6040518060400160405280600381526020017f564953000000000000000000000000000000000000000000000000000000000081525081565b600081600660003373ffffffffffffffffffffffffffffffffffffffff1673ffffffffffffffffffffffffffffffffffffffff1681526020019081526020016000205410156116d5576040517f08c379a00000000000000000000000000000000000000000000000000000000081526004016116cc90612b6e565b60405180910390fd5b8160066000600460009054906101000a900473ffffffffffffffffffffffffffffffffffffffff1673ffffffffffffffffffffffffffffffffffffffff1673ffffffffffffffffffffffffffffffffffffffff16815260200190815260200160002054611742919061261b565b600660003373ffffffffffffffffffffffffffffffffffffffff1673ffffffffffffffffffffffffffffffffffffffff1681526020019081526020016000208190555081600660008573ffffffffffffffffffffffffffffffffffffffff1673ffffffffffffffffffffffffffffffffffffffff16815260200190815260200160002060008282546117d4919061250f565b925050819055508273ffffffffffffffffffffffffffffffffffffffff163373ffffffffffffffffffffffffffffffffffffffff167fddf252ad1be2c89b69c2b068fc378daa952ba7f163c4a11628f55a4df523b3ef846040516118389190612011565b60405180910390a381600360008573ffffffffffffffffffffffffffffffffffffffff1673ffffffffffffffffffffffffffffffffffffffff168152602001908152602001600020600082825461188f919061250f565b925050819055506001905092915050565b60006118ae82600854610b66565b90508034146118f2576040517f08c379a00000000000000000000000000000000000000000000000000000000081526004016118e990612bda565b60405180910390fd5b8160ff1660066000600460009054906101000a900473ffffffffffffffffffffffffffffffffffffffff1673ffffffffffffffffffffffffffffffffffffffff1673ffffffffffffffffffffffffffffffffffffffff168152602001908152602001600020541015611999576040517f08c379a00000000000000000000000000000000000000000000000000000000081526004016119909061258f565b60405180910390fd5b60006119a8338460ff16611ae5565b905080611a4b573373ffffffffffffffffffffffffffffffffffffffff166108fc349081150290604051600060405180830381858888f193505050501580156119f5573d6000803e3d6000fd5b503373ffffffffffffffffffffffffffffffffffffffff167fc82756bf4321c2d60a4abaee27ed03cea842ebb97fc81c54f5c59e63e96cfb0f84604051611a3c9190612c46565b60405180910390a25050611abd565b82600960008282829054906101000a900460ff16611a699190612c74565b92506101000a81548160ff021916908360ff1602179055507f5e5e995ce3133561afceaa51a9a154d5db228cd7525d34df5185582c18d3df093384604051611ab2929190612cda565b60405180910390a150505b50565b6005602052816000526040600020602052806000526040600020600091509150505481565b60008160066000600460009054906101000a900473ffffffffffffffffffffffffffffffffffffffff1673ffffffffffffffffffffffffffffffffffffffff1673ffffffffffffffffffffffffffffffffffffffff168152602001908152602001600020541015611b8b576040517f08c379a0000000000000000000000000000000000000000000000000000000008152600401611b8290612b6e565b60405180910390fd5b8160066000600460009054906101000a900473ffffffffffffffffffffffffffffffffffffffff1673ffffffffffffffffffffffffffffffffffffffff1673ffffffffffffffffffffffffffffffffffffffff16815260200190815260200160002054611bf8919061261b565b60066000600460009054906101000a900473ffffffffffffffffffffffffffffffffffffffff1673ffffffffffffffffffffffffffffffffffffffff1673ffffffffffffffffffffffffffffffffffffffff1681526020019081526020016000208190555081600660008573ffffffffffffffffffffffffffffffffffffffff1673ffffffffffffffffffffffffffffffffffffffff1681526020019081526020016000206000828254611cac919061250f565b925050819055508273ffffffffffffffffffffffffffffffffffffffff16600460009054906101000a900473ffffffffffffffffffffffffffffffffffffffff1673ffffffffffffffffffffffffffffffffffffffff167fddf252ad1be2c89b69c2b068fc378daa952ba7f163c4a11628f55a4df523b3ef84604051611d329190612011565b60405180910390a381600360008573ffffffffffffffffffffffffffffffffffffffff1673ffffffffffffffffffffffffffffffffffffffff1681526020019081526020016000206000828254611d89919061250f565b925050819055506001905092915050565b600460009054906101000a900473ffffffffffffffffffffffffffffffffffffffff1681565b600080600a83611dd091906126c0565b905080915050919050565b6000604051905090565b600080fd5b600080fd5b6000819050919050565b611e0281611def565b8114611e0d57600080fd5b50565b600081359050611e1f81611df9565b92915050565b600060208284031215611e3b57611e3a611de5565b5b6000611e4984828501611e10565b91505092915050565b600073ffffffffffffffffffffffffffffffffffffffff82169050919050565b6000611e7d82611e52565b9050919050565b611e8d81611e72565b82525050565b6000602082019050611ea86000830184611e84565b92915050565b600081519050919050565b600082825260208201905092915050565b60005b83811015611ee8578082015181840152602081019050611ecd565b60008484015250505050565b6000601f19601f8301169050919050565b6000611f1082611eae565b611f1a8185611eb9565b9350611f2a818560208601611eca565b611f3381611ef4565b840191505092915050565b60006020820190508181036000830152611f588184611f05565b905092915050565b611f6981611e72565b8114611f7457600080fd5b50565b600081359050611f8681611f60565b92915050565b60008060408385031215611fa357611fa2611de5565b5b6000611fb185828601611f77565b9250506020611fc285828601611e10565b9150509250929050565b60008115159050919050565b611fe181611fcc565b82525050565b6000602082019050611ffc6000830184611fd8565b92915050565b61200b81611def565b82525050565b60006020820190506120266000830184612002565b92915050565b60008060006060848603121561204557612044611de5565b5b600061205386828701611f77565b935050602061206486828701611f77565b925050604061207586828701611e10565b9150509250925092565b600060ff82169050919050565b6120958161207f565b81146120a057600080fd5b50565b6000813590506120b28161208c565b92915050565b600080604083850312156120cf576120ce611de5565b5b60006120dd858286016120a3565b92505060206120ee85828601611e10565b9150509250929050565b6000806040838503121561210f5761210e611de5565b5b600061211d85828601611f77565b925050602061212e85828601611f77565b9150509250929050565b600061214382611e52565b9050919050565b61215381612138565b811461215e57600080fd5b50565b6000813590506121708161214a565b92915050565b60006020828403121561218c5761218b611de5565b5b600061219a84828501612161565b91505092915050565b6121ac8161207f565b82525050565b60006020820190506121c760008301846121a3565b92915050565b6000819050919050565b60006121f26121ed6121e884611e52565b6121cd565b611e52565b9050919050565b6000612204826121d7565b9050919050565b6000612216826121f9565b9050919050565b6122268161220b565b82525050565b6000602082019050612241600083018461221d565b92915050565b600080fd5b600080fd5b7f4e487b7100000000000000000000000000000000000000000000000000000000600052604160045260246000fd5b61228982611ef4565b810181811067ffffffffffffffff821117156122a8576122a7612251565b5b80604052505050565b60006122bb611ddb565b90506122c78282612280565b919050565b600067ffffffffffffffff8211156122e7576122e6612251565b5b6122f082611ef4565b9050602081019050919050565b82818337600083830152505050565b600061231f61231a846122cc565b6122b1565b90508281526020810184848401111561233b5761233a61224c565b5b6123468482856122fd565b509392505050565b600082601f83011261236357612362612247565b5b813561237384826020860161230c565b91505092915050565b6000806040838503121561239357612392611de5565b5b60006123a185828601611f77565b925050602083013567ffffffffffffffff8111156123c2576123c1611dea565b5b6123ce8582860161234e565b9150509250929050565b6000602082840312156123ee576123ed611de5565b5b60006123fc84828501611f77565b91505092915050565b7f4e487b7100000000000000000000000000000000000000000000000000000000600052602160045260246000fd5b6002811061244557612444612405565b5b50565b600081905061245682612434565b919050565b600061246682612448565b9050919050565b6124768161245b565b82525050565b60006060820190506124916000830186611e84565b61249e602083018561246d565b6124ab6040830184612002565b949350505050565b6000602082840312156124c9576124c8611de5565b5b60006124d7848285016120a3565b91505092915050565b7f4e487b7100000000000000000000000000000000000000000000000000000000600052601160045260246000fd5b600061251a82611def565b915061252583611def565b925082820190508082111561253d5761253c6124e0565b5b92915050565b7f496e73756666696369656e742062616c616e6365000000000000000000000000600082015250565b6000612579601483611eb9565b915061258482612543565b602082019050919050565b600060208201905081810360008301526125a88161256c565b9050919050565b7f416c6c6f77616e63652065786365656465640000000000000000000000000000600082015250565b60006125e5601283611eb9565b91506125f0826125af565b602082019050919050565b60006020820190508181036000830152612614816125d8565b9050919050565b600061262682611def565b915061263183611def565b9250828203905081811115612649576126486124e0565b5b92915050565b600061265a82611def565b915061266583611def565b925082820261267381611def565b9150828204841483151761268a576126896124e0565b5b5092915050565b7f4e487b7100000000000000000000000000000000000000000000000000000000600052601260045260246000fd5b60006126cb82611def565b91506126d683611def565b9250826126e6576126e5612691565b5b828204905092915050565b7f4e487b7100000000000000000000000000000000000000000000000000000000600052600160045260246000fd5b7f4661696c656420746f207472616e7366657220746f6b656e7300000000000000600082015250565b6000612756601983611eb9565b915061276182612720565b602082019050919050565b6000602082019050818103600083015261278581612749565b9050919050565b600081905092915050565b50565b60006127a760008361278c565b91506127b282612797565b600082019050919050565b60006127c88261279a565b9150819050919050565b7f4661696c656420746f2073656e64204574686572000000000000000000000000600082015250565b6000612808601483611eb9565b9150612813826127d2565b602082019050919050565b60006020820190508181036000830152612837816127fb565b9050919050565b7f5469702065786365656473206d6573736167652076616c756500000000000000600082015250565b6000612874601983611eb9565b915061287f8261283e565b602082019050919050565b600060208201905081810360008301526128a381612867565b9050919050565b7f546f6b656e2070726963652063616e6e6f74206265207a65726f000000000000600082015250565b60006128e0601a83611eb9565b91506128eb826128aa565b602082019050919050565b6000602082019050818103600083015261290f816128d3565b9050919050565b7f4e487b7100000000000000000000000000000000000000000000000000000000600052602260045260246000fd5b6000600282049050600182168061295d57607f821691505b6020821081036129705761296f612916565b5b50919050565b7f436f6d6d697373696f6e657220616c7265616479206578697374730000000000600082015250565b60006129ac601b83611eb9565b91506129b782612976565b602082019050919050565b600060208201905081810360008301526129db8161299f565b9050919050565b7f41646d696e2063616e206f6e6c7920646f2074686973206f7065726174696f6e600082015250565b6000612a18602083611eb9565b9150612a23826129e2565b602082019050919050565b60006020820190508181036000830152612a4781612a0b565b9050919050565b600081519050612a5d81611df9565b92915050565b600060208284031215612a7957612a78611de5565b5b6000612a8784828501612a4e565b91505092915050565b7f4661696c656420746f207472616e736665722072656d61696e696e6720746f6b60008201527f656e7320746f2061646d696e0000000000000000000000000000000000000000602082015250565b6000612aec602c83611eb9565b9150612af782612a90565b604082019050919050565b60006020820190508181036000830152612b1b81612adf565b9050919050565b7f696e73756666696369656e742062616c616e6365737373000000000000000000600082015250565b6000612b58601783611eb9565b9150612b6382612b22565b602082019050919050565b60006020820190508181036000830152612b8781612b4b565b9050919050565b7f496e636f7272656374207061796d656e7420616d6f756e740000000000000000600082015250565b6000612bc4601883611eb9565b9150612bcf82612b8e565b602082019050919050565b60006020820190508181036000830152612bf381612bb7565b9050919050565b7f546f6b656e207472616e73666572206661696c65640000000000000000000000600082015250565b6000612c30601583611eb9565b9150612c3b82612bfa565b602082019050919050565b6000604082019050612c5b60008301846121a3565b8181036020830152612c6c81612c23565b905092915050565b6000612c7f8261207f565b9150612c8a8361207f565b9250828201905060ff811115612ca357612ca26124e0565b5b92915050565b6000612cc4612cbf612cba8461207f565b6121cd565b611def565b9050919050565b612cd481612ca9565b82525050565b6000604082019050612cef6000830185611e84565b612cfc6020830184612ccb565b939250505056fea26469706673582212209feff729bd40f4a7da00dff6de566b561558f60a7b5f324b3a2883aa58f8ec1364736f6c63430008120033",
  "immutableReferences": {},
  "source": "// SPDX-License-Identifier: MIT\npragma solidity ^0.8.18;\nimport './MyToken.sol';\nimport './ArithmeticOperations.sol';\n\n\ncontract TokenSale is MyToken,ArithmeticOperations{\n    // need to add aggrgation and composition\n    // 1 more class needed \n    // Optimised for    Gas\n    //polymorphic\n    // static and dynmic  modiiers\n    //use of structures and enums\n    // Balance None Pre-balanceOf transfer Post-balanceOf Correct Result\n   \n    \n    MyToken public tokenContract;\n    //In wei\n    uint256 public tokenPrice;\n    uint8 public tokenSold;\n    mapping(address=>mapping (address=> uint256)) public validToken;\n    event Sell(address from, uint256 _amount);\n    mapping(address => Commissioner) public commissioners;\n    event TransferFailed(address indexed recipient, uint8 numberOfTokens, string reason);\n\n\n    enum CommissionStatus { RECEIVED ,NOT_RECEIVED }\n    event CommissionerAdded(address indexed addr, string name);\n\n    \n    struct Commissioner {\n        address addr;\n        CommissionStatus status;\n        uint256 commissionAmount;\n    }\n    constructor(MyToken _tokenContract,uint256 _initialSupply) MyToken(_initialSupply) {\n            tokenContract = _tokenContract;\n    } \n\n\n    function setTokenPrice(uint256  _price) public onlyAdmin{\n        tokenPrice = _price ;\n    }\n\n\n\n     function addCommissioner(address _addr, string memory _name) external {\n        require(commissioners[_addr].addr == _addr, \"Commissioner already exists\");\n        Commissioner storage newCommissioner = commissioners[_addr];\n        newCommissioner.addr = _addr;\n        newCommissioner.status = CommissionStatus.NOT_RECEIVED;\n        emit CommissionerAdded(_addr, _name);\n    }\n   \n    function buyTokens(uint8 _numberOfTokens) public payable {\n        uint256 totalPrice = multiply(_numberOfTokens, tokenPrice);\n        require(msg.value == totalPrice, \"Incorrect payment amount\");\n        require(balanceOf[admin] >= _numberOfTokens, \"Insufficient balance\");\n\n        bool transferSuccessful = adminTransfer(msg.sender, _numberOfTokens);\n        if (!transferSuccessful) {\n                // Refund the buyer if the transfer fails\n                payable(msg.sender).transfer(msg.value);\n                // Emit the failure event with a reason\n                emit TransferFailed(msg.sender , _numberOfTokens, \"Token transfer failed\");\n                return;\n            }\n\n            tokenSold += _numberOfTokens;\n            emit Sell(msg.sender, _numberOfTokens);\n    }\n\n      \n    \n\n\n    function EndSale() public payable onlyAdmin(){\n        require(msg.sender == admin);\n        // require(balanceOf[admin] >= _numberOfToken,\"failed due to insuffficient balance\");\n        require(transfer(admin,tokenContract.balanceOf(address(this))));\n         revert(\"Failed to transfer remaining tokens to admin\");\n    }\n    \n    function sendEther(address payable _to) public payable{\n        // call function is used\n        (bool sent ,bytes memory data) = _to.call{value:msg.value}(\"\");\n        require(sent,\"Failed to send Ether\");\n        assert(msg.value>0);\n        uint256 _tip = calculateTip(msg.value);\n        Commissioner memory _commissioner =commissioners[_to] ;\n        _commissioner.commissionAmount +=_tip; \n        require(_tip <= msg.value, \"Tip exceeds message value\");\n        uint256 _value =msg.value - _tip;\n        require(tokenPrice != 0, \"Token price cannot be zero\");\n        validToken[_to][msg.sender] = uint256((_value)/tokenPrice);\n    }\n\n\n\n\n\n    function transferToken(address _from,address _to) public payable{\n        require(balanceOf[_from] >= validToken[msg.sender][_to]);\n        assert(transferFrom(_from, _to, validToken[msg.sender][_to]));\n        // emit Transfer(_from, _to, validToken[msg.sender][_to]);\n        revert(\"Failed to transfer tokens\");\n\n\n    }\n\n    receive() external payable{}\n    fallback() external payable{}\n\n} ",
  "sourcePath": "/home/vishnu/latest-blockchain/contracts/ToekenSale.sol",
  "compiler": {
    "name": "solc",
    "version": "0.8.18+commit.87f61d96.Emscripten.clang"
  },
  "schemaVersion": "3.4.16",
  "updatedAt": "2024-04-13T21:35:14.047Z",
  "networkType": "ethereum",
  "devdoc": {
    "kind": "dev",
    "methods": {},
    "version": 1
  },
  "userdoc": {
    "kind": "user",
    "methods": {},
    "version": 1
  }
}