{
  "contractName": "TokenSale",
  "abi": [
    {
      "inputs": [
        {
          "internalType": "contract MyToken",
          "name": "_tokenContract",
          "type": "address"
        },
        {
          "internalType": "uint256",
          "name": "_initialSupply",
          "type": "uint256"
        }
      ],
      "stateMutability": "nonpayable",
      "type": "constructor"
    },
    {
      "anonymous": false,
      "inputs": [
        {
          "indexed": true,
          "internalType": "address",
          "name": "owner",
          "type": "address"
        },
        {
          "indexed": true,
          "internalType": "address",
          "name": "spender",
          "type": "address"
        },
        {
          "indexed": false,
          "internalType": "uint256",
          "name": "value",
          "type": "uint256"
        }
      ],
      "name": "Approval",
      "type": "event"
    },
    {
      "anonymous": false,
      "inputs": [
        {
          "indexed": false,
          "internalType": "address",
          "name": "from",
          "type": "address"
        },
        {
          "indexed": false,
          "internalType": "uint256",
          "name": "_amount",
          "type": "uint256"
        }
      ],
      "name": "Sell",
      "type": "event"
    },
    {
      "anonymous": false,
      "inputs": [
        {
          "indexed": true,
          "internalType": "address",
          "name": "from",
          "type": "address"
        },
        {
          "indexed": true,
          "internalType": "address",
          "name": "to",
          "type": "address"
        },
        {
          "indexed": false,
          "internalType": "uint256",
          "name": "value",
          "type": "uint256"
        }
      ],
      "name": "Transfer",
      "type": "event"
    },
    {
      "inputs": [],
      "name": "admin",
      "outputs": [
        {
          "internalType": "address",
          "name": "",
          "type": "address"
        }
      ],
      "stateMutability": "view",
      "type": "function",
      "constant": true
    },
    {
      "inputs": [
        {
          "internalType": "address",
          "name": "",
          "type": "address"
        },
        {
          "internalType": "address",
          "name": "",
          "type": "address"
        }
      ],
      "name": "allowance",
      "outputs": [
        {
          "internalType": "uint256",
          "name": "",
          "type": "uint256"
        }
      ],
      "stateMutability": "view",
      "type": "function",
      "constant": true
    },
    {
      "inputs": [
        {
          "internalType": "address",
          "name": "_spender",
          "type": "address"
        },
        {
          "internalType": "uint256",
          "name": "_value",
          "type": "uint256"
        }
      ],
      "name": "approve",
      "outputs": [
        {
          "internalType": "bool",
          "name": "success",
          "type": "bool"
        }
      ],
      "stateMutability": "nonpayable",
      "type": "function"
    },
    {
      "inputs": [
        {
          "internalType": "address",
          "name": "",
          "type": "address"
        }
      ],
      "name": "balanceOf",
      "outputs": [
        {
          "internalType": "uint256",
          "name": "",
          "type": "uint256"
        }
      ],
      "stateMutability": "view",
      "type": "function",
      "constant": true
    },
    {
      "inputs": [],
      "name": "name",
      "outputs": [
        {
          "internalType": "string",
          "name": "",
          "type": "string"
        }
      ],
      "stateMutability": "view",
      "type": "function",
      "constant": true
    },
    {
      "inputs": [],
      "name": "owner",
      "outputs": [
        {
          "internalType": "address",
          "name": "",
          "type": "address"
        }
      ],
      "stateMutability": "view",
      "type": "function",
      "constant": true
    },
    {
      "inputs": [],
      "name": "standard",
      "outputs": [
        {
          "internalType": "string",
          "name": "",
          "type": "string"
        }
      ],
      "stateMutability": "view",
      "type": "function",
      "constant": true
    },
    {
      "inputs": [],
      "name": "symbol",
      "outputs": [
        {
          "internalType": "string",
          "name": "",
          "type": "string"
        }
      ],
      "stateMutability": "view",
      "type": "function",
      "constant": true
    },
    {
      "inputs": [],
      "name": "tokenContract",
      "outputs": [
        {
          "internalType": "contract MyToken",
          "name": "",
          "type": "address"
        }
      ],
      "stateMutability": "view",
      "type": "function",
      "constant": true
    },
    {
      "inputs": [],
      "name": "tokenPrice",
      "outputs": [
        {
          "internalType": "uint256",
          "name": "",
          "type": "uint256"
        }
      ],
      "stateMutability": "view",
      "type": "function",
      "constant": true
    },
    {
      "inputs": [],
      "name": "tokenSold",
      "outputs": [
        {
          "internalType": "uint256",
          "name": "",
          "type": "uint256"
        }
      ],
      "stateMutability": "view",
      "type": "function",
      "constant": true
    },
    {
      "inputs": [],
      "name": "totalSupply",
      "outputs": [
        {
          "internalType": "uint256",
          "name": "",
          "type": "uint256"
        }
      ],
      "stateMutability": "view",
      "type": "function",
      "constant": true
    },
    {
      "inputs": [
        {
          "internalType": "address",
          "name": "_to",
          "type": "address"
        },
        {
          "internalType": "uint256",
          "name": "_value",
          "type": "uint256"
        }
      ],
      "name": "transfer",
      "outputs": [
        {
          "internalType": "bool",
          "name": "success",
          "type": "bool"
        }
      ],
      "stateMutability": "nonpayable",
      "type": "function"
    },
    {
      "inputs": [
        {
          "internalType": "address",
          "name": "_from",
          "type": "address"
        },
        {
          "internalType": "address",
          "name": "_to",
          "type": "address"
        },
        {
          "internalType": "uint256",
          "name": "_value",
          "type": "uint256"
        }
      ],
      "name": "transferFrom",
      "outputs": [
        {
          "internalType": "bool",
          "name": "success",
          "type": "bool"
        }
      ],
      "stateMutability": "nonpayable",
      "type": "function"
    },
    {
      "inputs": [
        {
          "internalType": "uint256",
          "name": "_price",
          "type": "uint256"
        }
      ],
      "name": "setTokenPrice",
      "outputs": [],
      "stateMutability": "nonpayable",
      "type": "function"
    },
    {
      "inputs": [
        {
          "internalType": "uint256",
          "name": "_numberOfToken",
          "type": "uint256"
        }
      ],
      "name": "buyTokens",
      "outputs": [],
      "stateMutability": "payable",
      "type": "function",
      "payable": true
    }
  ],
  "bytecode": "0x60806040526040518060400160405280600881526020017f4d7920546f6b656e000000000000000000000000000000000000000000000000815250600090816200004a9190620004e8565b506040518060400160405280600381526020017f564953000000000000000000000000000000000000000000000000000000000081525060019081620000919190620004e8565b506040518060400160405280601381526020017f4d79546f6b656e2076657273696f6e20302e310000000000000000000000000081525060029081620000d89190620004e8565b50348015620000e657600080fd5b5060405162001dd238038062001dd283398181016040528101906200010c91906200067e565b8033600660006101000a81548173ffffffffffffffffffffffffffffffffffffffff021916908373ffffffffffffffffffffffffffffffffffffffff1602179055508060086000600660009054906101000a900473ffffffffffffffffffffffffffffffffffffffff1673ffffffffffffffffffffffffffffffffffffffff1673ffffffffffffffffffffffffffffffffffffffff1681526020019081526020016000208190555080600381905550600660009054906101000a900473ffffffffffffffffffffffffffffffffffffffff16600460006101000a81548173ffffffffffffffffffffffffffffffffffffffff021916908373ffffffffffffffffffffffffffffffffffffffff1602179055505081600960006101000a81548173ffffffffffffffffffffffffffffffffffffffff021916908373ffffffffffffffffffffffffffffffffffffffff1602179055505050620006c5565b600081519050919050565b7f4e487b7100000000000000000000000000000000000000000000000000000000600052604160045260246000fd5b7f4e487b7100000000000000000000000000000000000000000000000000000000600052602260045260246000fd5b60006002820490506001821680620002ea57607f821691505b6020821081036200030057620002ff620002a2565b5b50919050565b60008190508160005260206000209050919050565b60006020601f8301049050919050565b60008160020a8302905092915050565b6000600883026200036d7fffffffffffffffffffffffffffffffffffffffffffffffffffffffffffffffff826200032b565b6200037986836200032b565b95508019841693508086168417925050509392505050565b6000819050919050565b6000819050919050565b6000620003c6620003c0620003ba8462000391565b6200039b565b62000391565b9050919050565b6000819050919050565b620003e283620003a5565b620003fa620003f182620003cd565b8484546200033b565b825550505050565b600090565b6200041162000402565b6200041e818484620003d7565b505050565b5b8181101562000446576200043a60008262000407565b60018101905062000424565b5050565b601f82111562000495576200045f8162000306565b6200046a846200031b565b810160208510156200047a578190505b6200049262000489856200031b565b83018262000423565b50505b505050565b60008160020a8304905092915050565b6000620004bd600019846008026200049a565b1980831691505092915050565b6000620004d88383620004aa565b9150826002028217905092915050565b620004f38262000268565b67ffffffffffffffff8111156200050f576200050e62000273565b5b6200051b8254620002d1565b620005288282856200044a565b600060209050601f8311600181146200056057600084156200054b578287015190505b620005578582620004ca565b865550620005c7565b601f198416620005708662000306565b60005b828110156200059a5784890151825560018201915060208501945060208101905062000573565b86831015620005ba5784890151620005b6601f891682620004aa565b8355505b6001600288020188555050505b505050505050565b600080fd5b600073ffffffffffffffffffffffffffffffffffffffff82169050919050565b60006200060182620005d4565b9050919050565b60006200061582620005f4565b9050919050565b620006278162000608565b81146200063357600080fd5b50565b60008151905062000647816200061c565b92915050565b620006588162000391565b81146200066457600080fd5b50565b60008151905062000678816200064d565b92915050565b60008060408385031215620006985762000697620005cf565b5b6000620006a88582860162000636565b9250506020620006bb8582860162000667565b9150509250929050565b6116fd80620006d56000396000f3fe608060405260043610610110576000357c0100000000000000000000000000000000000000000000000000000000900480636a61e5fc116100a757806395d89b411161007657806395d89b411461033e578063a9059cbb14610369578063dd62ed3e146103a6578063f851a440146103e357610110565b80636a61e5fc1461028257806370a08231146102ab5780637ff9b596146102e85780638da5cb5b1461031357610110565b80633610724e116100e35780633610724e146101e5578063519ee19e1461020157806355a373d61461022c5780635a3b7e421461025757610110565b806306fdde0314610115578063095ea7b31461014057806318160ddd1461017d57806323b872dd146101a8575b600080fd5b34801561012157600080fd5b5061012a61040e565b6040516101379190610fd7565b60405180910390f35b34801561014c57600080fd5b5061016760048036038101906101629190611092565b61049c565b60405161017491906110ed565b60405180910390f35b34801561018957600080fd5b5061019261058e565b60405161019f9190611117565b60405180910390f35b3480156101b457600080fd5b506101cf60048036038101906101ca9190611132565b610594565b6040516101dc91906110ed565b60405180910390f35b6101ff60048036038101906101fa9190611185565b6108c7565b005b34801561020d57600080fd5b506102166109ea565b6040516102239190611117565b60405180910390f35b34801561023857600080fd5b506102416109f0565b60405161024e9190611211565b60405180910390f35b34801561026357600080fd5b5061026c610a16565b6040516102799190610fd7565b60405180910390f35b34801561028e57600080fd5b506102a960048036038101906102a49190611185565b610aa4565b005b3480156102b757600080fd5b506102d260048036038101906102cd919061122c565b610b3e565b6040516102df9190611117565b60405180910390f35b3480156102f457600080fd5b506102fd610b56565b60405161030a9190611117565b60405180910390f35b34801561031f57600080fd5b50610328610b5c565b6040516103359190611268565b60405180910390f35b34801561034a57600080fd5b50610353610b82565b6040516103609190610fd7565b60405180910390f35b34801561037557600080fd5b50610390600480360381019061038b9190611092565b610c10565b60405161039d91906110ed565b60405180910390f35b3480156103b257600080fd5b506103cd60048036038101906103c89190611283565b610ec5565b6040516103da9190611117565b60405180910390f35b3480156103ef57600080fd5b506103f8610eea565b6040516104059190611268565b60405180910390f35b6000805461041b906112f2565b80601f0160208091040260200160405190810160405280929190818152602001828054610447906112f2565b80156104945780601f1061046957610100808354040283529160200191610494565b820191906000526020600020905b81548152906001019060200180831161047757829003601f168201915b505050505081565b600081600760003373ffffffffffffffffffffffffffffffffffffffff1673ffffffffffffffffffffffffffffffffffffffff16815260200190815260200160002060008573ffffffffffffffffffffffffffffffffffffffff1673ffffffffffffffffffffffffffffffffffffffff168152602001908152602001600020819055508273ffffffffffffffffffffffffffffffffffffffff163373ffffffffffffffffffffffffffffffffffffffff167f8c5be1e5ebec7d5bd14f71427d1e84f3dd0314c0f7b2291e5b200ac8c7c3b9258460405161057c9190611117565b60405180910390a36001905092915050565b60035481565b6000600860008573ffffffffffffffffffffffffffffffffffffffff1673ffffffffffffffffffffffffffffffffffffffff16815260200190815260200160002054821115610618576040517f08c379a000000000000000000000000000000000000000000000000000000000815260040161060f9061136f565b60405180910390fd5b600760008573ffffffffffffffffffffffffffffffffffffffff1673ffffffffffffffffffffffffffffffffffffffff16815260200190815260200160002060003373ffffffffffffffffffffffffffffffffffffffff1673ffffffffffffffffffffffffffffffffffffffff168152602001908152602001600020548211156106d7576040517f08c379a00000000000000000000000000000000000000000000000000000000081526004016106ce906113db565b60405180910390fd5b81600860008673ffffffffffffffffffffffffffffffffffffffff1673ffffffffffffffffffffffffffffffffffffffff1681526020019081526020016000206000828254610726919061142a565b9250508190555081600860008573ffffffffffffffffffffffffffffffffffffffff1673ffffffffffffffffffffffffffffffffffffffff168152602001908152602001600020600082825461077c919061145e565b9250508190555081600760008673ffffffffffffffffffffffffffffffffffffffff1673ffffffffffffffffffffffffffffffffffffffff16815260200190815260200160002060003373ffffffffffffffffffffffffffffffffffffffff1673ffffffffffffffffffffffffffffffffffffffff168152602001908152602001600020600082825461080f919061142a565b925050819055508273ffffffffffffffffffffffffffffffffffffffff168473ffffffffffffffffffffffffffffffffffffffff167fddf252ad1be2c89b69c2b068fc378daa952ba7f163c4a11628f55a4df523b3ef846040516108739190611117565b60405180910390a382600460006101000a81548173ffffffffffffffffffffffffffffffffffffffff021916908373ffffffffffffffffffffffffffffffffffffffff160217905550600190509392505050565b6108d381600a54610f10565b34146108de57600080fd5b8060086000600660009054906101000a900473ffffffffffffffffffffffffffffffffffffffff1673ffffffffffffffffffffffffffffffffffffffff1673ffffffffffffffffffffffffffffffffffffffff168152602001908152602001600020541015610982576040517f08c379a000000000000000000000000000000000000000000000000000000000815260040161097990611504565b60405180910390fd5b61098c3382610c10565b61099557600080fd5b80600b60008282546109a7919061145e565b925050819055507f5e5e995ce3133561afceaa51a9a154d5db228cd7525d34df5185582c18d3df0933826040516109df929190611524565b60405180910390a150565b600b5481565b600960009054906101000a900473ffffffffffffffffffffffffffffffffffffffff1681565b60028054610a23906112f2565b80601f0160208091040260200160405190810160405280929190818152602001828054610a4f906112f2565b8015610a9c5780601f10610a7157610100808354040283529160200191610a9c565b820191906000526020600020905b815481529060010190602001808311610a7f57829003601f168201915b505050505081565b600660009054906101000a900473ffffffffffffffffffffffffffffffffffffffff1673ffffffffffffffffffffffffffffffffffffffff163373ffffffffffffffffffffffffffffffffffffffff1614610b34576040517f08c379a0000000000000000000000000000000000000000000000000000000008152600401610b2b90611599565b60405180910390fd5b80600a8190555050565b60086020528060005260406000206000915090505481565b600a5481565b600460009054906101000a900473ffffffffffffffffffffffffffffffffffffffff1681565b60018054610b8f906112f2565b80601f0160208091040260200160405190810160405280929190818152602001828054610bbb906112f2565b8015610c085780601f10610bdd57610100808354040283529160200191610c08565b820191906000526020600020905b815481529060010190602001808311610beb57829003601f168201915b505050505081565b60008160086000600660009054906101000a900473ffffffffffffffffffffffffffffffffffffffff1673ffffffffffffffffffffffffffffffffffffffff1673ffffffffffffffffffffffffffffffffffffffff168152602001908152602001600020541015610cb6576040517f08c379a0000000000000000000000000000000000000000000000000000000008152600401610cad90611605565b60405180910390fd5b8160086000600660009054906101000a900473ffffffffffffffffffffffffffffffffffffffff1673ffffffffffffffffffffffffffffffffffffffff1673ffffffffffffffffffffffffffffffffffffffff16815260200190815260200160002054610d23919061142a565b60086000600660009054906101000a900473ffffffffffffffffffffffffffffffffffffffff1673ffffffffffffffffffffffffffffffffffffffff1673ffffffffffffffffffffffffffffffffffffffff1681526020019081526020016000208190555081600860008573ffffffffffffffffffffffffffffffffffffffff1673ffffffffffffffffffffffffffffffffffffffff1681526020019081526020016000206000828254610dd7919061145e565b925050819055508273ffffffffffffffffffffffffffffffffffffffff16600660009054906101000a900473ffffffffffffffffffffffffffffffffffffffff1673ffffffffffffffffffffffffffffffffffffffff167fddf252ad1be2c89b69c2b068fc378daa952ba7f163c4a11628f55a4df523b3ef84604051610e5d9190611117565b60405180910390a381600560008573ffffffffffffffffffffffffffffffffffffffff1673ffffffffffffffffffffffffffffffffffffffff1681526020019081526020016000206000828254610eb4919061145e565b925050819055506001905092915050565b6007602052816000526040600020602052806000526040600020600091509150505481565b600660009054906101000a900473ffffffffffffffffffffffffffffffffffffffff1681565b600080821480610f38575082828385610f299190611625565b925082610f369190611696565b145b610f4157600080fd5b92915050565b600081519050919050565b600082825260208201905092915050565b60005b83811015610f81578082015181840152602081019050610f66565b60008484015250505050565b6000601f19601f8301169050919050565b6000610fa982610f47565b610fb38185610f52565b9350610fc3818560208601610f63565b610fcc81610f8d565b840191505092915050565b60006020820190508181036000830152610ff18184610f9e565b905092915050565b600080fd5b600073ffffffffffffffffffffffffffffffffffffffff82169050919050565b600061102982610ffe565b9050919050565b6110398161101e565b811461104457600080fd5b50565b60008135905061105681611030565b92915050565b6000819050919050565b61106f8161105c565b811461107a57600080fd5b50565b60008135905061108c81611066565b92915050565b600080604083850312156110a9576110a8610ff9565b5b60006110b785828601611047565b92505060206110c88582860161107d565b9150509250929050565b60008115159050919050565b6110e7816110d2565b82525050565b600060208201905061110260008301846110de565b92915050565b6111118161105c565b82525050565b600060208201905061112c6000830184611108565b92915050565b60008060006060848603121561114b5761114a610ff9565b5b600061115986828701611047565b935050602061116a86828701611047565b925050604061117b8682870161107d565b9150509250925092565b60006020828403121561119b5761119a610ff9565b5b60006111a98482850161107d565b91505092915050565b6000819050919050565b60006111d76111d26111cd84610ffe565b6111b2565b610ffe565b9050919050565b60006111e9826111bc565b9050919050565b60006111fb826111de565b9050919050565b61120b816111f0565b82525050565b60006020820190506112266000830184611202565b92915050565b60006020828403121561124257611241610ff9565b5b600061125084828501611047565b91505092915050565b6112628161101e565b82525050565b600060208201905061127d6000830184611259565b92915050565b6000806040838503121561129a57611299610ff9565b5b60006112a885828601611047565b92505060206112b985828601611047565b9150509250929050565b7f4e487b7100000000000000000000000000000000000000000000000000000000600052602260045260246000fd5b6000600282049050600182168061130a57607f821691505b60208210810361131d5761131c6112c3565b5b50919050565b7f496e73756666696369656e742062616c616e6365000000000000000000000000600082015250565b6000611359601483610f52565b915061136482611323565b602082019050919050565b600060208201905081810360008301526113888161134c565b9050919050565b7f416c6c6f77616e63652065786365656465640000000000000000000000000000600082015250565b60006113c5601283610f52565b91506113d08261138f565b602082019050919050565b600060208201905081810360008301526113f4816113b8565b9050919050565b7f4e487b7100000000000000000000000000000000000000000000000000000000600052601160045260246000fd5b60006114358261105c565b91506114408361105c565b9250828203905081811115611458576114576113fb565b5b92915050565b60006114698261105c565b91506114748361105c565b925082820190508082111561148c5761148b6113fb565b5b92915050565b7f6661696c65642064756520746f20696e7375666666696369656e742062616c6160008201527f6e63650000000000000000000000000000000000000000000000000000000000602082015250565b60006114ee602383610f52565b91506114f982611492565b604082019050919050565b6000602082019050818103600083015261151d816114e1565b9050919050565b60006040820190506115396000830185611259565b6115466020830184611108565b9392505050565b7f41646d696e2063616e206f6e6c7920646f2074686973206f7065726174696f6e600082015250565b6000611583602083610f52565b915061158e8261154d565b602082019050919050565b600060208201905081810360008301526115b281611576565b9050919050565b7f696e73756666696369656e742062616c616e6365737373000000000000000000600082015250565b60006115ef601783610f52565b91506115fa826115b9565b602082019050919050565b6000602082019050818103600083015261161e816115e2565b9050919050565b60006116308261105c565b915061163b8361105c565b92508282026116498161105c565b915082820484148315176116605761165f6113fb565b5b5092915050565b7f4e487b7100000000000000000000000000000000000000000000000000000000600052601260045260246000fd5b60006116a18261105c565b91506116ac8361105c565b9250826116bc576116bb611667565b5b82820490509291505056fea26469706673582212205532f4e56ea1a214355f840cfcfbb5ae66bccb32d098bf52a09bfbfb5a08f26764736f6c63430008120033",
  "immutableReferences": {},
  "source": "// SPDX-License-Identifier: MIT\npragma solidity ^0.8.18;\nimport './MyToken.sol';\ncontract TokenSale is MyToken{\n    MyToken public tokenContract;\n    //In wei\n    uint256 public tokenPrice;\n    uint256 public tokenSold;\n    event Sell(address from, uint256 _amount);\n    constructor(MyToken _tokenContract,uint256 _initialSupply) MyToken(_initialSupply) {\n            tokenContract = _tokenContract;\n    }   \n\n    function setTokenPrice(uint256  _price) public onlyAdmin{\n        tokenPrice = _price ;\n    }\n    function multiply(uint256 x, uint256 y) internal pure returns(uint256 z){\n        require(y==0 || (z=x*y)/y ==x);\n    }\n\n    function buyTokens(uint256 _numberOfToken) public payable{\n        require(msg.value == multiply(_numberOfToken,tokenPrice));\n        require(balanceOf[admin] >= _numberOfToken,\"failed due to insuffficient balance\");\n        require(transfer(msg.sender,_numberOfToken));\n\n        tokenSold+=_numberOfToken;\n        emit Sell(msg.sender,_numberOfToken);\n    }\n} ",
  "sourcePath": "/Users/busraates/Desktop/blockchainAssignment/contracts/ToekenSale.sol",
  "compiler": {
    "name": "solc",
    "version": "0.8.18+commit.87f61d96.Emscripten.clang"
  },
  "schemaVersion": "3.4.16",
  "updatedAt": "2024-04-07T20:47:42.270Z",
  "networkType": "ethereum",
  "devdoc": {
    "kind": "dev",
    "methods": {},
    "version": 1
  },
  "userdoc": {
    "kind": "user",
    "methods": {},
    "version": 1
  }
}