{
  "contractName": "TokenSale",
  "abi": [
    {
      "inputs": [
        {
          "internalType": "contract MyToken",
          "name": "_tokenContract",
          "type": "address"
        },
        {
          "internalType": "uint256",
          "name": "_initialSupply",
          "type": "uint256"
        }
      ],
      "stateMutability": "nonpayable",
      "type": "constructor"
    },
    {
      "anonymous": false,
      "inputs": [
        {
          "indexed": true,
          "internalType": "address",
          "name": "owner",
          "type": "address"
        },
        {
          "indexed": true,
          "internalType": "address",
          "name": "spender",
          "type": "address"
        },
        {
          "indexed": false,
          "internalType": "uint256",
          "name": "value",
          "type": "uint256"
        }
      ],
      "name": "Approval",
      "type": "event"
    },
    {
      "anonymous": false,
      "inputs": [
        {
          "indexed": true,
          "internalType": "address",
          "name": "addr",
          "type": "address"
        },
        {
          "indexed": false,
          "internalType": "string",
          "name": "name",
          "type": "string"
        }
      ],
      "name": "CommissionerAdded",
      "type": "event"
    },
    {
      "anonymous": false,
      "inputs": [
        {
          "indexed": false,
          "internalType": "address",
          "name": "from",
          "type": "address"
        },
        {
          "indexed": false,
          "internalType": "uint256",
          "name": "_amount",
          "type": "uint256"
        }
      ],
      "name": "Sell",
      "type": "event"
    },
    {
      "anonymous": false,
      "inputs": [
        {
          "indexed": true,
          "internalType": "address",
          "name": "from",
          "type": "address"
        },
        {
          "indexed": true,
          "internalType": "address",
          "name": "to",
          "type": "address"
        },
        {
          "indexed": false,
          "internalType": "uint256",
          "name": "value",
          "type": "uint256"
        }
      ],
      "name": "Transfer",
      "type": "event"
    },
    {
      "anonymous": false,
      "inputs": [
        {
          "indexed": true,
          "internalType": "address",
          "name": "recipient",
          "type": "address"
        },
        {
          "indexed": false,
          "internalType": "uint8",
          "name": "numberOfTokens",
          "type": "uint8"
        },
        {
          "indexed": false,
          "internalType": "string",
          "name": "reason",
          "type": "string"
        }
      ],
      "name": "TransferFailed",
      "type": "event"
    },
    {
      "stateMutability": "payable",
      "type": "fallback",
      "payable": true
    },
    {
      "inputs": [],
      "name": "admin",
      "outputs": [
        {
          "internalType": "address",
          "name": "",
          "type": "address"
        }
      ],
      "stateMutability": "view",
      "type": "function",
      "constant": true
    },
    {
      "inputs": [
        {
          "internalType": "address",
          "name": "_to",
          "type": "address"
        },
        {
          "internalType": "uint256",
          "name": "_value",
          "type": "uint256"
        }
      ],
      "name": "adminTransfer",
      "outputs": [
        {
          "internalType": "bool",
          "name": "success",
          "type": "bool"
        }
      ],
      "stateMutability": "nonpayable",
      "type": "function"
    },
    {
      "inputs": [
        {
          "internalType": "address",
          "name": "",
          "type": "address"
        },
        {
          "internalType": "address",
          "name": "",
          "type": "address"
        }
      ],
      "name": "allowance",
      "outputs": [
        {
          "internalType": "uint256",
          "name": "",
          "type": "uint256"
        }
      ],
      "stateMutability": "view",
      "type": "function",
      "constant": true
    },
    {
      "inputs": [
        {
          "internalType": "address",
          "name": "_spender",
          "type": "address"
        },
        {
          "internalType": "uint256",
          "name": "_value",
          "type": "uint256"
        }
      ],
      "name": "approve",
      "outputs": [
        {
          "internalType": "bool",
          "name": "success",
          "type": "bool"
        }
      ],
      "stateMutability": "nonpayable",
      "type": "function"
    },
    {
      "inputs": [
        {
          "internalType": "address",
          "name": "",
          "type": "address"
        }
      ],
      "name": "balanceOf",
      "outputs": [
        {
          "internalType": "uint256",
          "name": "",
          "type": "uint256"
        }
      ],
      "stateMutability": "view",
      "type": "function",
      "constant": true
    },
    {
      "inputs": [
        {
          "internalType": "uint256",
          "name": "value",
          "type": "uint256"
        }
      ],
      "name": "calculateTip",
      "outputs": [
        {
          "internalType": "uint256",
          "name": "tip",
          "type": "uint256"
        }
      ],
      "stateMutability": "pure",
      "type": "function",
      "constant": true
    },
    {
      "inputs": [
        {
          "internalType": "address",
          "name": "",
          "type": "address"
        }
      ],
      "name": "commissioners",
      "outputs": [
        {
          "internalType": "address",
          "name": "addr",
          "type": "address"
        },
        {
          "internalType": "enum TokenSale.CommissionStatus",
          "name": "status",
          "type": "uint8"
        },
        {
          "internalType": "uint256",
          "name": "commissionAmount",
          "type": "uint256"
        }
      ],
      "stateMutability": "view",
      "type": "function",
      "constant": true
    },
    {
      "inputs": [
        {
          "internalType": "uint8",
          "name": "x",
          "type": "uint8"
        },
        {
          "internalType": "uint256",
          "name": "y",
          "type": "uint256"
        }
      ],
      "name": "multiply",
      "outputs": [
        {
          "internalType": "uint256",
          "name": "z",
          "type": "uint256"
        }
      ],
      "stateMutability": "pure",
      "type": "function",
      "constant": true
    },
    {
      "inputs": [],
      "name": "name",
      "outputs": [
        {
          "internalType": "string",
          "name": "",
          "type": "string"
        }
      ],
      "stateMutability": "view",
      "type": "function",
      "constant": true
    },
    {
      "inputs": [
        {
          "internalType": "uint256",
          "name": "",
          "type": "uint256"
        }
      ],
      "name": "owners",
      "outputs": [
        {
          "internalType": "address",
          "name": "",
          "type": "address"
        }
      ],
      "stateMutability": "view",
      "type": "function",
      "constant": true
    },
    {
      "inputs": [],
      "name": "standard",
      "outputs": [
        {
          "internalType": "string",
          "name": "",
          "type": "string"
        }
      ],
      "stateMutability": "view",
      "type": "function",
      "constant": true
    },
    {
      "inputs": [],
      "name": "symbol",
      "outputs": [
        {
          "internalType": "string",
          "name": "",
          "type": "string"
        }
      ],
      "stateMutability": "view",
      "type": "function",
      "constant": true
    },
    {
      "inputs": [],
      "name": "tokenContract",
      "outputs": [
        {
          "internalType": "contract MyToken",
          "name": "",
          "type": "address"
        }
      ],
      "stateMutability": "view",
      "type": "function",
      "constant": true
    },
    {
      "inputs": [],
      "name": "tokenPrice",
      "outputs": [
        {
          "internalType": "uint256",
          "name": "",
          "type": "uint256"
        }
      ],
      "stateMutability": "view",
      "type": "function",
      "constant": true
    },
    {
      "inputs": [],
      "name": "tokenSold",
      "outputs": [
        {
          "internalType": "uint8",
          "name": "",
          "type": "uint8"
        }
      ],
      "stateMutability": "view",
      "type": "function",
      "constant": true
    },
    {
      "inputs": [],
      "name": "totalSupply",
      "outputs": [
        {
          "internalType": "uint256",
          "name": "",
          "type": "uint256"
        }
      ],
      "stateMutability": "view",
      "type": "function",
      "constant": true
    },
    {
      "inputs": [
        {
          "internalType": "address",
          "name": "_to",
          "type": "address"
        },
        {
          "internalType": "uint256",
          "name": "_value",
          "type": "uint256"
        }
      ],
      "name": "transfer",
      "outputs": [
        {
          "internalType": "bool",
          "name": "success",
          "type": "bool"
        }
      ],
      "stateMutability": "nonpayable",
      "type": "function"
    },
    {
      "inputs": [
        {
          "internalType": "address",
          "name": "_from",
          "type": "address"
        },
        {
          "internalType": "address",
          "name": "_to",
          "type": "address"
        },
        {
          "internalType": "uint256",
          "name": "_value",
          "type": "uint256"
        }
      ],
      "name": "transferFrom",
      "outputs": [
        {
          "internalType": "bool",
          "name": "success",
          "type": "bool"
        }
      ],
      "stateMutability": "nonpayable",
      "type": "function"
    },
    {
      "inputs": [
        {
          "internalType": "address",
          "name": "",
          "type": "address"
        },
        {
          "internalType": "address",
          "name": "",
          "type": "address"
        }
      ],
      "name": "validToken",
      "outputs": [
        {
          "internalType": "uint256",
          "name": "",
          "type": "uint256"
        }
      ],
      "stateMutability": "view",
      "type": "function",
      "constant": true
    },
    {
      "stateMutability": "payable",
      "type": "receive",
      "payable": true
    },
    {
      "inputs": [
        {
          "internalType": "uint256",
          "name": "_price",
          "type": "uint256"
        }
      ],
      "name": "setTokenPrice",
      "outputs": [],
      "stateMutability": "nonpayable",
      "type": "function"
    },
    {
      "inputs": [
        {
          "internalType": "address",
          "name": "_addr",
          "type": "address"
        },
        {
          "internalType": "string",
          "name": "_name",
          "type": "string"
        }
      ],
      "name": "addCommissioner",
      "outputs": [],
      "stateMutability": "nonpayable",
      "type": "function"
    },
    {
      "inputs": [
        {
          "internalType": "uint8",
          "name": "_numberOfTokens",
          "type": "uint8"
        }
      ],
      "name": "buyTokens",
      "outputs": [],
      "stateMutability": "payable",
      "type": "function",
      "payable": true
    },
    {
      "inputs": [],
      "name": "EndSale",
      "outputs": [],
      "stateMutability": "nonpayable",
      "type": "function"
    },
    {
      "inputs": [
        {
          "internalType": "address payable",
          "name": "_to",
          "type": "address"
        }
      ],
      "name": "sendEther",
      "outputs": [],
      "stateMutability": "payable",
      "type": "function",
      "payable": true
    },
    {
      "inputs": [
        {
          "internalType": "address",
          "name": "_from",
          "type": "address"
        },
        {
          "internalType": "address",
          "name": "_to",
          "type": "address"
        }
      ],
      "name": "transferToken",
      "outputs": [],
      "stateMutability": "payable",
      "type": "function",
      "payable": true
    }
  ],
  "bytecode": "0x60806040526040518060400160405280601381526020017f4d79546f6b656e2076657273696f6e20302e3100000000000000000000000000815250600090816200004a919062000530565b506000600c60006101000a81548160ff0219169083151502179055503480156200007357600080fd5b5060405162003610380380620036108339818101604052810190620000999190620006c6565b8033600460006101000a81548173ffffffffffffffffffffffffffffffffffffffff021916908373ffffffffffffffffffffffffffffffffffffffff1602179055508060066000600460009054906101000a900473ffffffffffffffffffffffffffffffffffffffff1673ffffffffffffffffffffffffffffffffffffffff1673ffffffffffffffffffffffffffffffffffffffff16815260200190815260200160002081905550806001819055506040518060200160405280600460009054906101000a900473ffffffffffffffffffffffffffffffffffffffff1673ffffffffffffffffffffffffffffffffffffffff1673ffffffffffffffffffffffffffffffffffffffff168152506002906001620001b792919062000202565b505081600760006101000a81548173ffffffffffffffffffffffffffffffffffffffff021916908373ffffffffffffffffffffffffffffffffffffffff16021790555050506200070d565b8280548282559060005260206000209081019282156200027e579160200282015b828111156200027d5782518260006101000a81548173ffffffffffffffffffffffffffffffffffffffff021916908373ffffffffffffffffffffffffffffffffffffffff1602179055509160200191906001019062000223565b5b5090506200028d919062000291565b5090565b5b80821115620002ac57600081600090555060010162000292565b5090565b600081519050919050565b7f4e487b7100000000000000000000000000000000000000000000000000000000600052604160045260246000fd5b7f4e487b7100000000000000000000000000000000000000000000000000000000600052602260045260246000fd5b600060028204905060018216806200033257607f821691505b602082108103620003485762000347620002ea565b5b50919050565b60008190508160005260206000209050919050565b60006020601f8301049050919050565b60008160020a8302905092915050565b600060088302620003b57fffffffffffffffffffffffffffffffffffffffffffffffffffffffffffffffff8262000373565b620003c1868362000373565b95508019841693508086168417925050509392505050565b6000819050919050565b6000819050919050565b60006200040e620004086200040284620003d9565b620003e3565b620003d9565b9050919050565b6000819050919050565b6200042a83620003ed565b62000442620004398262000415565b84845462000383565b825550505050565b600090565b620004596200044a565b620004668184846200041f565b505050565b5b818110156200048e57620004826000826200044f565b6001810190506200046c565b5050565b601f821115620004dd57620004a7816200034e565b620004b28462000363565b81016020851015620004c2578190505b620004da620004d18562000363565b8301826200046b565b50505b505050565b60008160020a8304905092915050565b60006200050560001984600802620004e2565b1980831691505092915050565b6000620005208383620004f2565b9150826002028217905092915050565b6200053b82620002b0565b67ffffffffffffffff811115620005575762000556620002bb565b5b62000563825462000319565b6200057082828562000492565b600060209050601f831160018114620005a8576000841562000593578287015190505b6200059f858262000512565b8655506200060f565b601f198416620005b8866200034e565b60005b82811015620005e257848901518255600182019150602085019450602081019050620005bb565b86831015620006025784890151620005fe601f891682620004f2565b8355505b6001600288020188555050505b505050505050565b600080fd5b600073ffffffffffffffffffffffffffffffffffffffff82169050919050565b600062000649826200061c565b9050919050565b60006200065d826200063c565b9050919050565b6200066f8162000650565b81146200067b57600080fd5b50565b6000815190506200068f8162000664565b92915050565b620006a081620003d9565b8114620006ac57600080fd5b50565b600081519050620006c08162000695565b92915050565b60008060408385031215620006e057620006df62000617565b5b6000620006f0858286016200067e565b92505060206200070385828601620006af565b9150509250929050565b612ef3806200071d6000396000f3fe608060405260043610610187576000357c0100000000000000000000000000000000000000000000000000000000900480636a61e5fc116100ee57806395d89b41116100a7578063dd62ed3e11610081578063dd62ed3e14610564578063f17e48ec146105a1578063f851a440146105de578063fc6e6633146106095761018e565b806395d89b41146104e0578063a9059cbb1461050b578063bba5b24e146105485761018e565b80636a61e5fc146103bc57806370a08231146103e5578063734c19ce1461042257806376b1dda3146104615780637ff9b59614610478578063927c7dfd146104a35761018e565b806348ae238f1161014057806348ae238f146102da57806348c981e2146102f6578063519ee19e1461031257806355a373d61461033d5780635a3b7e42146103685780636709581b146103935761018e565b8063025e7c271461019057806306fdde03146101cd578063095ea7b3146101f857806318160ddd1461023557806323b872dd14610260578063314eebf81461029d5761018e565b3661018e57005b005b34801561019c57600080fd5b506101b760048036038101906101b29190611f07565b610646565b6040516101c49190611f75565b60405180910390f35b3480156101d957600080fd5b506101e2610685565b6040516101ef9190612020565b60405180910390f35b34801561020457600080fd5b5061021f600480360381019061021a919061206e565b6106be565b60405161022c91906120c9565b60405180910390f35b34801561024157600080fd5b5061024a6107c2565b60405161025791906120f3565b60405180910390f35b34801561026c57600080fd5b506102876004803603810190610282919061210e565b6107c8565b60405161029491906120c9565b60405180910390f35b3480156102a957600080fd5b506102c460048036038101906102bf919061219a565b610b73565b6040516102d191906120f3565b60405180910390f35b6102f460048036038101906102ef91906121da565b610bb0565b005b610310600480360381019061030b9190612258565b610d10565b005b34801561031e57600080fd5b50610327611092565b6040516103349190612294565b60405180910390f35b34801561034957600080fd5b506103526110a5565b60405161035f919061230e565b60405180910390f35b34801561037457600080fd5b5061037d6110cb565b60405161038a9190612020565b60405180910390f35b34801561039f57600080fd5b506103ba60048036038101906103b5919061245e565b611159565b005b3480156103c857600080fd5b506103e360048036038101906103de9190611f07565b61132f565b005b3480156103f157600080fd5b5061040c600480360381019061040791906124ba565b6113c9565b60405161041991906120f3565b60405180910390f35b34801561042e57600080fd5b50610449600480360381019061044491906124ba565b6113e1565b6040516104589392919061255e565b60405180910390f35b34801561046d57600080fd5b50610476611438565b005b34801561048457600080fd5b5061048d6116cb565b60405161049a91906120f3565b60405180910390f35b3480156104af57600080fd5b506104ca60048036038101906104c591906121da565b6116d1565b6040516104d791906120f3565b60405180910390f35b3480156104ec57600080fd5b506104f56116f6565b6040516105029190612020565b60405180910390f35b34801561051757600080fd5b50610532600480360381019061052d919061206e565b61172f565b60405161053f91906120c9565b60405180910390f35b610562600480360381019061055d9190612595565b61197e565b005b34801561057057600080fd5b5061058b600480360381019061058691906121da565b611ba2565b60405161059891906120f3565b60405180910390f35b3480156105ad57600080fd5b506105c860048036038101906105c3919061206e565b611bc7565b6040516105d591906120c9565b60405180910390f35b3480156105ea57600080fd5b506105f3611e7c565b6040516106009190611f75565b60405180910390f35b34801561061557600080fd5b50610630600480360381019061062b9190611f07565b611ea2565b60405161063d91906120f3565b60405180910390f35b6002818154811061065657600080fd5b906000526020600020016000915054906101000a900473ffffffffffffffffffffffffffffffffffffffff1681565b6040518060400160405280600881526020017f4d7920546f6b656e00000000000000000000000000000000000000000000000081525081565b600081600560003373ffffffffffffffffffffffffffffffffffffffff1673ffffffffffffffffffffffffffffffffffffffff16815260200190815260200160002060008573ffffffffffffffffffffffffffffffffffffffff1673ffffffffffffffffffffffffffffffffffffffff168152602001908152602001600020600082825461074c91906125f1565b925050819055508273ffffffffffffffffffffffffffffffffffffffff163373ffffffffffffffffffffffffffffffffffffffff167f8c5be1e5ebec7d5bd14f71427d1e84f3dd0314c0f7b2291e5b200ac8c7c3b925846040516107b091906120f3565b60405180910390a36001905092915050565b60015481565b6000600660008573ffffffffffffffffffffffffffffffffffffffff1673ffffffffffffffffffffffffffffffffffffffff1681526020019081526020016000205482111561084c576040517f08c379a000000000000000000000000000000000000000000000000000000000815260040161084390612671565b60405180910390fd5b600560008573ffffffffffffffffffffffffffffffffffffffff1673ffffffffffffffffffffffffffffffffffffffff16815260200190815260200160002060003373ffffffffffffffffffffffffffffffffffffffff1673ffffffffffffffffffffffffffffffffffffffff1681526020019081526020016000205482111561090b576040517f08c379a0000000000000000000000000000000000000000000000000000000008152600401610902906126dd565b60405180910390fd5b81600660008673ffffffffffffffffffffffffffffffffffffffff1673ffffffffffffffffffffffffffffffffffffffff168152602001908152602001600020600082825461095a91906126fd565b9250508190555081600660008573ffffffffffffffffffffffffffffffffffffffff1673ffffffffffffffffffffffffffffffffffffffff16815260200190815260200160002060008282546109b091906125f1565b9250508190555081600560008673ffffffffffffffffffffffffffffffffffffffff1673ffffffffffffffffffffffffffffffffffffffff16815260200190815260200160002060003373ffffffffffffffffffffffffffffffffffffffff1673ffffffffffffffffffffffffffffffffffffffff1681526020019081526020016000206000828254610a4391906126fd565b9250508190555081600360008573ffffffffffffffffffffffffffffffffffffffff1673ffffffffffffffffffffffffffffffffffffffff1681526020019081526020016000206000828254610a9991906125f1565b925050819055508273ffffffffffffffffffffffffffffffffffffffff168473ffffffffffffffffffffffffffffffffffffffff167fddf252ad1be2c89b69c2b068fc378daa952ba7f163c4a11628f55a4df523b3ef84604051610afd91906120f3565b60405180910390a36002839080600181540180825580915050600190039060005260206000200160009091909190916101000a81548173ffffffffffffffffffffffffffffffffffffffff021916908373ffffffffffffffffffffffffffffffffffffffff160217905550600190509392505050565b600080821480610ba157508260ff1682838560ff16610b929190612731565b925082610b9f91906127a2565b145b610baa57600080fd5b92915050565b600a60003373ffffffffffffffffffffffffffffffffffffffff1673ffffffffffffffffffffffffffffffffffffffff16815260200190815260200160002060008273ffffffffffffffffffffffffffffffffffffffff1673ffffffffffffffffffffffffffffffffffffffff16815260200190815260200160002054600660008473ffffffffffffffffffffffffffffffffffffffff1673ffffffffffffffffffffffffffffffffffffffff168152602001908152602001600020541015610c7857600080fd5b610cff8282600a60003373ffffffffffffffffffffffffffffffffffffffff1673ffffffffffffffffffffffffffffffffffffffff16815260200190815260200160002060008573ffffffffffffffffffffffffffffffffffffffff1673ffffffffffffffffffffffffffffffffffffffff168152602001908152602001600020546107c8565b610d0c57610d0b6127d3565b5b5050565b600c60009054906101000a900460ff1615610d60576040517f08c379a0000000000000000000000000000000000000000000000000000000008152600401610d579061284e565b60405180910390fd5b6001600c60006101000a81548160ff0219169083151502179055506000808273ffffffffffffffffffffffffffffffffffffffff1634604051610da29061289f565b60006040518083038185875af1925050503d8060008114610ddf576040519150601f19603f3d011682016040523d82523d6000602084013e610de4565b606091505b509150915081610e29576040517f08c379a0000000000000000000000000000000000000000000000000000000008152600401610e2090612900565b60405180910390fd5b60003411610e3a57610e396127d3565b5b6000610e4534611ea2565b90506000600b60008673ffffffffffffffffffffffffffffffffffffffff1673ffffffffffffffffffffffffffffffffffffffff1681526020019081526020016000206040518060600160405290816000820160009054906101000a900473ffffffffffffffffffffffffffffffffffffffff1673ffffffffffffffffffffffffffffffffffffffff1673ffffffffffffffffffffffffffffffffffffffff1681526020016000820160149054906101000a900460ff166001811115610f0e57610f0d6124e7565b5b6001811115610f2057610f1f6124e7565b5b815260200160018201548152505090508181604001818151610f4291906125f1565b9150818152505034821115610f8c576040517f08c379a0000000000000000000000000000000000000000000000000000000008152600401610f839061296c565b60405180910390fd5b60008234610f9a91906126fd565b9050600060085403610fe1576040517f08c379a0000000000000000000000000000000000000000000000000000000008152600401610fd8906129d8565b60405180910390fd5b60085481610fef91906127a2565b600a60008873ffffffffffffffffffffffffffffffffffffffff1673ffffffffffffffffffffffffffffffffffffffff16815260200190815260200160002060003373ffffffffffffffffffffffffffffffffffffffff1673ffffffffffffffffffffffffffffffffffffffff1681526020019081526020016000208190555050505050506000600c60006101000a81548160ff02191690831515021790555050565b600960009054906101000a900460ff1681565b600760009054906101000a900473ffffffffffffffffffffffffffffffffffffffff1681565b600080546110d890612a27565b80601f016020809104026020016040519081016040528092919081815260200182805461110490612a27565b80156111515780601f1061112657610100808354040283529160200191611151565b820191906000526020600020905b81548152906001019060200180831161113457829003601f168201915b505050505081565b8173ffffffffffffffffffffffffffffffffffffffff16600b60008473ffffffffffffffffffffffffffffffffffffffff1673ffffffffffffffffffffffffffffffffffffffff16815260200190815260200160002060000160009054906101000a900473ffffffffffffffffffffffffffffffffffffffff1673ffffffffffffffffffffffffffffffffffffffff1614611229576040517f08c379a000000000000000000000000000000000000000000000000000000000815260040161122090612aa4565b60405180910390fd5b6000600b60008473ffffffffffffffffffffffffffffffffffffffff1673ffffffffffffffffffffffffffffffffffffffff1681526020019081526020016000209050828160000160006101000a81548173ffffffffffffffffffffffffffffffffffffffff021916908373ffffffffffffffffffffffffffffffffffffffff16021790555060018160000160146101000a81548160ff021916908360018111156112d7576112d66124e7565b5b02179055508273ffffffffffffffffffffffffffffffffffffffff167fb3b66f6ec36f5a18c19fb47c41c7de712f946b9dba8566214ed8d01f2a6c89ad836040516113229190612020565b60405180910390a2505050565b600460009054906101000a900473ffffffffffffffffffffffffffffffffffffffff1673ffffffffffffffffffffffffffffffffffffffff163373ffffffffffffffffffffffffffffffffffffffff16146113bf576040517f08c379a00000000000000000000000000000000000000000000000000000000081526004016113b690612b10565b60405180910390fd5b8060088190555050565b60066020528060005260406000206000915090505481565b600b6020528060005260406000206000915090508060000160009054906101000a900473ffffffffffffffffffffffffffffffffffffffff16908060000160149054906101000a900460ff16908060010154905083565b600460009054906101000a900473ffffffffffffffffffffffffffffffffffffffff1673ffffffffffffffffffffffffffffffffffffffff163373ffffffffffffffffffffffffffffffffffffffff16146114c8576040517f08c379a00000000000000000000000000000000000000000000000000000000081526004016114bf90612b10565b60405180910390fd5b600460009054906101000a900473ffffffffffffffffffffffffffffffffffffffff1673ffffffffffffffffffffffffffffffffffffffff163373ffffffffffffffffffffffffffffffffffffffff1614611558576040517f08c379a000000000000000000000000000000000000000000000000000000000815260040161154f90612b7c565b60405180910390fd5b6000600760009054906101000a900473ffffffffffffffffffffffffffffffffffffffff1673ffffffffffffffffffffffffffffffffffffffff166370a08231306040518263ffffffff167c01000000000000000000000000000000000000000000000000000000000281526004016115d19190611f75565b602060405180830381865afa1580156115ee573d6000803e3d6000fd5b505050506040513d601f19601f820116820180604052508101906116129190612bb1565b905060008111611657576040517f08c379a000000000000000000000000000000000000000000000000000000000815260040161164e90612c2a565b60405180910390fd5b6000611685600460009054906101000a900473ffffffffffffffffffffffffffffffffffffffff168361172f565b9050806116c7576040517f08c379a00000000000000000000000000000000000000000000000000000000081526004016116be90612cbc565b60405180910390fd5b5050565b60085481565b600a602052816000526040600020602052806000526040600020600091509150505481565b6040518060400160405280600381526020017f564953000000000000000000000000000000000000000000000000000000000081525081565b600081600660003373ffffffffffffffffffffffffffffffffffffffff1673ffffffffffffffffffffffffffffffffffffffff1681526020019081526020016000205410156117b3576040517f08c379a00000000000000000000000000000000000000000000000000000000081526004016117aa90612d28565b60405180910390fd5b8160066000600460009054906101000a900473ffffffffffffffffffffffffffffffffffffffff1673ffffffffffffffffffffffffffffffffffffffff1673ffffffffffffffffffffffffffffffffffffffff1681526020019081526020016000205461182091906126fd565b600660003373ffffffffffffffffffffffffffffffffffffffff1673ffffffffffffffffffffffffffffffffffffffff1681526020019081526020016000208190555081600660008573ffffffffffffffffffffffffffffffffffffffff1673ffffffffffffffffffffffffffffffffffffffff16815260200190815260200160002060008282546118b291906125f1565b925050819055508273ffffffffffffffffffffffffffffffffffffffff163373ffffffffffffffffffffffffffffffffffffffff167fddf252ad1be2c89b69c2b068fc378daa952ba7f163c4a11628f55a4df523b3ef8460405161191691906120f3565b60405180910390a381600360008573ffffffffffffffffffffffffffffffffffffffff1673ffffffffffffffffffffffffffffffffffffffff168152602001908152602001600020600082825461196d91906125f1565b925050819055506001905092915050565b60066000600460009054906101000a900473ffffffffffffffffffffffffffffffffffffffff1673ffffffffffffffffffffffffffffffffffffffff1673ffffffffffffffffffffffffffffffffffffffff168152602001908152602001600020548160ff1680821015611a27576040517f08c379a0000000000000000000000000000000000000000000000000000000008152600401611a1e90612671565b60405180910390fd5b6000611a3584600854610b73565b9050803414611a79576040517f08c379a0000000000000000000000000000000000000000000000000000000008152600401611a7090612d94565b60405180910390fd5b6000611a88338660ff16611bc7565b905080611b2b573373ffffffffffffffffffffffffffffffffffffffff166108fc349081150290604051600060405180830381858888f19350505050158015611ad5573d6000803e3d6000fd5b503373ffffffffffffffffffffffffffffffffffffffff167fc82756bf4321c2d60a4abaee27ed03cea842ebb97fc81c54f5c59e63e96cfb0f86604051611b1c9190612e00565b60405180910390a25050611b9d565b84600960008282829054906101000a900460ff16611b499190612e2e565b92506101000a81548160ff021916908360ff1602179055507f5e5e995ce3133561afceaa51a9a154d5db228cd7525d34df5185582c18d3df093386604051611b92929190612e94565b60405180910390a150505b505050565b6005602052816000526040600020602052806000526040600020600091509150505481565b60008160066000600460009054906101000a900473ffffffffffffffffffffffffffffffffffffffff1673ffffffffffffffffffffffffffffffffffffffff1673ffffffffffffffffffffffffffffffffffffffff168152602001908152602001600020541015611c6d576040517f08c379a0000000000000000000000000000000000000000000000000000000008152600401611c6490612d28565b60405180910390fd5b8160066000600460009054906101000a900473ffffffffffffffffffffffffffffffffffffffff1673ffffffffffffffffffffffffffffffffffffffff1673ffffffffffffffffffffffffffffffffffffffff16815260200190815260200160002054611cda91906126fd565b60066000600460009054906101000a900473ffffffffffffffffffffffffffffffffffffffff1673ffffffffffffffffffffffffffffffffffffffff1673ffffffffffffffffffffffffffffffffffffffff1681526020019081526020016000208190555081600660008573ffffffffffffffffffffffffffffffffffffffff1673ffffffffffffffffffffffffffffffffffffffff1681526020019081526020016000206000828254611d8e91906125f1565b925050819055508273ffffffffffffffffffffffffffffffffffffffff16600460009054906101000a900473ffffffffffffffffffffffffffffffffffffffff1673ffffffffffffffffffffffffffffffffffffffff167fddf252ad1be2c89b69c2b068fc378daa952ba7f163c4a11628f55a4df523b3ef84604051611e1491906120f3565b60405180910390a381600360008573ffffffffffffffffffffffffffffffffffffffff1673ffffffffffffffffffffffffffffffffffffffff1681526020019081526020016000206000828254611e6b91906125f1565b925050819055506001905092915050565b600460009054906101000a900473ffffffffffffffffffffffffffffffffffffffff1681565b600080600a83611eb291906127a2565b905080915050919050565b6000604051905090565b600080fd5b600080fd5b6000819050919050565b611ee481611ed1565b8114611eef57600080fd5b50565b600081359050611f0181611edb565b92915050565b600060208284031215611f1d57611f1c611ec7565b5b6000611f2b84828501611ef2565b91505092915050565b600073ffffffffffffffffffffffffffffffffffffffff82169050919050565b6000611f5f82611f34565b9050919050565b611f6f81611f54565b82525050565b6000602082019050611f8a6000830184611f66565b92915050565b600081519050919050565b600082825260208201905092915050565b60005b83811015611fca578082015181840152602081019050611faf565b60008484015250505050565b6000601f19601f8301169050919050565b6000611ff282611f90565b611ffc8185611f9b565b935061200c818560208601611fac565b61201581611fd6565b840191505092915050565b6000602082019050818103600083015261203a8184611fe7565b905092915050565b61204b81611f54565b811461205657600080fd5b50565b60008135905061206881612042565b92915050565b6000806040838503121561208557612084611ec7565b5b600061209385828601612059565b92505060206120a485828601611ef2565b9150509250929050565b60008115159050919050565b6120c3816120ae565b82525050565b60006020820190506120de60008301846120ba565b92915050565b6120ed81611ed1565b82525050565b600060208201905061210860008301846120e4565b92915050565b60008060006060848603121561212757612126611ec7565b5b600061213586828701612059565b935050602061214686828701612059565b925050604061215786828701611ef2565b9150509250925092565b600060ff82169050919050565b61217781612161565b811461218257600080fd5b50565b6000813590506121948161216e565b92915050565b600080604083850312156121b1576121b0611ec7565b5b60006121bf85828601612185565b92505060206121d085828601611ef2565b9150509250929050565b600080604083850312156121f1576121f0611ec7565b5b60006121ff85828601612059565b925050602061221085828601612059565b9150509250929050565b600061222582611f34565b9050919050565b6122358161221a565b811461224057600080fd5b50565b6000813590506122528161222c565b92915050565b60006020828403121561226e5761226d611ec7565b5b600061227c84828501612243565b91505092915050565b61228e81612161565b82525050565b60006020820190506122a96000830184612285565b92915050565b6000819050919050565b60006122d46122cf6122ca84611f34565b6122af565b611f34565b9050919050565b60006122e6826122b9565b9050919050565b60006122f8826122db565b9050919050565b612308816122ed565b82525050565b600060208201905061232360008301846122ff565b92915050565b600080fd5b600080fd5b7f4e487b7100000000000000000000000000000000000000000000000000000000600052604160045260246000fd5b61236b82611fd6565b810181811067ffffffffffffffff8211171561238a57612389612333565b5b80604052505050565b600061239d611ebd565b90506123a98282612362565b919050565b600067ffffffffffffffff8211156123c9576123c8612333565b5b6123d282611fd6565b9050602081019050919050565b82818337600083830152505050565b60006124016123fc846123ae565b612393565b90508281526020810184848401111561241d5761241c61232e565b5b6124288482856123df565b509392505050565b600082601f83011261244557612444612329565b5b81356124558482602086016123ee565b91505092915050565b6000806040838503121561247557612474611ec7565b5b600061248385828601612059565b925050602083013567ffffffffffffffff8111156124a4576124a3611ecc565b5b6124b085828601612430565b9150509250929050565b6000602082840312156124d0576124cf611ec7565b5b60006124de84828501612059565b91505092915050565b7f4e487b7100000000000000000000000000000000000000000000000000000000600052602160045260246000fd5b60028110612527576125266124e7565b5b50565b600081905061253882612516565b919050565b60006125488261252a565b9050919050565b6125588161253d565b82525050565b60006060820190506125736000830186611f66565b612580602083018561254f565b61258d60408301846120e4565b949350505050565b6000602082840312156125ab576125aa611ec7565b5b60006125b984828501612185565b91505092915050565b7f4e487b7100000000000000000000000000000000000000000000000000000000600052601160045260246000fd5b60006125fc82611ed1565b915061260783611ed1565b925082820190508082111561261f5761261e6125c2565b5b92915050565b7f496e73756666696369656e742062616c616e6365000000000000000000000000600082015250565b600061265b601483611f9b565b915061266682612625565b602082019050919050565b6000602082019050818103600083015261268a8161264e565b9050919050565b7f416c6c6f77616e63652065786365656465640000000000000000000000000000600082015250565b60006126c7601283611f9b565b91506126d282612691565b602082019050919050565b600060208201905081810360008301526126f6816126ba565b9050919050565b600061270882611ed1565b915061271383611ed1565b925082820390508181111561272b5761272a6125c2565b5b92915050565b600061273c82611ed1565b915061274783611ed1565b925082820261275581611ed1565b9150828204841483151761276c5761276b6125c2565b5b5092915050565b7f4e487b7100000000000000000000000000000000000000000000000000000000600052601260045260246000fd5b60006127ad82611ed1565b91506127b883611ed1565b9250826127c8576127c7612773565b5b828204905092915050565b7f4e487b7100000000000000000000000000000000000000000000000000000000600052600160045260246000fd5b7f4e6f207265656e7472616e637920616c6c6f7765642e00000000000000000000600082015250565b6000612838601683611f9b565b915061284382612802565b602082019050919050565b600060208201905081810360008301526128678161282b565b9050919050565b600081905092915050565b50565b600061288960008361286e565b915061289482612879565b600082019050919050565b60006128aa8261287c565b9150819050919050565b7f4661696c656420746f2073656e64204574686572000000000000000000000000600082015250565b60006128ea601483611f9b565b91506128f5826128b4565b602082019050919050565b60006020820190508181036000830152612919816128dd565b9050919050565b7f5469702065786365656473206d6573736167652076616c756500000000000000600082015250565b6000612956601983611f9b565b915061296182612920565b602082019050919050565b6000602082019050818103600083015261298581612949565b9050919050565b7f546f6b656e2070726963652063616e6e6f74206265207a65726f000000000000600082015250565b60006129c2601a83611f9b565b91506129cd8261298c565b602082019050919050565b600060208201905081810360008301526129f1816129b5565b9050919050565b7f4e487b7100000000000000000000000000000000000000000000000000000000600052602260045260246000fd5b60006002820490506001821680612a3f57607f821691505b602082108103612a5257612a516129f8565b5b50919050565b7f436f6d6d697373696f6e657220616c7265616479206578697374730000000000600082015250565b6000612a8e601b83611f9b565b9150612a9982612a58565b602082019050919050565b60006020820190508181036000830152612abd81612a81565b9050919050565b7f41646d696e2063616e206f6e6c7920646f2074686973206f7065726174696f6e600082015250565b6000612afa602083611f9b565b9150612b0582612ac4565b602082019050919050565b60006020820190508181036000830152612b2981612aed565b9050919050565b7f4f6e6c792061646d696e2063616e20656e64207468652073616c650000000000600082015250565b6000612b66601b83611f9b565b9150612b7182612b30565b602082019050919050565b60006020820190508181036000830152612b9581612b59565b9050919050565b600081519050612bab81611edb565b92915050565b600060208284031215612bc757612bc6611ec7565b5b6000612bd584828501612b9c565b91505092915050565b7f4e6f2072656d61696e696e6720746f6b656e7320746f207472616e7366657200600082015250565b6000612c14601f83611f9b565b9150612c1f82612bde565b602082019050919050565b60006020820190508181036000830152612c4381612c07565b9050919050565b7f4661696c656420746f207472616e736665722072656d61696e696e6720746f6b60008201527f656e7320746f2061646d696e0000000000000000000000000000000000000000602082015250565b6000612ca6602c83611f9b565b9150612cb182612c4a565b604082019050919050565b60006020820190508181036000830152612cd581612c99565b9050919050565b7f696e73756666696369656e742062616c616e6365737373000000000000000000600082015250565b6000612d12601783611f9b565b9150612d1d82612cdc565b602082019050919050565b60006020820190508181036000830152612d4181612d05565b9050919050565b7f496e636f7272656374207061796d656e7420616d6f756e740000000000000000600082015250565b6000612d7e601883611f9b565b9150612d8982612d48565b602082019050919050565b60006020820190508181036000830152612dad81612d71565b9050919050565b7f546f6b656e207472616e73666572206661696c65640000000000000000000000600082015250565b6000612dea601583611f9b565b9150612df582612db4565b602082019050919050565b6000604082019050612e156000830184612285565b8181036020830152612e2681612ddd565b905092915050565b6000612e3982612161565b9150612e4483612161565b9250828201905060ff811115612e5d57612e5c6125c2565b5b92915050565b6000612e7e612e79612e7484612161565b6122af565b611ed1565b9050919050565b612e8e81612e63565b82525050565b6000604082019050612ea96000830185611f66565b612eb66020830184612e85565b939250505056fea2646970667358221220cf090f904bcfe313fc71ba81d177c36eb508fd142725a151248b424bc3a43c3264736f6c63430008120033",
  "immutableReferences": {},
  "source": "// SPDX-License-Identifier: MIT\npragma solidity ^0.8.18;\nimport './MyToken.sol';\nimport './ArithmeticOperations.sol';\n\n\ncontract TokenSale is MyToken,ArithmeticOperations{\n    // need to add aggrgation and composition\n    // 1 more class needed \n    // Optimised for    Gas\n    //polymorphic\n    // static and dynmic  modiiers\n    //use of structures and enums\n    // Balance None Pre-balanceOf transfer Post-balanceOf Correct Result\n   \n    \n    MyToken public tokenContract;\n    //In wei\n    uint256 public tokenPrice;\n    uint8 public tokenSold;\n    mapping(address=>mapping (address=> uint256)) public validToken;\n    event Sell(address from, uint256 _amount);\n    mapping(address => Commissioner) public commissioners;\n    event TransferFailed(address indexed recipient, uint8 numberOfTokens, string reason);\n\n    bool private locked = false;\n    enum CommissionStatus { RECEIVED ,NOT_RECEIVED }\n    event CommissionerAdded(address indexed addr, string name);\n\n    \n    struct Commissioner {\n        address addr;\n        CommissionStatus status;\n        uint256 commissionAmount;\n    }\n    constructor(MyToken _tokenContract,uint256 _initialSupply) MyToken(_initialSupply) {\n            tokenContract = _tokenContract;\n    } \n\n\n    function setTokenPrice(uint256  _price) public onlyAdmin{\n        tokenPrice = _price ;\n    }\n\n\n\n     function addCommissioner(address _addr, string memory _name) external {\n        require(commissioners[_addr].addr == _addr, \"Commissioner already exists\");\n        Commissioner storage newCommissioner = commissioners[_addr];\n        newCommissioner.addr = _addr;\n        newCommissioner.status = CommissionStatus.NOT_RECEIVED;\n        emit CommissionerAdded(_addr, _name);\n    }\n   \n    modifier checkBalance(uint balance,uint amount) {\n        require(balance >= amount, \"Insufficient balance\");\n        _;\n    }\n    function buyTokens(uint8 _numberOfTokens) public payable checkBalance(balanceOf[admin], _numberOfTokens) {\n        uint256 totalPrice = multiply(_numberOfTokens, tokenPrice);\n        require(msg.value == totalPrice, \"Incorrect payment amount\");\n        \n\n        bool transferSuccessful = adminTransfer(msg.sender, _numberOfTokens);\n        if (!transferSuccessful) {\n                // Refund the buyer if the transfer fails\n                payable(msg.sender).transfer(msg.value);\n                // Emit the failure event with a reason\n                emit TransferFailed(msg.sender , _numberOfTokens, \"Token transfer failed\");\n                return;\n            }\n\n            tokenSold += _numberOfTokens;\n            emit Sell(msg.sender, _numberOfTokens);\n    }\n\n    function EndSale() public onlyAdmin {\n        require(msg.sender == admin, \"Only admin can end the sale\");\n\n        uint256 remainingTokens = tokenContract.balanceOf(address(this));\n        require(remainingTokens > 0, \"No remaining tokens to transfer\");\n\n        bool transferSuccessful = transfer(admin, remainingTokens);\n        require(transferSuccessful, \"Failed to transfer remaining tokens to admin\");\n    }\n\n    // Modifier to prevent reentrancy attacks \n    modifier noReentrancy() {\n        require(!locked, \"No reentrancy allowed.\");\n        locked = true;\n        _;\n        locked = false;\n    }\n    \n    function sendEther(address payable _to) public payable noReentrancy(){\n        // call function is used\n        (bool sent ,bytes memory data) = _to.call{value:msg.value}(\"\");\n        require(sent,\"Failed to send Ether\");\n        assert(msg.value>0);\n        uint256 _tip = calculateTip(msg.value);\n        Commissioner memory _commissioner =commissioners[_to] ;\n        _commissioner.commissionAmount +=_tip; \n        require(_tip <= msg.value, \"Tip exceeds message value\");\n        uint256 _value =msg.value - _tip;\n        require(tokenPrice != 0, \"Token price cannot be zero\");\n        validToken[_to][msg.sender] = uint256((_value)/tokenPrice);\n    }\n\n\n\n\n\n    function transferToken(address _from,address _to) public payable{\n        require(balanceOf[_from] >= validToken[msg.sender][_to]);\n        assert(transferFrom(_from, _to, validToken[msg.sender][_to]));\n     \n\n    }\n\n    receive() external payable{}\n    fallback() external payable{}\n\n} ",
  "sourcePath": "/home/vishnu/latest-blockchain/contracts/ToekenSale.sol",
  "compiler": {
    "name": "solc",
    "version": "0.8.18+commit.87f61d96.Emscripten.clang"
  },
  "schemaVersion": "3.4.16",
  "updatedAt": "2024-04-13T22:05:07.641Z",
  "networkType": "ethereum",
  "devdoc": {
    "kind": "dev",
    "methods": {},
    "version": 1
  },
  "userdoc": {
    "kind": "user",
    "methods": {},
    "version": 1
  }
}